S01B0000333036392050726F62652053696D204D61696E2E7372656331
S11300004EC0000073C0000071C000006FC000004B
S11300106DC000006BC0000069C0000067C0000034
S113002065C0000063C0000061C000005FC0000044
S11300305DC000005BC0000059C0000057C0000054
S113004055C0000053C0000002C500004FC00000AE
S11300504DC000004BC0000049C0000047C0000074
S113006045C0000043C0000041C000003FC0000084
S11300703DC000003BC0000039C00000D302710441
S11300807104710471047804EA020C032E038703DB
S1130090BD03F4032B0478046204A804AC04112403
S11300A01FBECFEFD0E1DEBFCDBF12E0A0E0B1E0D4
S11300B0E0E4F9E102C005900D92A433B107D9F749
S11300C023E0A4E3B2E001C01D92A63BB207E1F72E
S11300D010E0CEE4D0E004C02197FE010E94950810
S11300E0CD34D107C9F72CD40C94940C89CFCF9379
S11300F0DF93EC010C96E7D5CE018D96E4D5CE01C5
S1130100825B9F4FE0D5CE0181599F4FDCD5CE0154
S113011080579F4FD8D5CE018F549F4FD4D5C75009
S1130120DF4F8AE6FE0111928A95E9F7DF91CF91BC
S113013008952F923F924F925F926F927F928F9287
S11301409F92AF92BF92CF92DF92EF92FF920F9362
S11301501F93CF93DF93CDB7DEB7A1970FB6F89473
S1130160DEBF0FBECDBF4C0104D4F401E059FE4FF5
S11301701082C40187509F4FE2D5240185ED480EBB
S1130180511C24E630E040E855E260E070E0C20132
S1130190D7D4340197EE690E711C24E630E040E8B0
S11301A055E261E070E0C301CBD43BD4C4018C526E
S11301B09F4F50D5F401EF58FE4F11821082C401B5
S11301C08D529F4FBCD3C4018E529F4FB7D380E44E
S11301D08F9380EE8F931F921F9281E48F9380E11F
S11301E08F931F921F920F2EA12CB12CF0EFCF2EC4
S11301F0F0E4DF2EF02D18EBE12E1EE1F12E0FE5D9
S113020011E427E137EB41E55CEB61E0CE010196B7
S11302105BD581E2FE013196D4011C9601900D92CA
S11302208A95E1F70F2EF3E42F2EF02D2F928AEF0B
S11302308F931F921F920F2EF4E43F2EF02D3F92C6
S113024088E48F931F921F920F2EA12CB12CFFE2F2
S1130250CF2EF4E4DF2EF02D16E6E12EFE2C07E47B
S113026013E424E13EEA47E45FE362E0CE01019651
S11302702BD581E2FE013196D4019D9601900D9219
S11302808A95E1F73F928AE78F931F921F923F92DC
S11302908F931F921F920F2EA12CB12CF8E4CF2E16
S11302A0F2E4DF2EF02DE12CF12C870120E030E088
S11302B040E85FE366E0CE01019606D5D401A25B77
S11302C0BF4F81E2FE01319601900D928A95E1F7CC
S11302D02F929AEF9F931F921F923F9281E68F93E2
S11302E01F921F920F2EA12CF0E8BF2EF2E2CF2E08
S11302F0F4E4DF2EF02D20E030E040E85FE363E03B
S1130300CE010196E1D4D401A159BF4F81E2FE018F
S1130310319601900D928A95E1F70FB6F894DEBFFD
S11303200FBECDBF1F921F921F921F920F2EF2E499
S11303303F2EF02D3F9288EC8F931F921F920F2E29
S1130340A12CB12CF8E4CF2EF2E4DF2EF02D20E026
S113035030E040E85FE364E0CE010196B5D4D40117
S1130360A057BF4F81E2FE01319601900D928A950C
S1130370E1F73F9280E58F931F921F923F9288EBA3
S11303808F931F921F920F2EA12CB12CF0E9CF2E28
S1130390F2E4DF2EF02D20E030E040E85FE365E09A
S11303A0CE01019691D4D401AF54BF4F81E2FE0136
S11303B0319601900D928A95E1F76AE071E0C201ED
S11303C026D461E271E0C30122D4F401E959FE4F5D
S11303D011821082329688EC90E091838083329669
S11303E01182108248D4F401ED59FE4F118210821B
S11303F03296118210820FB6F894DEBF0FBECDBFC5
S1130400A1960FB6F894DEBF0FBECDBFDF91CF919A
S11304101F910F91FF90EF90DF90CF90BF90AF901E
S11304209F908F907F906F905F904F903F902F9010
S113043008954F925F926F927F928F929F92AF92A4
S1130440BF92CF92DF92EF92FF920F931F93CF93BD
S1130450DF93CDB7DEB7A8970FB6F894DEBF0FBE13
S1130460CDBF8C017C0125EDE20EF11CC70189D3BF
S1130470C701B0D3680187EEC80ED11CC60181D371
S1130480C601A8D3C2D2B82EC6D28823D1F07FD257
S1130490F801E159FE4F80833A978081918101965A
S11304A091838083480190E9891A9EEF990AF401A7
S11304B0908181E08927808390E063D2F401808178
S11304C000D4BB2009F414C2F801ED59FE4F808119
S11304D091810196918380833E96808191810A96D1
S11304E08F3FF3E09F0734F4F801EF58FE4F9183F8
S11304F0808305C0F801EF58FE4F11821082580125
S11305002FE8A21A2EEFB20AF50160817181C801A9
S11305108C529F4FA6D3F50181818F9380818F9355
S113052088E391E09F938F93CE0101965C019F93A2
S11305308F9322D7B501C7016AD30F900F900F9004
S11305400F900F900F90F801E159FE4F8081853094
S113055071F08630D1F485E0E6E5F1E0D501019053
S11305600D928A95E1F7B501C60151D30EC08BE017
S1130570EBE5F1E0DE01119601900D928A95E1F729
S1130580BE016F5F7F4FC60142D3F801ED59FE4FA4
S11305900190F081E02D3597EF30F10508F0A1C10D
S11305A0E25CFF4FC2C566E671E0C70130D385E067
S11305B0E6E5F1E0DE01119601900D928A95E1F7EE
S11305C0BE016F5F7F4FC60122D366E771E0C601AB
S11305D01ED38EC185E0E6E5F1E0DE0111960190BF
S11305E00D928A95E1F7BE016F5F7F4FC6010FD36D
S11305F08FE0E8E8F1E0DE01119601900D928A9512
S1130600E1F7BE016F5F7F4FC60101D3BE016F5F8B
S11306107F4FC701FCD26CC186E0E7E9F1E0DE015F
S1130620119601900D928A95E1F7BE016F5F7F4F9D
S1130630C601EDD285E1EDE9F1E0DE01119601900C
S11306400D928A95E1F7BE016F5F7F4FC601DFD23D
S1130650BE016F5F7F4FC701DAD24AC1C8010C9651
S113066068D32B013C013FD4B62EA72E20E030E006
S113067040E251E4C301B201F5D42B013C016B2DDE
S11306807A2D660F771FCB01880F991F880F991F4A
S1130690680F791F072E000C880B990B57D49B0108
S11306A0AC01C301B201BAD31ED4962E872E7F9318
S11306B06F93AF92BF9282EB91E09F938F938E01E1
S11306C00F5F1F4F1F930F9357D686E0E7E9F1E0C2
S11306D0D80101900D928A95E1F7B801C60197D22D
S11306E08F929F92AF92BF928EEB91E09F938F93E4
S11306F01F930F9341D6B801C60189D2B801C7012F
S113070086D20FB6F894DEBF0FBECDBFF1C0C801CC
S11307108D960FD3E8D3F801628373837F936F932D
S113072089EC91E09F938F93CE0101965C019F9396
S11307308F9322D6B501C7016AD286E0E3EDF1E0DA
S1130740D50101900D928A95E1F7B501C6015FD2FA
S1130750F80183818F9382818F9389ED91E09F9338
S11307608F93BF92AF9208D6B501C60150D20FB68F
S1130770F894DEBF0FBECDBFBBC0C80181599F4FE7
S1130780D8D2B1D3F801648375837F936F9382EEDB
S113079091E09F938F93CE0101965C019F938F9379
S11307A0EBD5B501C70133D286E0ECEEF1E0D5011B
S11307B001900D928A95E1F7B501C60128D2F8019E
S11307C085818F9384818F9382EF91E09F938F93A0
S11307D0BF92AF92D1D5B501C60119D20FB6F89424
S11307E0DEBF0FBECDBF84C0C80180579F4FA1D2CA
S11307F07AD3F801668377837F936F938BEF91E0CD
S11308009F938F93CE0101965C019F938F93B4D5F0
S1130810B501C701FCD186E0E5E0F2E0D501019025
S11308200D928A95E1F7B501C601F1D1F8018781EE
S11308308F9386818F938BE092E09F938F93BF92E7
S1130840AF929AD5B501C601E2D10FB6F894DEBFD6
S11308500FBECDBF4DC0C8018F549F4F6AD243D342
S1130860F801608771877F936F9384E192E09F938F
S11308708F93CE0101965C019F938F937DD5B50133
S1130880C701C5D186E0EFE1F2E0D50101900D92F8
S11308908A95E1F7B501C601BAD1F80181858F9334
S11308A080858F9385E292E09F938F93BF92AF925E
S11308B063D5B501C601ABD10FB6F894DEBF0FBE48
S11308C0CDBF16C085E0EFE2F2E0DE0111960190A3
S11308D00D928A95E1F7BE016F5F7F4FC70197D1F3
S11308E007C0F801ED59FE4F8AE090E091838083C0
S11308F0C701A3D1182F882351F061E372E0C70127
S113090086D1612FC70180D1612FC6017DD1A89600
S11309100FB6F894DEBF0FBECDBFDF91CF911F910C
S11309200F91FF90EF90DF90CF90BF90AF909F908A
S11309308F907F906F905F904F90089508950895E1
S113094084E392E0F6DB789484E392E072DDFCCFFA
S113095084E392E0CCCB089583E293E0FBD18BE176
S113096093E0F8D181E193E0F5D189E093E0F2C11D
S1130970089583E081B98FE282B98AB1806F8AB920
S11309800895892B11F45F9808955F9A089510983B
S113099087EC90E00197F1F700C0000080B190E08F
S11309A0909309018093080182B1836082B9119800
S11309B087EC90E00197F1F700C0000080B190E06F
S11309C0909307018093060182B1836082B980917C
S11309D0080182FF0EC09091060192FF0CC083FFB4
S11309E00CC093FF0CC085FF0CC095FF0CC080E0C9
S11309F0089584E0089582E0089581E0089583E0F5
S1130A00089585E0089586E008958091AF038111EB
S1130A101092AF0308958091AE0381111092AE033A
S1130A200895F89414BC85E085BDEEE6F0E080817D
S1130A308160808381EF86BD1092AF031092AE0374
S1130A4084EF91E09093B1038093B00308951F92D3
S1130A500F920FB60F9211248F939F9381EF86BD4F
S1130A6081E08093AE038091B0039091B10301972C
S1130A709093B1038093B003009751F484EF91E015
S1130A809093B1038093B00381E08093AF0308C0D7
S1130A90992334F484EF91E09093B1038093B003ED
S1130AA09F918F910F900FBE0F901F901895403417
S1130AB088E35807B9F044F4403689E0580761F0F8
S1130AC0403C524161F017C041158BE4580769F06E
S1130AD04038504769F00FC080EA91E00EC08FECB7
S1130AE090E00BC084E490E008C083E390E005C08C
S1130AF082E290E002C087E690E06115710521F082
S1130B006130710579F008959093C5008093C40015
S1130B1082E08093C00086E08093C20088E18093E5
S1130B20C10008959093CD008093CC0082E080931F
S1130B30C80086E08093CA0088E18093C9000895C4
S1130B40CF92DF92EF92FF920F931F93CF93DF9395
S1130B50EC018B016A017901798B688BB901FFD0B3
S1130B60B701CE010896FBD0A601B801CE019FDFE4
S1130B70DF91CF911F910F91FF90EF90DF90CF9075
S1130B8008950F931F93CF93DF93EC018C01085FBB
S1130B901F4FC80107D18823C1F08889998900971C
S1130BA019F0019751F011C08091C00085FF0DC06C
S1130BB0C8011CD18093C60008C08091C80085FF7D
S1130BC004C0C80113D18093CE00DF91CF911F914F
S1130BD00F910895FC01208931892115310521F0F7
S1130BE02130310549F008952091C00022235CF49E
S1130BF06091C600E2C008952091C80022231CF42D
S1130C006091CE00DAC008950896D7C008950F9376
S1130C101F93CF93DF93EB016881662349F02196FC
S1130C208C01085F1F4FC801C8D069916111FBCFC7
S1130C30DF91CF911F910F910895CF93DF93EC0132
S1130C40B1D0882319F0CE01D1D001C080E0DF916A
S1130C50CF91089583EC809380008BE08093810092
S1130C600895609570957370872F837080938900C1
S1130C7060938800089584EF91E09093AD0380938E
S1130C80AC0380E090E0A0E8BFE38093A8039093D6
S1130C90A903A093AA03B093AB031092A70382E124
S1130CA08093B00085E08093B1008FE78093B40017
S1130CB08093B3000895882311F05C9A08955C989A
S1130CC00895F9CF08950895AF92BF92CF92DF921D
S1130CD0EF92FF920F931F93CF93DF93CDB7DEB7BD
S1130CE0FC016083258B368B478B508FE18EF28E0F
S1130CF0038F148FA186B286C386D4868D859E8584
S1130D00AF85B88985879687A787B08B89899A89A3
S1130D10AB89BC89818B928BA38BB48BDF91CF91F0
S1130D201F910F91FF90EF90DF90CF90BF90AF9005
S1130D300895FC016181728183819481089584B155
S1130D40806B84B92C9A28981092640083E58CBD3A
S1130D501DBC0895FC018081918185C208950F9383
S1130D601F93CF93DF93EC018B01CB01E4D19983E3
S1130D7088831B830A83101611065CF480E090E0DC
S1130D80E881F981E80FF91F108201960817190705
S1130D90B9F71D821C821F821E82DF91CF911F91A1
S1130DA00F910895FC0181E04481558126813781AA
S1130DB04217530709F480E00895FC01848195816A
S1130DC00196958384832281338121503109281728
S1130DD0390714F415821482A081B181848195812C
S1130DE0A80FB91F6C93848195810895FC018681B5
S1130DF0978101969783868322813381215031091B
S1130E002817390714F417821682208131818681CC
S1130E109781F901E80FF91F808108955058BB2785
S1130E20AA270ED0E5C0D6D030F0DBD020F031F4C4
S1130E309F3F11F41EF4CBC00EF4E095E7FBC1C054
S1130E40E92FE7D080F3BA17620773078407950781
S1130E5018F071F49EF5FFC00EF4E0950B2EBA2F36
S1130E60A02D0B01B90190010C01CA01A0011124AC
S1130E70FF27591B99F0593F50F4503E68F11A1658
S1130E80F040A22F232F342F4427585FF3CF4695E9
S1130E9037952795A795F0405395C9F77EF41F160B
S1130EA0BA0B620B730B840BBAF09150A1F0FF0FD5
S1130EB0BB1F661F771F881FC2F70EC0BA0F621FC1
S1130EC0731F841F48F4879577956795B795F795B1
S1130ED09E3F08F0B3CF9395880F08F09927EE0F43
S1130EE097958795089504D06894B111B5C0089575
S1130EF098D088F09F5790F0B92F9927B751A0F058
S1130F00D1F0660F771F881F991F1AF0BA95C9F799
S1130F1012C0B13081F09FD0B1E008959CC0672F1A
S1130F20782F8827B85F39F0B93FCCF38695779549
S1130F306795B395D9F73EF4909580957095619532
S1130F407F4F8F4F9F4F0895E89409C097FB3EF45D
S1130F5090958095709561957F4F8F4F9F4F992302
S1130F60A9F0F92F96E9BB279395F6958795779580
S1130F706795B795F111F8CFFAF4BB0F11F460FF40
S1130F801BC06F5F7F4F8F4F9F4F16C0882311F098
S1130F9096E911C0772321F09EE8872F762F05C0AC
S1130FA0662371F096E8862F70E060E02AF09A9547
S1130FB0660F771F881FDAF7880F9695879597F93C
S1130FC0089597F99F6780E870E060E008959FEFC7
S1130FD080EC089500240A941616170618060906CC
S1130FE0089500240A94121613061406050608959B
S1130FF0092E0394000C11F4882352F0BB0F40F423
S1131000BF2B11F460FF04C06F5F7F4F8F4F9F4F62
S1131010089557FD9058440F551F59F05F3F71F0E4
S11310204795880F97FB991F61F09F3F79F087954B
S11310300895121613061406551FF2CF4695F1DFD4
S113104008C0161617061806991FF1CF8695710564
S1131050610508940895E894BB2766277727CB0198
S113106097F908950BD0C4CFB5DF28F0BADF18F094
S1131070952309F0A6CFABCF1124EECFCADFA0F39E
S1131080959FD1F3950F50E0551F629FF001729F19
S1131090BB27F00DB11D639FAA27F00DB11DAA1F38
S11310A0649F6627B00DA11D661F829F2227B00D85
S11310B0A11D621F739FB00DA11D621F839FA00D10
S11310C0611D221F749F3327A00D611D231F849F60
S11310D0600D211D822F762F6A2F11249F575040B7
S11310E08AF0E1F088234AF0EE0FFF1FBB1F661F52
S11310F0771F881F91505040A9F79E3F510570F00B
S113110060CFAACF5F3FECF3983EDCF386957795EA
S11311106795B795F795E7959F5FC1F7FE2B880F05
S1131120911D9695879597F90895EE0FFF1F0590E9
S1131130F491E02D09940F931F93CF93DF938230A2
S1131140910510F482E090E0E091B403F091B503CE
S113115020E030E0A0E0B0E0309719F14081518107
S11311600281138148175907C8F08417950769F459
S1131170109731F012960C93129713961C9327C074
S11311800093B4031093B50322C02115310519F05F
S11311904217530718F49A01BD01EF01DF01F8016A
S11311A0DBCF21153105F9F0281B390B243031052B
S11311B080F48A819B816115710521F0FB01938381
S11311C0828304C09093B5038093B403FE013296E6
S11311D044C0FE01E20FF31F819391932250310921
S11311E0398328833AC02091B2033091B303232B6F
S11311F041F420910201309103013093B303209311
S1131200B20320910001309101012115310541F40F
S11312102DB73EB74091040150910501241B350BB5
S1131220E091B203F091B303E217F307A0F42E1B8D
S11312303F0B2817390778F0AC014E5F5F4F241736
S1131240350748F04E0F5F1F5093B3034093B2032A
S11312508193919302C0E0E0F0E0CF01DF91CF9160
S11312601F910F910895CF93DF93009709F481C0E4
S1131270FC01329713821282A091B403B091B5039A
S1131280109781F420813181820F931F2091B20342
S11312903091B3032817390751F5F093B303E09362
S11312A0B20367C0ED0120E030E0CE17DF0740F461
S11312B04A815B819E0141155105F1F0EA01F5CFA8
S11312C0D383C28340815181840F951FC817D907E6
S11312D059F488819981840F951F029691838083A4
S11312E08A819B81938382832115310529F4F093AC
S11312F0B503E093B4033DC0E901FB83EA8349915C
S11313005991C40FD51FEC17FD0761F480819181B9
S1131310840F951F0296E9019983888382819381C2
S11313209B838A83E0E0F0E012968D919C91139761
S1131330009719F0FD01DC01F7CF8D919C91119775
S11313409D012E5F3F4F820F931F2091B203309176
S1131350B3032817390769F4309729F41092B503B9
S11313601092B40302C013821282B093B303A09309
S1131370B203DF91CF910895AEE0B0E0E1ECF9E083
S1131380AAC20D891E8986E08C831A8309838FEF94
S11313909FE79E838D83AE01475E5F4F6F89788D93
S11313A0CE01019608D0EF81F885E00FF11F10827D
S11313B02E96E4E0ACC2ABE0B0E0E0EEF9E07DC232
S11313C06C017B018A01FC0117821682838181FFF3
S11313D0BFC1CE0101963C01F6019381F70193FD53
S11313E0859193FF81917F01882309F4ADC18532F2
S11313F039F493FD859193FF81917F01853221F426
S1131400B60190E0C0D1E8CF912C212C312CFFE122
S1131410F315D8F08B3279F038F4803279F08332D6
S1131420A1F4232D20611DC08D3261F0803369F455
S1131430232D216016C0832D8260382EE32DE460B5
S11314403E2E2AC0F32DF8601DC037FC2DC020EDC0
S1131450280F2A3040F08E32B9F436FC75C1232DA2
S11314602064322E19C036FE06C08AE0989E200DF4
S11314701124922E11C0EAE02E9E200D1124222E5A
S1131480F32DF0623F2E08C08C3621F4832D806842
S1131490382E02C0883641F4F70193FD859193FFFD
S11314A081917F018111B3CF982F9F7D9554933003
S11314B028F40C5F1F4F9FE399830DC0833631F0EE
S11314C0833771F0833509F055C020C0F80180815D
S11314D089830E5F1F4F88248394912C530112C07B
S11314E02801F2E04F0E511CF801A080B18036FEB5
S11314F003C0692D70E002C06FEF7FEFC50138D1E2
S11315004C018201F32DFF773F2E15C0280122E004
S1131510420E511CF801A080B18036FE03C0692D33
S113152070E002C06FEF7FEFC50117D14C01F32DBE
S1131530F0683F2E820133FC19C0822D90E088169A
S11315409906A0F4B60180E290E01DD12A94F5CF6B
S1131550F50137FC859137FE81915F01B60190E07A
S113156012D121102A9421E0821A91088114910445
S113157079F7E1C0843611F0893639F5F80137FE80
S113158007C060817181828193810C5F1F4F08C005
S113159060817181072E000C880B990B0E5F1F4F21
S11315A0F32DFF763F2E97FF09C090958095709597
S11315B061957F4F8F4F9F4FF0683F2E2AE030E0B8
S11315C0A3011DD1882E861844C0853731F4232DFC
S11315D02F7EB22E2AE030E025C0932D997FB92EBC
S11315E08F36C1F018F4883579F0AEC0803719F021
S11315F0883721F0A9C0E92FE061BE2EB4FE0DC0EA
S1131600FB2DF460BF2E09C034FE0AC0292F2660CA
S1131610B22E06C028E030E005C020E130E002C070
S113162020E132E0F801B7FE07C060817181828158
S113163093810C5F1F4F06C06081718180E090E050
S11316400E5F1F4FA301DBD0882E8618FB2DFF777A
S11316503F2E36FE0DC0232D2E7FA22E891458F462
S113166034FE0BC032FC09C0832D8E7EA82E05C02B
S1131670B82CA32C03C0B82C01C0B92CA4FE0FC0F5
S1131680FE01E80DF11D8081803321F49A2D997EAD
S1131690A92E09C0A2FE06C0B394B39404C08A2D37
S11316A0867809F0B394A3FC10C0A0FE06C0B2145F
S11316B080F4280C922C9B180DC0B21458F4B60177
S11316C080E290E060D0B394F8CFB21418F42B18F1
S11316D002C0982C212CA4FE0FC0B60180E390E038
S11316E052D0A2FE16C0A1FC03C088E790E002C05D
S11316F088E590E0B6010CC08A2D867851F0A1FEF1
S113170002C08BE201C080E2A7FC8DE2B60190E04A
S11317103AD0891430F4B60180E390E034D09A943E
S1131720F8CF8A94F301E80DF11D8081B60190E0B1
S11317302AD08110F6CF222009F44ECEB60180E2E1
S113174090E021D02A94F7CFF6018681978102C0D8
S11317508FEF9FEF2B96E2E1CCC0FC010590615026
S113176070400110D8F7809590958E0F9F1F0895B3
S1131770FC016150704001900110D8F7809590955C
S11317808E0F9F1F08950F931F93CF93DF93FB0139
S1131790238121FD03C08FEF9FEF2CC022FF16C0D1
S11317A046815781248135814217530744F4A0812F
S11317B0B1819D012F5F3F4F318320838C9326811C
S11317C037812F5F3F4F3783268314C08B01EC0191
S11317D0FB010084F185E02D0995892BE1F6D80100
S11317E016968D919C911797019617969C938E93BC
S11317F01697CE01DF91CF911F910F910895FA01B1
S1131800AA27283051F1203181F1E8946F936E7F3B
S11318106E5F7F4F8F4F9F4FAF4FB1E03ED0B4E02C
S11318203CD0670F781F891F9A1FA11D680F791F6D
S11318308A1F911DA11D6A0F711D811D911DA11D7E
S113184020D009F468943F912AE0269F112430198E
S1131850305D3193DEF6CF010895462F4770405D29
S11318604193B3E00FD0C9F7F6CF462F4F70405DD8
S11318704A3318F0495D31FD4052419302D0A9F733
S1131880EACFB4E0A6959795879577956795BA952D
S1131890C9F700976105710508959B01AC010A2EF3
S11318A006945795479537952795BA95C9F7620FCA
S11318B0731F841F951FA01D08952F923F924F926E
S11318C05F926F927F928F929F92AF92BF92CF92CC
S11318D0DF92EF92FF920F931F93CF93DF93CDB7D5
S11318E0DEB7CA1BDB0B0FB6F894DEBF0FBECDBF4D
S11318F009942A88398848885F846E847D848C841E
S11319009B84AA84B984C884DF80EE80FD800C8126
S11319101B81AA81B981CE0FD11D0FB6F894DEBF09
S11319200FBECDBFED01089510E0CEE4D0E003C0BA
S1131930FE01FBDB2196CF34D107D1F7F894FFCF1A
S11319400000B6032000FF00FF000D0A496E697411
S11319502039363030206261756420436F6D203049
S1131960000D0A496E697420393630302062617581
S11319706420436F6D2031000D0A20202020202098
S1131980202020202020202020202050574D20538C
S11319906574202564007E5B324A0031323334356D
S11319A03637383920000D0A54686973206973206A
S11319B0436F6D2030000D0A5468697320697320E9
S11319C0436F6D20312D2D005F2020205F202020CB
S11319D05F2020205F20007E5B313B31000D0A43F5
S11319E068656D74726F6C2053696D756C61746F8A
S11319F072000D0A70482025642E256420000D0A0B
S1131A0070482025642E2564000D0A4F525020256D
S1131A106420007E5B323B32000D0A4F5250202579
S1131A2064000D0A50504D20256420007E5B333B3A
S1131A3033000D0A50504D202564000D0A544453C0
S1131A4020256420007E5B343B34000D0A5444534B
S1131A50202564000D0A54454D5020256420007E45
S1131A605B353B35000D0A54454D50202564000D6F
S1071A700A0D0A004D
S9030000FC
