
3069 Probe Sim Main.elf:     file format elf32-avr

Sections:
Idx Name          Size      VMA       LMA       File off  Algn
  0 .data         00000134  00800100  00001940  000019d4  2**0
                  CONTENTS, ALLOC, LOAD, DATA
  1 .text         00001940  00000000  00000000  00000094  2**1
                  CONTENTS, ALLOC, LOAD, READONLY, CODE
  2 .bss          00000182  00800234  00800234  00001b08  2**0
                  ALLOC
  3 .comment      0000005c  00000000  00000000  00001b08  2**0
                  CONTENTS, READONLY
  4 .note.gnu.avr.deviceinfo 00000040  00000000  00000000  00001b64  2**2
                  CONTENTS, READONLY
  5 .debug_aranges 00000318  00000000  00000000  00001ba4  2**0
                  CONTENTS, READONLY, DEBUGGING
  6 .debug_info   0000585e  00000000  00000000  00001ebc  2**0
                  CONTENTS, READONLY, DEBUGGING
  7 .debug_abbrev 000018d9  00000000  00000000  0000771a  2**0
                  CONTENTS, READONLY, DEBUGGING
  8 .debug_line   00001484  00000000  00000000  00008ff3  2**0
                  CONTENTS, READONLY, DEBUGGING
  9 .debug_frame  00000970  00000000  00000000  0000a478  2**2
                  CONTENTS, READONLY, DEBUGGING
 10 .debug_str    00001355  00000000  00000000  0000ade8  2**0
                  CONTENTS, READONLY, DEBUGGING
 11 .debug_loc    000024f1  00000000  00000000  0000c13d  2**0
                  CONTENTS, READONLY, DEBUGGING
 12 .debug_ranges 00000298  00000000  00000000  0000e62e  2**0
                  CONTENTS, READONLY, DEBUGGING

Disassembly of section .text:

00000000 <__vectors>:
       0:	4e c0       	rjmp	.+156    	; 0x9e <__dtors_end>
       2:	00 00       	nop
       4:	73 c0       	rjmp	.+230    	; 0xec <__bad_interrupt>
       6:	00 00       	nop
       8:	71 c0       	rjmp	.+226    	; 0xec <__bad_interrupt>
       a:	00 00       	nop
       c:	6f c0       	rjmp	.+222    	; 0xec <__bad_interrupt>
       e:	00 00       	nop
      10:	6d c0       	rjmp	.+218    	; 0xec <__bad_interrupt>
      12:	00 00       	nop
      14:	6b c0       	rjmp	.+214    	; 0xec <__bad_interrupt>
      16:	00 00       	nop
      18:	69 c0       	rjmp	.+210    	; 0xec <__bad_interrupt>
      1a:	00 00       	nop
      1c:	67 c0       	rjmp	.+206    	; 0xec <__bad_interrupt>
      1e:	00 00       	nop
      20:	65 c0       	rjmp	.+202    	; 0xec <__bad_interrupt>
      22:	00 00       	nop
      24:	63 c0       	rjmp	.+198    	; 0xec <__bad_interrupt>
      26:	00 00       	nop
      28:	61 c0       	rjmp	.+194    	; 0xec <__bad_interrupt>
      2a:	00 00       	nop
      2c:	5f c0       	rjmp	.+190    	; 0xec <__bad_interrupt>
      2e:	00 00       	nop
      30:	5d c0       	rjmp	.+186    	; 0xec <__bad_interrupt>
      32:	00 00       	nop
      34:	5b c0       	rjmp	.+182    	; 0xec <__bad_interrupt>
      36:	00 00       	nop
      38:	59 c0       	rjmp	.+178    	; 0xec <__bad_interrupt>
      3a:	00 00       	nop
      3c:	57 c0       	rjmp	.+174    	; 0xec <__bad_interrupt>
      3e:	00 00       	nop
      40:	55 c0       	rjmp	.+170    	; 0xec <__bad_interrupt>
      42:	00 00       	nop
      44:	53 c0       	rjmp	.+166    	; 0xec <__bad_interrupt>
      46:	00 00       	nop
      48:	02 c5       	rjmp	.+2564   	; 0xa4e <__vector_18>
      4a:	00 00       	nop
      4c:	4f c0       	rjmp	.+158    	; 0xec <__bad_interrupt>
      4e:	00 00       	nop
      50:	4d c0       	rjmp	.+154    	; 0xec <__bad_interrupt>
      52:	00 00       	nop
      54:	4b c0       	rjmp	.+150    	; 0xec <__bad_interrupt>
      56:	00 00       	nop
      58:	49 c0       	rjmp	.+146    	; 0xec <__bad_interrupt>
      5a:	00 00       	nop
      5c:	47 c0       	rjmp	.+142    	; 0xec <__bad_interrupt>
      5e:	00 00       	nop
      60:	45 c0       	rjmp	.+138    	; 0xec <__bad_interrupt>
      62:	00 00       	nop
      64:	43 c0       	rjmp	.+134    	; 0xec <__bad_interrupt>
      66:	00 00       	nop
      68:	41 c0       	rjmp	.+130    	; 0xec <__bad_interrupt>
      6a:	00 00       	nop
      6c:	3f c0       	rjmp	.+126    	; 0xec <__bad_interrupt>
      6e:	00 00       	nop
      70:	3d c0       	rjmp	.+122    	; 0xec <__bad_interrupt>
      72:	00 00       	nop
      74:	3b c0       	rjmp	.+118    	; 0xec <__bad_interrupt>
      76:	00 00       	nop
      78:	39 c0       	rjmp	.+114    	; 0xec <__bad_interrupt>
      7a:	00 00       	nop
      7c:	d3 02       	muls	r29, r19
      7e:	71 04       	cpc	r7, r1
      80:	71 04       	cpc	r7, r1
      82:	71 04       	cpc	r7, r1
      84:	71 04       	cpc	r7, r1
      86:	78 04       	cpc	r7, r8
      88:	ea 02       	muls	r30, r26
      8a:	0c 03       	fmul	r16, r20
      8c:	2e 03       	fmul	r18, r22
      8e:	87 03       	fmuls	r16, r23
      90:	bd 03       	fmulsu	r19, r21
      92:	f4 03       	fmuls	r23, r20
      94:	2b 04       	cpc	r2, r11
      96:	78 04       	cpc	r7, r8
      98:	62 04       	cpc	r6, r2

0000009a <__ctors_start>:
      9a:	a8 04       	cpc	r10, r8

0000009c <__ctors_end>:
      9c:	ac 04       	cpc	r10, r12

0000009e <__dtors_end>:
      9e:	11 24       	eor	r1, r1
      a0:	1f be       	out	0x3f, r1	; 63
      a2:	cf ef       	ldi	r28, 0xFF	; 255
      a4:	d0 e1       	ldi	r29, 0x10	; 16
      a6:	de bf       	out	0x3e, r29	; 62
      a8:	cd bf       	out	0x3d, r28	; 61

000000aa <__do_copy_data>:
      aa:	12 e0       	ldi	r17, 0x02	; 2
      ac:	a0 e0       	ldi	r26, 0x00	; 0
      ae:	b1 e0       	ldi	r27, 0x01	; 1
      b0:	e0 e4       	ldi	r30, 0x40	; 64
      b2:	f9 e1       	ldi	r31, 0x19	; 25
      b4:	02 c0       	rjmp	.+4      	; 0xba <__do_copy_data+0x10>
      b6:	05 90       	lpm	r0, Z+
      b8:	0d 92       	st	X+, r0
      ba:	a4 33       	cpi	r26, 0x34	; 52
      bc:	b1 07       	cpc	r27, r17
      be:	d9 f7       	brne	.-10     	; 0xb6 <__do_copy_data+0xc>

000000c0 <__do_clear_bss>:
      c0:	23 e0       	ldi	r18, 0x03	; 3
      c2:	a4 e3       	ldi	r26, 0x34	; 52
      c4:	b2 e0       	ldi	r27, 0x02	; 2
      c6:	01 c0       	rjmp	.+2      	; 0xca <.do_clear_bss_start>

000000c8 <.do_clear_bss_loop>:
      c8:	1d 92       	st	X+, r1

000000ca <.do_clear_bss_start>:
      ca:	a6 3b       	cpi	r26, 0xB6	; 182
      cc:	b2 07       	cpc	r27, r18
      ce:	e1 f7       	brne	.-8      	; 0xc8 <.do_clear_bss_loop>

000000d0 <__do_global_ctors>:
      d0:	10 e0       	ldi	r17, 0x00	; 0
      d2:	ce e4       	ldi	r28, 0x4E	; 78
      d4:	d0 e0       	ldi	r29, 0x00	; 0
      d6:	04 c0       	rjmp	.+8      	; 0xe0 <__do_global_ctors+0x10>
      d8:	21 97       	sbiw	r28, 0x01	; 1
      da:	fe 01       	movw	r30, r28
      dc:	0e 94 95 08 	call	0x112a	; 0x112a <__tablejump2__>
      e0:	cd 34       	cpi	r28, 0x4D	; 77
      e2:	d1 07       	cpc	r29, r17
      e4:	c9 f7       	brne	.-14     	; 0xd8 <__do_global_ctors+0x8>
      e6:	2c d4       	rcall	.+2136   	; 0x940 <main>
      e8:	0c 94 94 0c 	jmp	0x1928	; 0x1928 <__do_global_dtors>

000000ec <__bad_interrupt>:
      ec:	89 cf       	rjmp	.-238    	; 0x0 <__vectors>

000000ee <_ZN11CControllerC1Ev>:
     case 5: Aux = SPI.Read (IN1_OUT6_ADDRESS, IN1_OUT6_IN1);        break;
     case 6: break; // Must return on an even count
     default: return 0; break;
     }
   return (scnt + 1);
   }
      ee:	cf 93       	push	r28
      f0:	df 93       	push	r29
      f2:	ec 01       	movw	r28, r24
      f4:	0c 96       	adiw	r24, 0x0c	; 12
      f6:	e7 d5       	rcall	.+3022   	; 0xcc6 <_ZN7CSensorC1Ev>
      f8:	ce 01       	movw	r24, r28
      fa:	8d 96       	adiw	r24, 0x2d	; 45
      fc:	e4 d5       	rcall	.+3016   	; 0xcc6 <_ZN7CSensorC1Ev>
      fe:	ce 01       	movw	r24, r28
     100:	82 5b       	subi	r24, 0xB2	; 178
     102:	9f 4f       	sbci	r25, 0xFF	; 255
     104:	e0 d5       	rcall	.+3008   	; 0xcc6 <_ZN7CSensorC1Ev>
     106:	ce 01       	movw	r24, r28
     108:	81 59       	subi	r24, 0x91	; 145
     10a:	9f 4f       	sbci	r25, 0xFF	; 255
     10c:	dc d5       	rcall	.+3000   	; 0xcc6 <_ZN7CSensorC1Ev>
     10e:	ce 01       	movw	r24, r28
     110:	80 57       	subi	r24, 0x70	; 112
     112:	9f 4f       	sbci	r25, 0xFF	; 255
     114:	d8 d5       	rcall	.+2992   	; 0xcc6 <_ZN7CSensorC1Ev>
     116:	ce 01       	movw	r24, r28
     118:	8f 54       	subi	r24, 0x4F	; 79
     11a:	9f 4f       	sbci	r25, 0xFF	; 255
     11c:	d4 d5       	rcall	.+2984   	; 0xcc6 <_ZN7CSensorC1Ev>
     11e:	c7 50       	subi	r28, 0x07	; 7
     120:	df 4f       	sbci	r29, 0xFF	; 255
     122:	8a e6       	ldi	r24, 0x6A	; 106
     124:	fe 01       	movw	r30, r28
     126:	11 92       	st	Z+, r1
     128:	8a 95       	dec	r24
     12a:	e9 f7       	brne	.-6      	; 0x126 <_ZN11CControllerC1Ev+0x38>
     12c:	df 91       	pop	r29
     12e:	cf 91       	pop	r28
     130:	08 95       	ret

00000132 <_ZN11CController9Cont_InitEv>:
     132:	2f 92       	push	r2
     134:	3f 92       	push	r3
     136:	4f 92       	push	r4
     138:	5f 92       	push	r5
     13a:	6f 92       	push	r6
     13c:	7f 92       	push	r7
     13e:	8f 92       	push	r8
     140:	9f 92       	push	r9
     142:	af 92       	push	r10
     144:	bf 92       	push	r11
     146:	cf 92       	push	r12
     148:	df 92       	push	r13
     14a:	ef 92       	push	r14
     14c:	ff 92       	push	r15
     14e:	0f 93       	push	r16
     150:	1f 93       	push	r17
     152:	cf 93       	push	r28
     154:	df 93       	push	r29
     156:	cd b7       	in	r28, 0x3d	; 61
     158:	de b7       	in	r29, 0x3e	; 62
     15a:	a1 97       	sbiw	r28, 0x21	; 33
     15c:	0f b6       	in	r0, 0x3f	; 63
     15e:	f8 94       	cli
     160:	de bf       	out	0x3e, r29	; 62
     162:	0f be       	out	0x3f, r0	; 63
     164:	cd bf       	out	0x3d, r28	; 61
     166:	4c 01       	movw	r8, r24
     168:	04 d4       	rcall	.+2056   	; 0x972 <_ZN8PCBA20187IO_InitEv>
     16a:	f4 01       	movw	r30, r8
     16c:	e0 59       	subi	r30, 0x90	; 144
     16e:	fe 4f       	sbci	r31, 0xFE	; 254
     170:	10 82       	st	Z, r1
     172:	c4 01       	movw	r24, r8
     174:	87 50       	subi	r24, 0x07	; 7
     176:	9f 4f       	sbci	r25, 0xFF	; 255
     178:	e2 d5       	rcall	.+3012   	; 0xd3e <_ZN7SPI_BUS4InitEv>
     17a:	24 01       	movw	r4, r8
     17c:	85 ed       	ldi	r24, 0xD5	; 213
     17e:	48 0e       	add	r4, r24
     180:	51 1c       	adc	r5, r1
     182:	24 e6       	ldi	r18, 0x64	; 100
     184:	30 e0       	ldi	r19, 0x00	; 0
     186:	40 e8       	ldi	r20, 0x80	; 128
     188:	55 e2       	ldi	r21, 0x25	; 37
     18a:	60 e0       	ldi	r22, 0x00	; 0
     18c:	70 e0       	ldi	r23, 0x00	; 0
     18e:	c2 01       	movw	r24, r4
     190:	d7 d4       	rcall	.+2478   	; 0xb40 <_ZN11Serial_Port4InitEiii>
     192:	34 01       	movw	r6, r8
     194:	97 ee       	ldi	r25, 0xE7	; 231
     196:	69 0e       	add	r6, r25
     198:	71 1c       	adc	r7, r1
     19a:	24 e6       	ldi	r18, 0x64	; 100
     19c:	30 e0       	ldi	r19, 0x00	; 0
     19e:	40 e8       	ldi	r20, 0x80	; 128
     1a0:	55 e2       	ldi	r21, 0x25	; 37
     1a2:	61 e0       	ldi	r22, 0x01	; 1
     1a4:	70 e0       	ldi	r23, 0x00	; 0
     1a6:	c3 01       	movw	r24, r6
     1a8:	cb d4       	rcall	.+2454   	; 0xb40 <_ZN11Serial_Port4InitEiii>
     1aa:	3b d4       	rcall	.+2166   	; 0xa22 <_ZN8PCBA201810Timer_InitEv>
     1ac:	c4 01       	movw	r24, r8
     1ae:	8c 52       	subi	r24, 0x2C	; 44
     1b0:	9f 4f       	sbci	r25, 0xFF	; 255
     1b2:	50 d5       	rcall	.+2720   	; 0xc54 <_ZN20Pulse_Wave_Modulator4InitEv>
     1b4:	f4 01       	movw	r30, r8
     1b6:	ef 58       	subi	r30, 0x8F	; 143
     1b8:	fe 4f       	sbci	r31, 0xFE	; 254
     1ba:	11 82       	std	Z+1, r1	; 0x01
     1bc:	10 82       	st	Z, r1
     1be:	c4 01       	movw	r24, r8
     1c0:	8d 52       	subi	r24, 0x2D	; 45
     1c2:	9f 4f       	sbci	r25, 0xFF	; 255
     1c4:	bc d3       	rcall	.+1912   	; 0x93e <_ZN6EEProm4InitEv>
     1c6:	c4 01       	movw	r24, r8
     1c8:	8e 52       	subi	r24, 0x2E	; 46
     1ca:	9f 4f       	sbci	r25, 0xFF	; 255
     1cc:	b7 d3       	rcall	.+1902   	; 0x93c <_ZN8CDisplay4InitEv>
     1ce:	80 e4       	ldi	r24, 0x40	; 64
     1d0:	8f 93       	push	r24
     1d2:	80 ee       	ldi	r24, 0xE0	; 224
     1d4:	8f 93       	push	r24
     1d6:	1f 92       	push	r1
     1d8:	1f 92       	push	r1
     1da:	81 e4       	ldi	r24, 0x41	; 65
     1dc:	8f 93       	push	r24
     1de:	80 e1       	ldi	r24, 0x10	; 16
     1e0:	8f 93       	push	r24
     1e2:	1f 92       	push	r1
     1e4:	1f 92       	push	r1
     1e6:	0f 2e       	mov	r0, r31
     1e8:	a1 2c       	mov	r10, r1
     1ea:	b1 2c       	mov	r11, r1
     1ec:	f0 ef       	ldi	r31, 0xF0	; 240
     1ee:	cf 2e       	mov	r12, r31
     1f0:	f0 e4       	ldi	r31, 0x40	; 64
     1f2:	df 2e       	mov	r13, r31
     1f4:	f0 2d       	mov	r31, r0
     1f6:	18 eb       	ldi	r17, 0xB8	; 184
     1f8:	e1 2e       	mov	r14, r17
     1fa:	1e e1       	ldi	r17, 0x1E	; 30
     1fc:	f1 2e       	mov	r15, r17
     1fe:	0f e5       	ldi	r16, 0x5F	; 95
     200:	11 e4       	ldi	r17, 0x41	; 65
     202:	27 e1       	ldi	r18, 0x17	; 23
     204:	37 eb       	ldi	r19, 0xB7	; 183
     206:	41 e5       	ldi	r20, 0x51	; 81
     208:	5c eb       	ldi	r21, 0xBC	; 188
     20a:	61 e0       	ldi	r22, 0x01	; 1
     20c:	ce 01       	movw	r24, r28
     20e:	01 96       	adiw	r24, 0x01	; 1
     210:	5b d5       	rcall	.+2742   	; 0xcc8 <_ZN7CSensorC1E10Probe_Typeddddd>
     212:	81 e2       	ldi	r24, 0x21	; 33
     214:	fe 01       	movw	r30, r28
     216:	31 96       	adiw	r30, 0x01	; 1
     218:	d4 01       	movw	r26, r8
     21a:	1c 96       	adiw	r26, 0x0c	; 12
     21c:	01 90       	ld	r0, Z+
     21e:	0d 92       	st	X+, r0
     220:	8a 95       	dec	r24
     222:	e1 f7       	brne	.-8      	; 0x21c <_ZN11CController9Cont_InitEv+0xea>
     224:	0f 2e       	mov	r0, r31
     226:	f3 e4       	ldi	r31, 0x43	; 67
     228:	2f 2e       	mov	r2, r31
     22a:	f0 2d       	mov	r31, r0
     22c:	2f 92       	push	r2
     22e:	8a ef       	ldi	r24, 0xFA	; 250
     230:	8f 93       	push	r24
     232:	1f 92       	push	r1
     234:	1f 92       	push	r1
     236:	0f 2e       	mov	r0, r31
     238:	f4 e4       	ldi	r31, 0x44	; 68
     23a:	3f 2e       	mov	r3, r31
     23c:	f0 2d       	mov	r31, r0
     23e:	3f 92       	push	r3
     240:	88 e4       	ldi	r24, 0x48	; 72
     242:	8f 93       	push	r24
     244:	1f 92       	push	r1
     246:	1f 92       	push	r1
     248:	0f 2e       	mov	r0, r31
     24a:	a1 2c       	mov	r10, r1
     24c:	b1 2c       	mov	r11, r1
     24e:	ff e2       	ldi	r31, 0x2F	; 47
     250:	cf 2e       	mov	r12, r31
     252:	f4 e4       	ldi	r31, 0x44	; 68
     254:	df 2e       	mov	r13, r31
     256:	f0 2d       	mov	r31, r0
     258:	16 e6       	ldi	r17, 0x66	; 102
     25a:	e1 2e       	mov	r14, r17
     25c:	fe 2c       	mov	r15, r14
     25e:	07 e4       	ldi	r16, 0x47	; 71
     260:	13 e4       	ldi	r17, 0x43	; 67
     262:	24 e1       	ldi	r18, 0x14	; 20
     264:	3e ea       	ldi	r19, 0xAE	; 174
     266:	47 e4       	ldi	r20, 0x47	; 71
     268:	5f e3       	ldi	r21, 0x3F	; 63
     26a:	62 e0       	ldi	r22, 0x02	; 2
     26c:	ce 01       	movw	r24, r28
     26e:	01 96       	adiw	r24, 0x01	; 1
     270:	2b d5       	rcall	.+2646   	; 0xcc8 <_ZN7CSensorC1E10Probe_Typeddddd>
     272:	81 e2       	ldi	r24, 0x21	; 33
     274:	fe 01       	movw	r30, r28
     276:	31 96       	adiw	r30, 0x01	; 1
     278:	d4 01       	movw	r26, r8
     27a:	9d 96       	adiw	r26, 0x2d	; 45
     27c:	01 90       	ld	r0, Z+
     27e:	0d 92       	st	X+, r0
     280:	8a 95       	dec	r24
     282:	e1 f7       	brne	.-8      	; 0x27c <_ZN11CController9Cont_InitEv+0x14a>
     284:	3f 92       	push	r3
     286:	8a e7       	ldi	r24, 0x7A	; 122
     288:	8f 93       	push	r24
     28a:	1f 92       	push	r1
     28c:	1f 92       	push	r1
     28e:	3f 92       	push	r3
     290:	8f 93       	push	r24
     292:	1f 92       	push	r1
     294:	1f 92       	push	r1
     296:	0f 2e       	mov	r0, r31
     298:	a1 2c       	mov	r10, r1
     29a:	b1 2c       	mov	r11, r1
     29c:	f8 e4       	ldi	r31, 0x48	; 72
     29e:	cf 2e       	mov	r12, r31
     2a0:	f2 e4       	ldi	r31, 0x42	; 66
     2a2:	df 2e       	mov	r13, r31
     2a4:	f0 2d       	mov	r31, r0
     2a6:	e1 2c       	mov	r14, r1
     2a8:	f1 2c       	mov	r15, r1
     2aa:	87 01       	movw	r16, r14
     2ac:	20 e0       	ldi	r18, 0x00	; 0
     2ae:	30 e0       	ldi	r19, 0x00	; 0
     2b0:	40 e8       	ldi	r20, 0x80	; 128
     2b2:	5f e3       	ldi	r21, 0x3F	; 63
     2b4:	66 e0       	ldi	r22, 0x06	; 6
     2b6:	ce 01       	movw	r24, r28
     2b8:	01 96       	adiw	r24, 0x01	; 1
     2ba:	06 d5       	rcall	.+2572   	; 0xcc8 <_ZN7CSensorC1E10Probe_Typeddddd>
     2bc:	d4 01       	movw	r26, r8
     2be:	a2 5b       	subi	r26, 0xB2	; 178
     2c0:	bf 4f       	sbci	r27, 0xFF	; 255
     2c2:	81 e2       	ldi	r24, 0x21	; 33
     2c4:	fe 01       	movw	r30, r28
     2c6:	31 96       	adiw	r30, 0x01	; 1
     2c8:	01 90       	ld	r0, Z+
     2ca:	0d 92       	st	X+, r0
     2cc:	8a 95       	dec	r24
     2ce:	e1 f7       	brne	.-8      	; 0x2c8 <_ZN11CController9Cont_InitEv+0x196>
     2d0:	2f 92       	push	r2
     2d2:	9a ef       	ldi	r25, 0xFA	; 250
     2d4:	9f 93       	push	r25
     2d6:	1f 92       	push	r1
     2d8:	1f 92       	push	r1
     2da:	3f 92       	push	r3
     2dc:	81 e6       	ldi	r24, 0x61	; 97
     2de:	8f 93       	push	r24
     2e0:	1f 92       	push	r1
     2e2:	1f 92       	push	r1
     2e4:	0f 2e       	mov	r0, r31
     2e6:	a1 2c       	mov	r10, r1
     2e8:	f0 e8       	ldi	r31, 0x80	; 128
     2ea:	bf 2e       	mov	r11, r31
     2ec:	f2 e2       	ldi	r31, 0x22	; 34
     2ee:	cf 2e       	mov	r12, r31
     2f0:	f4 e4       	ldi	r31, 0x44	; 68
     2f2:	df 2e       	mov	r13, r31
     2f4:	f0 2d       	mov	r31, r0
     2f6:	20 e0       	ldi	r18, 0x00	; 0
     2f8:	30 e0       	ldi	r19, 0x00	; 0
     2fa:	40 e8       	ldi	r20, 0x80	; 128
     2fc:	5f e3       	ldi	r21, 0x3F	; 63
     2fe:	63 e0       	ldi	r22, 0x03	; 3
     300:	ce 01       	movw	r24, r28
     302:	01 96       	adiw	r24, 0x01	; 1
     304:	e1 d4       	rcall	.+2498   	; 0xcc8 <_ZN7CSensorC1E10Probe_Typeddddd>
     306:	d4 01       	movw	r26, r8
     308:	a1 59       	subi	r26, 0x91	; 145
     30a:	bf 4f       	sbci	r27, 0xFF	; 255
     30c:	81 e2       	ldi	r24, 0x21	; 33
     30e:	fe 01       	movw	r30, r28
     310:	31 96       	adiw	r30, 0x01	; 1
     312:	01 90       	ld	r0, Z+
     314:	0d 92       	st	X+, r0
     316:	8a 95       	dec	r24
     318:	e1 f7       	brne	.-8      	; 0x312 <_ZN11CController9Cont_InitEv+0x1e0>
     31a:	0f b6       	in	r0, 0x3f	; 63
     31c:	f8 94       	cli
     31e:	de bf       	out	0x3e, r29	; 62
     320:	0f be       	out	0x3f, r0	; 63
     322:	cd bf       	out	0x3d, r28	; 61
     324:	1f 92       	push	r1
     326:	1f 92       	push	r1
     328:	1f 92       	push	r1
     32a:	1f 92       	push	r1
     32c:	0f 2e       	mov	r0, r31
     32e:	f2 e4       	ldi	r31, 0x42	; 66
     330:	3f 2e       	mov	r3, r31
     332:	f0 2d       	mov	r31, r0
     334:	3f 92       	push	r3
     336:	88 ec       	ldi	r24, 0xC8	; 200
     338:	8f 93       	push	r24
     33a:	1f 92       	push	r1
     33c:	1f 92       	push	r1
     33e:	0f 2e       	mov	r0, r31
     340:	a1 2c       	mov	r10, r1
     342:	b1 2c       	mov	r11, r1
     344:	f8 e4       	ldi	r31, 0x48	; 72
     346:	cf 2e       	mov	r12, r31
     348:	f2 e4       	ldi	r31, 0x42	; 66
     34a:	df 2e       	mov	r13, r31
     34c:	f0 2d       	mov	r31, r0
     34e:	20 e0       	ldi	r18, 0x00	; 0
     350:	30 e0       	ldi	r19, 0x00	; 0
     352:	40 e8       	ldi	r20, 0x80	; 128
     354:	5f e3       	ldi	r21, 0x3F	; 63
     356:	64 e0       	ldi	r22, 0x04	; 4
     358:	ce 01       	movw	r24, r28
     35a:	01 96       	adiw	r24, 0x01	; 1
     35c:	b5 d4       	rcall	.+2410   	; 0xcc8 <_ZN7CSensorC1E10Probe_Typeddddd>
     35e:	d4 01       	movw	r26, r8
     360:	a0 57       	subi	r26, 0x70	; 112
     362:	bf 4f       	sbci	r27, 0xFF	; 255
     364:	81 e2       	ldi	r24, 0x21	; 33
     366:	fe 01       	movw	r30, r28
     368:	31 96       	adiw	r30, 0x01	; 1
     36a:	01 90       	ld	r0, Z+
     36c:	0d 92       	st	X+, r0
     36e:	8a 95       	dec	r24
     370:	e1 f7       	brne	.-8      	; 0x36a <_ZN11CController9Cont_InitEv+0x238>
     372:	3f 92       	push	r3
     374:	80 e5       	ldi	r24, 0x50	; 80
     376:	8f 93       	push	r24
     378:	1f 92       	push	r1
     37a:	1f 92       	push	r1
     37c:	3f 92       	push	r3
     37e:	88 eb       	ldi	r24, 0xB8	; 184
     380:	8f 93       	push	r24
     382:	1f 92       	push	r1
     384:	1f 92       	push	r1
     386:	0f 2e       	mov	r0, r31
     388:	a1 2c       	mov	r10, r1
     38a:	b1 2c       	mov	r11, r1
     38c:	f0 e9       	ldi	r31, 0x90	; 144
     38e:	cf 2e       	mov	r12, r31
     390:	f2 e4       	ldi	r31, 0x42	; 66
     392:	df 2e       	mov	r13, r31
     394:	f0 2d       	mov	r31, r0
     396:	20 e0       	ldi	r18, 0x00	; 0
     398:	30 e0       	ldi	r19, 0x00	; 0
     39a:	40 e8       	ldi	r20, 0x80	; 128
     39c:	5f e3       	ldi	r21, 0x3F	; 63
     39e:	65 e0       	ldi	r22, 0x05	; 5
     3a0:	ce 01       	movw	r24, r28
     3a2:	01 96       	adiw	r24, 0x01	; 1
     3a4:	91 d4       	rcall	.+2338   	; 0xcc8 <_ZN7CSensorC1E10Probe_Typeddddd>
     3a6:	d4 01       	movw	r26, r8
     3a8:	af 54       	subi	r26, 0x4F	; 79
     3aa:	bf 4f       	sbci	r27, 0xFF	; 255
     3ac:	81 e2       	ldi	r24, 0x21	; 33
     3ae:	fe 01       	movw	r30, r28
     3b0:	31 96       	adiw	r30, 0x01	; 1
     3b2:	01 90       	ld	r0, Z+
     3b4:	0d 92       	st	X+, r0
     3b6:	8a 95       	dec	r24
     3b8:	e1 f7       	brne	.-8      	; 0x3b2 <_ZN11CController9Cont_InitEv+0x280>
     3ba:	6a e0       	ldi	r22, 0x0A	; 10
     3bc:	71 e0       	ldi	r23, 0x01	; 1
     3be:	c2 01       	movw	r24, r4
     3c0:	26 d4       	rcall	.+2124   	; 0xc0e <_ZN11Serial_Port4SendEPc>
     3c2:	61 e2       	ldi	r22, 0x21	; 33
     3c4:	71 e0       	ldi	r23, 0x01	; 1
     3c6:	c3 01       	movw	r24, r6
     3c8:	22 d4       	rcall	.+2116   	; 0xc0e <_ZN11Serial_Port4SendEPc>
     3ca:	f4 01       	movw	r30, r8
     3cc:	e9 59       	subi	r30, 0x99	; 153
     3ce:	fe 4f       	sbci	r31, 0xFE	; 254
     3d0:	11 82       	std	Z+1, r1	; 0x01
     3d2:	10 82       	st	Z, r1
     3d4:	32 96       	adiw	r30, 0x02	; 2
     3d6:	88 ec       	ldi	r24, 0xC8	; 200
     3d8:	90 e0       	ldi	r25, 0x00	; 0
     3da:	91 83       	std	Z+1, r25	; 0x01
     3dc:	80 83       	st	Z, r24
     3de:	32 96       	adiw	r30, 0x02	; 2
     3e0:	11 82       	std	Z+1, r1	; 0x01
     3e2:	10 82       	st	Z, r1
     3e4:	48 d4       	rcall	.+2192   	; 0xc76 <_ZN10Rho_Output4InitEv>
     3e6:	f4 01       	movw	r30, r8
     3e8:	ed 59       	subi	r30, 0x9D	; 157
     3ea:	fe 4f       	sbci	r31, 0xFE	; 254
     3ec:	11 82       	std	Z+1, r1	; 0x01
     3ee:	10 82       	st	Z, r1
     3f0:	32 96       	adiw	r30, 0x02	; 2
     3f2:	11 82       	std	Z+1, r1	; 0x01
     3f4:	10 82       	st	Z, r1
     3f6:	0f b6       	in	r0, 0x3f	; 63
     3f8:	f8 94       	cli
     3fa:	de bf       	out	0x3e, r29	; 62
     3fc:	0f be       	out	0x3f, r0	; 63
     3fe:	cd bf       	out	0x3d, r28	; 61
     400:	a1 96       	adiw	r28, 0x21	; 33
     402:	0f b6       	in	r0, 0x3f	; 63
     404:	f8 94       	cli
     406:	de bf       	out	0x3e, r29	; 62
     408:	0f be       	out	0x3f, r0	; 63
     40a:	cd bf       	out	0x3d, r28	; 61
     40c:	df 91       	pop	r29
     40e:	cf 91       	pop	r28
     410:	1f 91       	pop	r17
     412:	0f 91       	pop	r16
     414:	ff 90       	pop	r15
     416:	ef 90       	pop	r14
     418:	df 90       	pop	r13
     41a:	cf 90       	pop	r12
     41c:	bf 90       	pop	r11
     41e:	af 90       	pop	r10
     420:	9f 90       	pop	r9
     422:	8f 90       	pop	r8
     424:	7f 90       	pop	r7
     426:	6f 90       	pop	r6
     428:	5f 90       	pop	r5
     42a:	4f 90       	pop	r4
     42c:	3f 90       	pop	r3
     42e:	2f 90       	pop	r2
     430:	08 95       	ret

00000432 <_ZN11CController12Cont_ExecuteEv>:
        //COM_1.Send (str8);
        //}
  //-------------------------------------------------------------- 
      
  void CController::Cont_Execute ( )              // Execute Controller Routine
     {
     432:	4f 92       	push	r4
     434:	5f 92       	push	r5
     436:	6f 92       	push	r6
     438:	7f 92       	push	r7
     43a:	8f 92       	push	r8
     43c:	9f 92       	push	r9
     43e:	af 92       	push	r10
     440:	bf 92       	push	r11
     442:	cf 92       	push	r12
     444:	df 92       	push	r13
     446:	ef 92       	push	r14
     448:	ff 92       	push	r15
     44a:	0f 93       	push	r16
     44c:	1f 93       	push	r17
     44e:	cf 93       	push	r28
     450:	df 93       	push	r29
     452:	cd b7       	in	r28, 0x3d	; 61
     454:	de b7       	in	r29, 0x3e	; 62
     456:	a8 97       	sbiw	r28, 0x28	; 40
     458:	0f b6       	in	r0, 0x3f	; 63
     45a:	f8 94       	cli
     45c:	de bf       	out	0x3e, r29	; 62
     45e:	0f be       	out	0x3f, r0	; 63
     460:	cd bf       	out	0x3d, r28	; 61
     462:	8c 01       	movw	r16, r24
     int hi;
     int lo;
     double pHf;
     int i;
    
    COM_0.Tx_Check ( );
     464:	7c 01       	movw	r14, r24
     466:	25 ed       	ldi	r18, 0xD5	; 213
     468:	e2 0e       	add	r14, r18
     46a:	f1 1c       	adc	r15, r1
     46c:	c7 01       	movw	r24, r14
     46e:	89 d3       	rcall	.+1810   	; 0xb82 <_ZN11Serial_Port8Tx_CheckEv>
    COM_0.Rx_Check ( );
     470:	c7 01       	movw	r24, r14
     472:	b0 d3       	rcall	.+1888   	; 0xbd4 <_ZN11Serial_Port8Rx_CheckEv>
    COM_1.Tx_Check ( );
     474:	68 01       	movw	r12, r16
     476:	87 ee       	ldi	r24, 0xE7	; 231
     478:	c8 0e       	add	r12, r24
     47a:	d1 1c       	adc	r13, r1
     47c:	c6 01       	movw	r24, r12
    COM_1.Rx_Check ( );
     47e:	81 d3       	rcall	.+1794   	; 0xb82 <_ZN11Serial_Port8Tx_CheckEv>
     480:	c6 01       	movw	r24, r12

    osf = PCBA2018::Get_One_Second_Flag ( );              // One second Timer 
     482:	a8 d3       	rcall	.+1872   	; 0xbd4 <_ZN11Serial_Port8Rx_CheckEv>
     484:	c2 d2       	rcall	.+1412   	; 0xa0a <_ZN8PCBA201819Get_One_Second_FlagEv>
    ttf = PCBA2018::Get_Timer_Tick ( ); 
     486:	b8 2e       	mov	r11, r24
     488:	c6 d2       	rcall	.+1420   	; 0xa16 <_ZN8PCBA201814Get_Timer_TickEv>

    if (ttf)
     48a:	88 23       	and	r24, r24
     48c:	d1 f0       	breq	.+52     	; 0x4c2 <_ZN11CController12Cont_ExecuteEv+0x90>
       {
       Button_Pressed = Buttons::Read_Buttons ( );
     48e:	7f d2       	rcall	.+1278   	; 0x98e <_ZN7Buttons12Read_ButtonsEv>
     490:	f8 01       	movw	r30, r16
     492:	e1 59       	subi	r30, 0x91	; 145
     494:	fe 4f       	sbci	r31, 0xFE	; 254
     496:	80 83       	st	Z, r24
     498:	3a 97       	sbiw	r30, 0x0a	; 10
           // Last_Button_Pressed = NONE;
          //  Button_Action_Done = true;

       ttcnt += 1;
     49a:	80 81       	ld	r24, Z
     49c:	91 81       	ldd	r25, Z+1	; 0x01
     49e:	01 96       	adiw	r24, 0x01	; 1
     4a0:	91 83       	std	Z+1, r25	; 0x01
     4a2:	80 83       	st	Z, r24
     4a4:	48 01       	movw	r8, r16
       test_flag = !test_flag;
     4a6:	90 e9       	ldi	r25, 0x90	; 144
     4a8:	89 1a       	sub	r8, r25
     4aa:	9e ef       	ldi	r25, 0xFE	; 254
     4ac:	99 0a       	sbc	r9, r25
     4ae:	f4 01       	movw	r30, r8
     4b0:	90 81       	ld	r25, Z
     4b2:	81 e0       	ldi	r24, 0x01	; 1
     4b4:	89 27       	eor	r24, r25

       PCBA2018::Test (test_flag);     // Test the timer tick
     4b6:	80 83       	st	Z, r24
     4b8:	90 e0       	ldi	r25, 0x00	; 0
     4ba:	63 d2       	rcall	.+1222   	; 0x982 <_ZN8PCBA20184TestEi>
       Rho_Output::Test (test_flag );           // Strobe Rho
     4bc:	f4 01       	movw	r30, r8
     4be:	80 81       	ld	r24, Z
     4c0:	00 d4       	rcall	.+2048   	; 0xcc2 <_ZN10Rho_Output4TestEb>
     4c2:	bb 20       	and	r11, r11
          //COM_0.Send (Util::Debug_String);
          //Util::Debug_Flag = false;
          //}
       }

    if (osf)
     4c4:	09 f4       	brne	.+2      	; 0x4c8 <_ZN11CController12Cont_ExecuteEv+0x96>
     4c6:	14 c2       	rjmp	.+1064   	; 0x8f0 <_ZN11CController12Cont_ExecuteEv+0x4be>
     4c8:	f8 01       	movw	r30, r16
       {
       oscnt += 1;   
     4ca:	ed 59       	subi	r30, 0x9D	; 157
     4cc:	fe 4f       	sbci	r31, 0xFE	; 254
     4ce:	80 81       	ld	r24, Z
     4d0:	91 81       	ldd	r25, Z+1	; 0x01
     4d2:	01 96       	adiw	r24, 0x01	; 1
     4d4:	91 83       	std	Z+1, r25	; 0x01
     4d6:	80 83       	st	Z, r24
     4d8:	3e 96       	adiw	r30, 0x0e	; 14
       PWM_Test += 10;
     4da:	80 81       	ld	r24, Z
     4dc:	91 81       	ldd	r25, Z+1	; 0x01
     4de:	0a 96       	adiw	r24, 0x0a	; 10
     4e0:	8f 3f       	cpi	r24, 0xFF	; 255
       if (PWM_Test >= 1023) PWM_Test = 0;
     4e2:	f3 e0       	ldi	r31, 0x03	; 3
     4e4:	9f 07       	cpc	r25, r31
     4e6:	34 f4       	brge	.+12     	; 0x4f4 <_ZN11CController12Cont_ExecuteEv+0xc2>
     4e8:	f8 01       	movw	r30, r16
       }

    if (osf)
       {
       oscnt += 1;   
       PWM_Test += 10;
     4ea:	ef 58       	subi	r30, 0x8F	; 143
     4ec:	fe 4f       	sbci	r31, 0xFE	; 254
     4ee:	91 83       	std	Z+1, r25	; 0x01
     4f0:	80 83       	st	Z, r24
     4f2:	05 c0       	rjmp	.+10     	; 0x4fe <_ZN11CController12Cont_ExecuteEv+0xcc>
     4f4:	f8 01       	movw	r30, r16
       if (PWM_Test >= 1023) PWM_Test = 0;
     4f6:	ef 58       	subi	r30, 0x8F	; 143
     4f8:	fe 4f       	sbci	r31, 0xFE	; 254
     4fa:	11 82       	std	Z+1, r1	; 0x01
     4fc:	10 82       	st	Z, r1
     4fe:	58 01       	movw	r10, r16
       aPWM.Set (PWM_Test) ;
     500:	2f e8       	ldi	r18, 0x8F	; 143
     502:	a2 1a       	sub	r10, r18
     504:	2e ef       	ldi	r18, 0xFE	; 254
     506:	b2 0a       	sbc	r11, r18
     508:	f5 01       	movw	r30, r10
     50a:	60 81       	ld	r22, Z
     50c:	71 81       	ldd	r23, Z+1	; 0x01
     50e:	c8 01       	movw	r24, r16
     510:	8c 52       	subi	r24, 0x2C	; 44
     512:	9f 4f       	sbci	r25, 0xFF	; 255
     514:	a6 d3       	rcall	.+1868   	; 0xc62 <_ZN20Pulse_Wave_Modulator3SetEi>
     516:	f5 01       	movw	r30, r10
       sprintf (str, "\r\n                 PWM Set %d", PWM_Test);
     518:	81 81       	ldd	r24, Z+1	; 0x01
     51a:	8f 93       	push	r24
     51c:	80 81       	ld	r24, Z
     51e:	8f 93       	push	r24
     520:	88 e3       	ldi	r24, 0x38	; 56
     522:	91 e0       	ldi	r25, 0x01	; 1
     524:	9f 93       	push	r25
     526:	8f 93       	push	r24
     528:	ce 01       	movw	r24, r28
     52a:	01 96       	adiw	r24, 0x01	; 1
     52c:	5c 01       	movw	r10, r24
     52e:	9f 93       	push	r25
     530:	8f 93       	push	r24
     532:	22 d7       	rcall	.+3652   	; 0x1378 <sprintf>
       COM_0.Send (str); 
     534:	b5 01       	movw	r22, r10
     536:	c7 01       	movw	r24, r14
     538:	6a d3       	rcall	.+1748   	; 0xc0e <_ZN11Serial_Port4SendEPc>
     53a:	0f 90       	pop	r0
       //}
      // Show_Button (Button_Pressed);                         

       //if (oscnt > 22) oscnt = 11;
       switch (Button_Pressed)
     53c:	0f 90       	pop	r0
     53e:	0f 90       	pop	r0
     540:	0f 90       	pop	r0
     542:	0f 90       	pop	r0
     544:	0f 90       	pop	r0
     546:	f8 01       	movw	r30, r16
     548:	e1 59       	subi	r30, 0x91	; 145
     54a:	fe 4f       	sbci	r31, 0xFE	; 254
     54c:	80 81       	ld	r24, Z
     54e:	85 30       	cpi	r24, 0x05	; 5
     550:	71 f0       	breq	.+28     	; 0x56e <_ZN11CController12Cont_ExecuteEv+0x13c>
     552:	86 30       	cpi	r24, 0x06	; 6
     554:	d1 f4       	brne	.+52     	; 0x58a <_ZN11CController12Cont_ExecuteEv+0x158>
          {
          case MYSTERY: 
             sprintf (str,"~[2J");            // Erase screen
     556:	85 e0       	ldi	r24, 0x05	; 5
     558:	e6 e5       	ldi	r30, 0x56	; 86
     55a:	f1 e0       	ldi	r31, 0x01	; 1
     55c:	d5 01       	movw	r26, r10
     55e:	01 90       	ld	r0, Z+
     560:	0d 92       	st	X+, r0
     562:	8a 95       	dec	r24
     564:	e1 f7       	brne	.-8      	; 0x55e <_ZN11CController12Cont_ExecuteEv+0x12c>
              COM_1.Send (str);
     566:	b5 01       	movw	r22, r10
     568:	c6 01       	movw	r24, r12
     56a:	51 d3       	rcall	.+1698   	; 0xc0e <_ZN11Serial_Port4SendEPc>
     56c:	0e c0       	rjmp	.+28     	; 0x58a <_ZN11CController12Cont_ExecuteEv+0x158>
              break;
     56e:	8b e0       	ldi	r24, 0x0B	; 11
          case OK:
             sprintf (str, "123456789 ");       // Blank line at bottom
     570:	eb e5       	ldi	r30, 0x5B	; 91
     572:	f1 e0       	ldi	r31, 0x01	; 1
     574:	de 01       	movw	r26, r28
     576:	11 96       	adiw	r26, 0x01	; 1
     578:	01 90       	ld	r0, Z+
     57a:	0d 92       	st	X+, r0
     57c:	8a 95       	dec	r24
     57e:	e1 f7       	brne	.-8      	; 0x578 <_ZN11CController12Cont_ExecuteEv+0x146>
             COM_1.Send (str);
     580:	be 01       	movw	r22, r28
     582:	6f 5f       	subi	r22, 0xFF	; 255
     584:	7f 4f       	sbci	r23, 0xFF	; 255
     586:	c6 01       	movw	r24, r12
     588:	42 d3       	rcall	.+1668   	; 0xc0e <_ZN11Serial_Port4SendEPc>
             break;
          }

                   
      
       switch (oscnt)
     58a:	f8 01       	movw	r30, r16
     58c:	ed 59       	subi	r30, 0x9D	; 157
     58e:	fe 4f       	sbci	r31, 0xFE	; 254
     590:	01 90       	ld	r0, Z+
     592:	f0 81       	ld	r31, Z
     594:	e0 2d       	mov	r30, r0
     596:	35 97       	sbiw	r30, 0x05	; 5
     598:	ef 30       	cpi	r30, 0x0F	; 15
     59a:	f1 05       	cpc	r31, r1
     59c:	08 f0       	brcs	.+2      	; 0x5a0 <_ZN11CController12Cont_ExecuteEv+0x16e>
     59e:	a1 c1       	rjmp	.+834    	; 0x8e2 <_ZN11CController12Cont_ExecuteEv+0x4b0>
     5a0:	e2 5c       	subi	r30, 0xC2	; 194
     5a2:	ff 4f       	sbci	r31, 0xFF	; 255
     5a4:	c2 c5       	rjmp	.+2948   	; 0x112a <__tablejump2__>
          {
          case 5: 
             COM_0.Send ("\r\nThis is Com 0");
     5a6:	66 e6       	ldi	r22, 0x66	; 102
     5a8:	71 e0       	ldi	r23, 0x01	; 1
     5aa:	c7 01       	movw	r24, r14
     5ac:	30 d3       	rcall	.+1632   	; 0xc0e <_ZN11Serial_Port4SendEPc>

             sprintf (str,"~[2J");            // ERase screen
     5ae:	85 e0       	ldi	r24, 0x05	; 5
     5b0:	e6 e5       	ldi	r30, 0x56	; 86
     5b2:	f1 e0       	ldi	r31, 0x01	; 1
     5b4:	de 01       	movw	r26, r28
     5b6:	11 96       	adiw	r26, 0x01	; 1
     5b8:	01 90       	ld	r0, Z+
     5ba:	0d 92       	st	X+, r0
     5bc:	8a 95       	dec	r24
             COM_1.Send (str);
     5be:	e1 f7       	brne	.-8      	; 0x5b8 <_ZN11CController12Cont_ExecuteEv+0x186>
     5c0:	be 01       	movw	r22, r28
     5c2:	6f 5f       	subi	r22, 0xFF	; 255
     5c4:	7f 4f       	sbci	r23, 0xFF	; 255
     5c6:	c6 01       	movw	r24, r12
     5c8:	22 d3       	rcall	.+1604   	; 0xc0e <_ZN11Serial_Port4SendEPc>
             COM_1.Send ("\r\nThis is Com 1--");
     5ca:	66 e7       	ldi	r22, 0x76	; 118
     5cc:	71 e0       	ldi	r23, 0x01	; 1
     5ce:	c6 01       	movw	r24, r12
     5d0:	1e d3       	rcall	.+1596   	; 0xc0e <_ZN11Serial_Port4SendEPc>
             break;
     5d2:	8e c1       	rjmp	.+796    	; 0x8f0 <_ZN11CController12Cont_ExecuteEv+0x4be>
             //PCBA2018::Test (oscnt & 1);      // Stub for test code
             
             break;
             
         case 11:
            sprintf (str,"~[2J");            // ERase screen
     5d4:	85 e0       	ldi	r24, 0x05	; 5
     5d6:	e6 e5       	ldi	r30, 0x56	; 86
     5d8:	f1 e0       	ldi	r31, 0x01	; 1
     5da:	de 01       	movw	r26, r28
     5dc:	11 96       	adiw	r26, 0x01	; 1
     5de:	01 90       	ld	r0, Z+
     5e0:	0d 92       	st	X+, r0
     5e2:	8a 95       	dec	r24
     5e4:	e1 f7       	brne	.-8      	; 0x5de <_ZN11CController12Cont_ExecuteEv+0x1ac>
            COM_1.Send (str);
     5e6:	be 01       	movw	r22, r28
     5e8:	6f 5f       	subi	r22, 0xFF	; 255
     5ea:	7f 4f       	sbci	r23, 0xFF	; 255
     5ec:	c6 01       	movw	r24, r12
     5ee:	0f d3       	rcall	.+1566   	; 0xc0e <_ZN11Serial_Port4SendEPc>

            sprintf (str, "_   _   _   _ ");       // Blank line at bottom
     5f0:	8f e0       	ldi	r24, 0x0F	; 15
     5f2:	e8 e8       	ldi	r30, 0x88	; 136
     5f4:	f1 e0       	ldi	r31, 0x01	; 1
     5f6:	de 01       	movw	r26, r28
     5f8:	11 96       	adiw	r26, 0x01	; 1
     5fa:	01 90       	ld	r0, Z+
     5fc:	0d 92       	st	X+, r0
     5fe:	8a 95       	dec	r24
     600:	e1 f7       	brne	.-8      	; 0x5fa <_ZN11CController12Cont_ExecuteEv+0x1c8>
            COM_1.Send (str);
     602:	be 01       	movw	r22, r28
     604:	6f 5f       	subi	r22, 0xFF	; 255
     606:	7f 4f       	sbci	r23, 0xFF	; 255
     608:	c6 01       	movw	r24, r12
     60a:	01 d3       	rcall	.+1538   	; 0xc0e <_ZN11Serial_Port4SendEPc>
            //spi_offset = 202;               // Update board
            //spi_addr = 4;
            //spi_dac += 10; if (spi_dac > 1024) spi_dac = 0; 
            //SPI.Write(spi_addr, spi_offset, 2, spi_dac);
            //sprintf (str, "[%d %d] = %d ", spi_addr, spi_offset, spi_dac);
            COM_0.Send (str);              // 
     60c:	be 01       	movw	r22, r28
     60e:	6f 5f       	subi	r22, 0xFF	; 255
     610:	7f 4f       	sbci	r23, 0xFF	; 255
     612:	c7 01       	movw	r24, r14
     614:	fc d2       	rcall	.+1528   	; 0xc0e <_ZN11Serial_Port4SendEPc>
     616:	6c c1       	rjmp	.+728    	; 0x8f0 <_ZN11CController12Cont_ExecuteEv+0x4be>
            break;
     618:	86 e0       	ldi	r24, 0x06	; 6
      
         case 12:
             sprintf (str, "~[1;1");   COM_1.Send (str);
     61a:	e7 e9       	ldi	r30, 0x97	; 151
     61c:	f1 e0       	ldi	r31, 0x01	; 1
     61e:	de 01       	movw	r26, r28
     620:	11 96       	adiw	r26, 0x01	; 1
     622:	01 90       	ld	r0, Z+
     624:	0d 92       	st	X+, r0
     626:	8a 95       	dec	r24
     628:	e1 f7       	brne	.-8      	; 0x622 <_ZN11CController12Cont_ExecuteEv+0x1f0>
     62a:	be 01       	movw	r22, r28
     62c:	6f 5f       	subi	r22, 0xFF	; 255
     62e:	7f 4f       	sbci	r23, 0xFF	; 255
     630:	c6 01       	movw	r24, r12
     632:	ed d2       	rcall	.+1498   	; 0xc0e <_ZN11Serial_Port4SendEPc>
             sprintf (str, "\r\nChemtrol Simulator");
     634:	85 e1       	ldi	r24, 0x15	; 21
     636:	ed e9       	ldi	r30, 0x9D	; 157
     638:	f1 e0       	ldi	r31, 0x01	; 1
     63a:	de 01       	movw	r26, r28
     63c:	11 96       	adiw	r26, 0x01	; 1
     63e:	01 90       	ld	r0, Z+
     640:	0d 92       	st	X+, r0
             COM_1.Send (str);
     642:	8a 95       	dec	r24
     644:	e1 f7       	brne	.-8      	; 0x63e <_ZN11CController12Cont_ExecuteEv+0x20c>
     646:	be 01       	movw	r22, r28
     648:	6f 5f       	subi	r22, 0xFF	; 255
     64a:	7f 4f       	sbci	r23, 0xFF	; 255
             COM_0.Send (str);
     64c:	c6 01       	movw	r24, r12
     64e:	df d2       	rcall	.+1470   	; 0xc0e <_ZN11Serial_Port4SendEPc>
     650:	be 01       	movw	r22, r28
     652:	6f 5f       	subi	r22, 0xFF	; 255
     654:	7f 4f       	sbci	r23, 0xFF	; 255
     656:	c7 01       	movw	r24, r14
             break;
     658:	da d2       	rcall	.+1460   	; 0xc0e <_ZN11Serial_Port4SendEPc>
                //raw = SPI.Read (8, 202);   //8, 202
                //if (raw != -1) break;
                //}
             //
             //pH_Sensor.Raw (raw);  
             pHf = pH_Sensor.Current ( );
     65a:	4a c1       	rjmp	.+660    	; 0x8f0 <_ZN11CController12Cont_ExecuteEv+0x4be>
     65c:	c8 01       	movw	r24, r16
     65e:	0c 96       	adiw	r24, 0x0c	; 12
     660:	68 d3       	rcall	.+1744   	; 0xd32 <_ZN7CSensor7CurrentEv>
     662:	2b 01       	movw	r4, r22
     664:	3c 01       	movw	r6, r24
             hi = (int) pHf;
     666:	3f d4       	rcall	.+2174   	; 0xee6 <__fixsfsi>
     668:	b6 2e       	mov	r11, r22
     66a:	a7 2e       	mov	r10, r23
             lo =  (pHf * 10) - (10 * hi); 
     66c:	20 e0       	ldi	r18, 0x00	; 0
     66e:	30 e0       	ldi	r19, 0x00	; 0
     670:	40 e2       	ldi	r20, 0x20	; 32
     672:	51 e4       	ldi	r21, 0x41	; 65
     674:	c3 01       	movw	r24, r6
     676:	b2 01       	movw	r22, r4
     678:	f5 d4       	rcall	.+2538   	; 0x1064 <__mulsf3>
     67a:	2b 01       	movw	r4, r22
     67c:	3c 01       	movw	r6, r24
     67e:	6b 2d       	mov	r22, r11
     680:	7a 2d       	mov	r23, r10
     682:	66 0f       	add	r22, r22
     684:	77 1f       	adc	r23, r23
     686:	cb 01       	movw	r24, r22
     688:	88 0f       	add	r24, r24
     68a:	99 1f       	adc	r25, r25
     68c:	88 0f       	add	r24, r24
     68e:	99 1f       	adc	r25, r25
     690:	68 0f       	add	r22, r24
     692:	79 1f       	adc	r23, r25
     694:	07 2e       	mov	r0, r23
     696:	00 0c       	add	r0, r0
     698:	88 0b       	sbc	r24, r24
     69a:	99 0b       	sbc	r25, r25
     69c:	57 d4       	rcall	.+2222   	; 0xf4c <__floatsisf>
     69e:	9b 01       	movw	r18, r22
     6a0:	ac 01       	movw	r20, r24
     6a2:	c3 01       	movw	r24, r6
     6a4:	b2 01       	movw	r22, r4
     6a6:	ba d3       	rcall	.+1908   	; 0xe1c <__subsf3>
     6a8:	1e d4       	rcall	.+2108   	; 0xee6 <__fixsfsi>
     6aa:	96 2e       	mov	r9, r22
     6ac:	87 2e       	mov	r8, r23
                
             sprintf (str, "\r\npH %d.%d ", hi, lo);
     6ae:	7f 93       	push	r23
     6b0:	6f 93       	push	r22
     6b2:	af 92       	push	r10
     6b4:	bf 92       	push	r11
     6b6:	82 eb       	ldi	r24, 0xB2	; 178
     6b8:	91 e0       	ldi	r25, 0x01	; 1
     6ba:	9f 93       	push	r25
     6bc:	8f 93       	push	r24
     6be:	8e 01       	movw	r16, r28
     6c0:	0f 5f       	subi	r16, 0xFF	; 255
     6c2:	1f 4f       	sbci	r17, 0xFF	; 255
     6c4:	1f 93       	push	r17
             //COM_0.Send (str);
             sprintf (str, "~[1;1");   COM_1.Send (str); 
     6c6:	0f 93       	push	r16
     6c8:	57 d6       	rcall	.+3246   	; 0x1378 <sprintf>
     6ca:	86 e0       	ldi	r24, 0x06	; 6
     6cc:	e7 e9       	ldi	r30, 0x97	; 151
     6ce:	f1 e0       	ldi	r31, 0x01	; 1
     6d0:	d8 01       	movw	r26, r16
     6d2:	01 90       	ld	r0, Z+
     6d4:	0d 92       	st	X+, r0
     6d6:	8a 95       	dec	r24
     6d8:	e1 f7       	brne	.-8      	; 0x6d2 <_ZN11CController12Cont_ExecuteEv+0x2a0>
             sprintf (str, "\r\npH %d.%d", hi, lo);
     6da:	b8 01       	movw	r22, r16
     6dc:	c6 01       	movw	r24, r12
     6de:	97 d2       	rcall	.+1326   	; 0xc0e <_ZN11Serial_Port4SendEPc>
     6e0:	8f 92       	push	r8
     6e2:	9f 92       	push	r9
     6e4:	af 92       	push	r10
     6e6:	bf 92       	push	r11
     6e8:	8e eb       	ldi	r24, 0xBE	; 190
     6ea:	91 e0       	ldi	r25, 0x01	; 1
     6ec:	9f 93       	push	r25
     6ee:	8f 93       	push	r24
             COM_1.Send (str); 
     6f0:	1f 93       	push	r17
     6f2:	0f 93       	push	r16
     6f4:	41 d6       	rcall	.+3202   	; 0x1378 <sprintf>
             COM_0.Send (str);   
     6f6:	b8 01       	movw	r22, r16
     6f8:	c6 01       	movw	r24, r12
     6fa:	89 d2       	rcall	.+1298   	; 0xc0e <_ZN11Serial_Port4SendEPc>
     6fc:	b8 01       	movw	r22, r16
             break;
     6fe:	c7 01       	movw	r24, r14
     700:	86 d2       	rcall	.+1292   	; 0xc0e <_ZN11Serial_Port4SendEPc>
     702:	0f b6       	in	r0, 0x3f	; 63
     704:	f8 94       	cli
     706:	de bf       	out	0x3e, r29	; 62


          case 14:
             //raw = SPI.Read (ORP_ADDRESS, ORP_OFFSET);
             //ORP_Sensor.Raw (raw);
             ORP = ORP_Sensor.Current ( );
     708:	0f be       	out	0x3f, r0	; 63
     70a:	cd bf       	out	0x3d, r28	; 61
     70c:	f1 c0       	rjmp	.+482    	; 0x8f0 <_ZN11CController12Cont_ExecuteEv+0x4be>
     70e:	c8 01       	movw	r24, r16
     710:	8d 96       	adiw	r24, 0x2d	; 45
     712:	0f d3       	rcall	.+1566   	; 0xd32 <_ZN7CSensor7CurrentEv>
     714:	e8 d3       	rcall	.+2000   	; 0xee6 <__fixsfsi>
     716:	f8 01       	movw	r30, r16
     718:	62 83       	std	Z+2, r22	; 0x02
             sprintf (str, "\r\nORP %d ", ORP);
     71a:	73 83       	std	Z+3, r23	; 0x03
     71c:	7f 93       	push	r23
     71e:	6f 93       	push	r22
     720:	89 ec       	ldi	r24, 0xC9	; 201
     722:	91 e0       	ldi	r25, 0x01	; 1
     724:	9f 93       	push	r25
     726:	8f 93       	push	r24
     728:	ce 01       	movw	r24, r28
     72a:	01 96       	adiw	r24, 0x01	; 1
     72c:	5c 01       	movw	r10, r24
     72e:	9f 93       	push	r25
             COM_0.Send (str); 
     730:	8f 93       	push	r24
     732:	22 d6       	rcall	.+3140   	; 0x1378 <sprintf>
             sprintf (str, "~[2;2");   COM_1.Send (str);
     734:	b5 01       	movw	r22, r10
     736:	c7 01       	movw	r24, r14
     738:	6a d2       	rcall	.+1236   	; 0xc0e <_ZN11Serial_Port4SendEPc>
     73a:	86 e0       	ldi	r24, 0x06	; 6
     73c:	e3 ed       	ldi	r30, 0xD3	; 211
     73e:	f1 e0       	ldi	r31, 0x01	; 1
     740:	d5 01       	movw	r26, r10
     742:	01 90       	ld	r0, Z+
     744:	0d 92       	st	X+, r0
     746:	8a 95       	dec	r24
     748:	e1 f7       	brne	.-8      	; 0x742 <_ZN11CController12Cont_ExecuteEv+0x310>
     74a:	b5 01       	movw	r22, r10
             sprintf (str, "\r\nORP %d", ORP);
     74c:	c6 01       	movw	r24, r12
     74e:	5f d2       	rcall	.+1214   	; 0xc0e <_ZN11Serial_Port4SendEPc>
     750:	f8 01       	movw	r30, r16
     752:	83 81       	ldd	r24, Z+3	; 0x03
     754:	8f 93       	push	r24
     756:	82 81       	ldd	r24, Z+2	; 0x02
     758:	8f 93       	push	r24
     75a:	89 ed       	ldi	r24, 0xD9	; 217
     75c:	91 e0       	ldi	r25, 0x01	; 1
     75e:	9f 93       	push	r25
     760:	8f 93       	push	r24
             COM_1.Send (str);   
     762:	bf 92       	push	r11
     764:	af 92       	push	r10
     766:	08 d6       	rcall	.+3088   	; 0x1378 <sprintf>
             break;
     768:	b5 01       	movw	r22, r10
     76a:	c6 01       	movw	r24, r12
     76c:	50 d2       	rcall	.+1184   	; 0xc0e <_ZN11Serial_Port4SendEPc>
     76e:	0f b6       	in	r0, 0x3f	; 63
     770:	f8 94       	cli
     772:	de bf       	out	0x3e, r29	; 62

          case 15:
             //PPM_Sensor.Raw (SPI.Read (PPM_ADDRESS, PPM_OFFSET));
             PPM = PPM_Sensor.Current ( );
     774:	0f be       	out	0x3f, r0	; 63
     776:	cd bf       	out	0x3d, r28	; 61
     778:	bb c0       	rjmp	.+374    	; 0x8f0 <_ZN11CController12Cont_ExecuteEv+0x4be>
     77a:	c8 01       	movw	r24, r16
     77c:	81 59       	subi	r24, 0x91	; 145
     77e:	9f 4f       	sbci	r25, 0xFF	; 255
     780:	d8 d2       	rcall	.+1456   	; 0xd32 <_ZN7CSensor7CurrentEv>
     782:	b1 d3       	rcall	.+1890   	; 0xee6 <__fixsfsi>
             sprintf (str, "\r\nPPM %d ", PPM);
     784:	f8 01       	movw	r30, r16
     786:	64 83       	std	Z+4, r22	; 0x04
     788:	75 83       	std	Z+5, r23	; 0x05
     78a:	7f 93       	push	r23
     78c:	6f 93       	push	r22
     78e:	82 ee       	ldi	r24, 0xE2	; 226
     790:	91 e0       	ldi	r25, 0x01	; 1
     792:	9f 93       	push	r25
     794:	8f 93       	push	r24
     796:	ce 01       	movw	r24, r28
     798:	01 96       	adiw	r24, 0x01	; 1
             COM_0.Send (str); 
     79a:	5c 01       	movw	r10, r24
     79c:	9f 93       	push	r25
     79e:	8f 93       	push	r24
     7a0:	eb d5       	rcall	.+3030   	; 0x1378 <sprintf>
             sprintf (str, "~[3;3");   COM_1.Send (str);
     7a2:	b5 01       	movw	r22, r10
     7a4:	c7 01       	movw	r24, r14
     7a6:	33 d2       	rcall	.+1126   	; 0xc0e <_ZN11Serial_Port4SendEPc>
     7a8:	86 e0       	ldi	r24, 0x06	; 6
     7aa:	ec ee       	ldi	r30, 0xEC	; 236
     7ac:	f1 e0       	ldi	r31, 0x01	; 1
     7ae:	d5 01       	movw	r26, r10
     7b0:	01 90       	ld	r0, Z+
     7b2:	0d 92       	st	X+, r0
     7b4:	8a 95       	dec	r24
             sprintf (str, "\r\nPPM %d", PPM);
     7b6:	e1 f7       	brne	.-8      	; 0x7b0 <_ZN11CController12Cont_ExecuteEv+0x37e>
     7b8:	b5 01       	movw	r22, r10
     7ba:	c6 01       	movw	r24, r12
     7bc:	28 d2       	rcall	.+1104   	; 0xc0e <_ZN11Serial_Port4SendEPc>
     7be:	f8 01       	movw	r30, r16
     7c0:	85 81       	ldd	r24, Z+5	; 0x05
     7c2:	8f 93       	push	r24
     7c4:	84 81       	ldd	r24, Z+4	; 0x04
     7c6:	8f 93       	push	r24
     7c8:	82 ef       	ldi	r24, 0xF2	; 242
     7ca:	91 e0       	ldi	r25, 0x01	; 1
     7cc:	9f 93       	push	r25
             COM_1.Send (str);
     7ce:	8f 93       	push	r24
     7d0:	bf 92       	push	r11
     7d2:	af 92       	push	r10
     7d4:	d1 d5       	rcall	.+2978   	; 0x1378 <sprintf>
             break;
     7d6:	b5 01       	movw	r22, r10
     7d8:	c6 01       	movw	r24, r12
     7da:	19 d2       	rcall	.+1074   	; 0xc0e <_ZN11Serial_Port4SendEPc>
     7dc:	0f b6       	in	r0, 0x3f	; 63
     7de:	f8 94       	cli

          case 16:
             //TDS_Sensor.Raw (SPI.Read (TDS_ADDRESS, TDS_OFFSET));
             TDS = TDS_Sensor.Current ( );
     7e0:	de bf       	out	0x3e, r29	; 62
     7e2:	0f be       	out	0x3f, r0	; 63
     7e4:	cd bf       	out	0x3d, r28	; 61
     7e6:	84 c0       	rjmp	.+264    	; 0x8f0 <_ZN11CController12Cont_ExecuteEv+0x4be>
     7e8:	c8 01       	movw	r24, r16
     7ea:	80 57       	subi	r24, 0x70	; 112
     7ec:	9f 4f       	sbci	r25, 0xFF	; 255
     7ee:	a1 d2       	rcall	.+1346   	; 0xd32 <_ZN7CSensor7CurrentEv>
     7f0:	7a d3       	rcall	.+1780   	; 0xee6 <__fixsfsi>
             sprintf (str, "\r\nTDS %d ", TDS);
     7f2:	f8 01       	movw	r30, r16
     7f4:	66 83       	std	Z+6, r22	; 0x06
     7f6:	77 83       	std	Z+7, r23	; 0x07
     7f8:	7f 93       	push	r23
     7fa:	6f 93       	push	r22
     7fc:	8b ef       	ldi	r24, 0xFB	; 251
     7fe:	91 e0       	ldi	r25, 0x01	; 1
     800:	9f 93       	push	r25
     802:	8f 93       	push	r24
     804:	ce 01       	movw	r24, r28
     806:	01 96       	adiw	r24, 0x01	; 1
     808:	5c 01       	movw	r10, r24
             COM_0.Send (str);
     80a:	9f 93       	push	r25
     80c:	8f 93       	push	r24
     80e:	b4 d5       	rcall	.+2920   	; 0x1378 <sprintf>
             sprintf (str, "~[4;4");   COM_1.Send (str);
     810:	b5 01       	movw	r22, r10
     812:	c7 01       	movw	r24, r14
     814:	fc d1       	rcall	.+1016   	; 0xc0e <_ZN11Serial_Port4SendEPc>
     816:	86 e0       	ldi	r24, 0x06	; 6
     818:	e5 e0       	ldi	r30, 0x05	; 5
     81a:	f2 e0       	ldi	r31, 0x02	; 2
     81c:	d5 01       	movw	r26, r10
     81e:	01 90       	ld	r0, Z+
     820:	0d 92       	st	X+, r0
     822:	8a 95       	dec	r24
     824:	e1 f7       	brne	.-8      	; 0x81e <_ZN11CController12Cont_ExecuteEv+0x3ec>
             sprintf (str, "\r\nTDS %d", TDS);
     826:	b5 01       	movw	r22, r10
     828:	c6 01       	movw	r24, r12
     82a:	f1 d1       	rcall	.+994    	; 0xc0e <_ZN11Serial_Port4SendEPc>
     82c:	f8 01       	movw	r30, r16
     82e:	87 81       	ldd	r24, Z+7	; 0x07
     830:	8f 93       	push	r24
     832:	86 81       	ldd	r24, Z+6	; 0x06
     834:	8f 93       	push	r24
     836:	8b e0       	ldi	r24, 0x0B	; 11
     838:	92 e0       	ldi	r25, 0x02	; 2
     83a:	9f 93       	push	r25
     83c:	8f 93       	push	r24
             COM_1.Send (str);   
     83e:	bf 92       	push	r11
     840:	af 92       	push	r10
     842:	9a d5       	rcall	.+2868   	; 0x1378 <sprintf>
             break;
     844:	b5 01       	movw	r22, r10
     846:	c6 01       	movw	r24, r12
     848:	e2 d1       	rcall	.+964    	; 0xc0e <_ZN11Serial_Port4SendEPc>
     84a:	0f b6       	in	r0, 0x3f	; 63
     84c:	f8 94       	cli
     84e:	de bf       	out	0x3e, r29	; 62
             
 

          case 17:            
             //Temp_Sensor.Raw (SPI.Read (TEMP_ADDRESS, TEMP_OFFSET));
             TEMP = Temp_Sensor.Current ( );
     850:	0f be       	out	0x3f, r0	; 63
     852:	cd bf       	out	0x3d, r28	; 61
     854:	4d c0       	rjmp	.+154    	; 0x8f0 <_ZN11CController12Cont_ExecuteEv+0x4be>
     856:	c8 01       	movw	r24, r16
     858:	8f 54       	subi	r24, 0x4F	; 79
     85a:	9f 4f       	sbci	r25, 0xFF	; 255
     85c:	6a d2       	rcall	.+1236   	; 0xd32 <_ZN7CSensor7CurrentEv>
     85e:	43 d3       	rcall	.+1670   	; 0xee6 <__fixsfsi>
     860:	f8 01       	movw	r30, r16
     862:	60 87       	std	Z+8, r22	; 0x08
             sprintf (str, "\r\nTEMP %d ", TEMP);
     864:	71 87       	std	Z+9, r23	; 0x09
     866:	7f 93       	push	r23
     868:	6f 93       	push	r22
     86a:	84 e1       	ldi	r24, 0x14	; 20
     86c:	92 e0       	ldi	r25, 0x02	; 2
     86e:	9f 93       	push	r25
     870:	8f 93       	push	r24
     872:	ce 01       	movw	r24, r28
     874:	01 96       	adiw	r24, 0x01	; 1
     876:	5c 01       	movw	r10, r24
     878:	9f 93       	push	r25
     87a:	8f 93       	push	r24
             COM_0.Send (str);
     87c:	7d d5       	rcall	.+2810   	; 0x1378 <sprintf>
     87e:	b5 01       	movw	r22, r10
     880:	c7 01       	movw	r24, r14
     882:	c5 d1       	rcall	.+906    	; 0xc0e <_ZN11Serial_Port4SendEPc>
             sprintf (str, "~[5;5");   COM_1.Send (str);
     884:	86 e0       	ldi	r24, 0x06	; 6
     886:	ef e1       	ldi	r30, 0x1F	; 31
     888:	f2 e0       	ldi	r31, 0x02	; 2
     88a:	d5 01       	movw	r26, r10
     88c:	01 90       	ld	r0, Z+
     88e:	0d 92       	st	X+, r0
     890:	8a 95       	dec	r24
     892:	e1 f7       	brne	.-8      	; 0x88c <_ZN11CController12Cont_ExecuteEv+0x45a>
     894:	b5 01       	movw	r22, r10
             sprintf (str, "\r\nTEMP %d", TEMP);
     896:	c6 01       	movw	r24, r12
     898:	ba d1       	rcall	.+884    	; 0xc0e <_ZN11Serial_Port4SendEPc>
     89a:	f8 01       	movw	r30, r16
     89c:	81 85       	ldd	r24, Z+9	; 0x09
     89e:	8f 93       	push	r24
     8a0:	80 85       	ldd	r24, Z+8	; 0x08
     8a2:	8f 93       	push	r24
     8a4:	85 e2       	ldi	r24, 0x25	; 37
     8a6:	92 e0       	ldi	r25, 0x02	; 2
     8a8:	9f 93       	push	r25
     8aa:	8f 93       	push	r24
     8ac:	bf 92       	push	r11
     8ae:	af 92       	push	r10
             COM_1.Send (str);   
     8b0:	63 d5       	rcall	.+2758   	; 0x1378 <sprintf>
     8b2:	b5 01       	movw	r22, r10
     8b4:	c6 01       	movw	r24, r12
     8b6:	ab d1       	rcall	.+854    	; 0xc0e <_ZN11Serial_Port4SendEPc>
             break;
     8b8:	0f b6       	in	r0, 0x3f	; 63
     8ba:	f8 94       	cli
     8bc:	de bf       	out	0x3e, r29	; 62
     8be:	0f be       	out	0x3f, r0	; 63
     8c0:	cd bf       	out	0x3d, r28	; 61
     8c2:	16 c0       	rjmp	.+44     	; 0x8f0 <_ZN11CController12Cont_ExecuteEv+0x4be>
             //COM_0.Send (str);
             //sprintf (str, "\r\nAUX in %d", Aux);
             //COM_1.Send (str);
            break;
       case 19:
          sprintf (str, "\r\n\r\n");
     8c4:	85 e0       	ldi	r24, 0x05	; 5
     8c6:	ef e2       	ldi	r30, 0x2F	; 47
     8c8:	f2 e0       	ldi	r31, 0x02	; 2
     8ca:	de 01       	movw	r26, r28
     8cc:	11 96       	adiw	r26, 0x01	; 1
     8ce:	01 90       	ld	r0, Z+
     8d0:	0d 92       	st	X+, r0
     8d2:	8a 95       	dec	r24
     8d4:	e1 f7       	brne	.-8      	; 0x8ce <_ZN11CController12Cont_ExecuteEv+0x49c>
          COM_0.Send (str);
     8d6:	be 01       	movw	r22, r28
     8d8:	6f 5f       	subi	r22, 0xFF	; 255
     8da:	7f 4f       	sbci	r23, 0xFF	; 255
     8dc:	c7 01       	movw	r24, r14
     8de:	97 d1       	rcall	.+814    	; 0xc0e <_ZN11Serial_Port4SendEPc>
     8e0:	07 c0       	rjmp	.+14     	; 0x8f0 <_ZN11CController12Cont_ExecuteEv+0x4be>
          break;
     8e2:	f8 01       	movw	r30, r16

      default:
        oscnt = 10;
     8e4:	ed 59       	subi	r30, 0x9D	; 157
     8e6:	fe 4f       	sbci	r31, 0xFE	; 254
     8e8:	8a e0       	ldi	r24, 0x0A	; 10
     8ea:	90 e0       	ldi	r25, 0x00	; 0
     8ec:	91 83       	std	Z+1, r25	; 0x01
     8ee:	80 83       	st	Z, r24
     8f0:	c7 01       	movw	r24, r14

      //oscnt += 1;       // 10 gets bumped to 11
      } // if (osf)

     
     ch = COM_0.Get_Char ( );
     8f2:	a3 d1       	rcall	.+838    	; 0xc3a <_ZN11Serial_Port8Get_CharEv>
     8f4:	18 2f       	mov	r17, r24
     8f6:	88 23       	and	r24, r24
     8f8:	51 f0       	breq	.+20     	; 0x90e <_ZN11CController12Cont_ExecuteEv+0x4dc>
     if (ch != '\0') 
     8fa:	61 e3       	ldi	r22, 0x31	; 49
     8fc:	72 e0       	ldi	r23, 0x02	; 2
         {
         COM_0.Send ("\r\n");      // Local echo
     8fe:	c7 01       	movw	r24, r14
     900:	86 d1       	rcall	.+780    	; 0xc0e <_ZN11Serial_Port4SendEPc>
     902:	61 2f       	mov	r22, r17
     904:	c7 01       	movw	r24, r14
     906:	80 d1       	rcall	.+768    	; 0xc08 <_ZN11Serial_Port4SendEc>
         COM_0.Send (ch);      // Local echo
     908:	61 2f       	mov	r22, r17
     90a:	c6 01       	movw	r24, r12
     90c:	7d d1       	rcall	.+762    	; 0xc08 <_ZN11Serial_Port4SendEc>
     90e:	a8 96       	adiw	r28, 0x28	; 40
         COM_1.Send (ch);      // Send to Display
     910:	0f b6       	in	r0, 0x3f	; 63
     912:	f8 94       	cli
     914:	de bf       	out	0x3e, r29	; 62
     916:	0f be       	out	0x3f, r0	; 63
         }
    
     } // End Cont Execute
     918:	cd bf       	out	0x3d, r28	; 61
     91a:	df 91       	pop	r29
     91c:	cf 91       	pop	r28
     91e:	1f 91       	pop	r17
     920:	0f 91       	pop	r16
     922:	ff 90       	pop	r15
     924:	ef 90       	pop	r14
     926:	df 90       	pop	r13
     928:	cf 90       	pop	r12
     92a:	bf 90       	pop	r11
     92c:	af 90       	pop	r10
     92e:	9f 90       	pop	r9
     930:	8f 90       	pop	r8
     932:	7f 90       	pop	r7
     934:	6f 90       	pop	r6
     936:	5f 90       	pop	r5
     938:	4f 90       	pop	r4
     93a:	08 95       	ret

0000093c <_ZN8CDisplay4InitEv>:
   //int CDisplay::chcurr;             // Current character
   //
   //static bool San_Feed;
   //
   void CDisplay::Init ( )            // Initialize Display
      {
     93c:	08 95       	ret

0000093e <_ZN6EEProm4InitEv>:
////Run_Mode EEProm::Get_pH_Mode   (void)        {return (Run_Mode) ReadWordEE (apH_RM);} 
//////-------------------------------------------------------------------
//////
////
void EEProm::Init (void)
   {
     93e:	08 95       	ret

00000940 <main>:

CController aCont;

int main (void)
   {
   aCont.Cont_Init ( );
     940:	84 e3       	ldi	r24, 0x34	; 52
     942:	92 e0       	ldi	r25, 0x02	; 2
     944:	f6 db       	rcall	.-2068   	; 0x132 <_ZN11CController9Cont_InitEv>
   sei ( );
     946:	78 94       	sei

   while (true)
	   {
	   aCont.Cont_Execute ( );
     948:	84 e3       	ldi	r24, 0x34	; 52
     94a:	92 e0       	ldi	r25, 0x02	; 2
     94c:	72 dd       	rcall	.-1308   	; 0x432 <_ZN11CController12Cont_ExecuteEv>
     94e:	fc cf       	rjmp	.-8      	; 0x948 <main+0x8>

00000950 <_GLOBAL__sub_I_aCont>:
#include <avr/io.h>
#include <avr/interrupt.h>

#include "Controller.h"

CController aCont;
     950:	84 e3       	ldi	r24, 0x34	; 52
     952:	92 e0       	ldi	r25, 0x02	; 2
     954:	cc cb       	rjmp	.-2152   	; 0xee <_ZN11CControllerC1Ev>
     956:	08 95       	ret

00000958 <_GLOBAL__sub_D_aCont>:
        void Init (void);                    // Initialize IO
        void Set (int pwm);                  //
     };

//----------------------------------------------------------------------------    
  class Serial_Port
     958:	83 e2       	ldi	r24, 0x23	; 35
     95a:	93 e0       	ldi	r25, 0x03	; 3
     95c:	fb d1       	rcall	.+1014   	; 0xd54 <_ZN4CBoxD1Ev>
     95e:	8b e1       	ldi	r24, 0x1B	; 27
     960:	93 e0       	ldi	r25, 0x03	; 3
     962:	f8 d1       	rcall	.+1008   	; 0xd54 <_ZN4CBoxD1Ev>
     964:	81 e1       	ldi	r24, 0x11	; 17
     966:	93 e0       	ldi	r25, 0x03	; 3
     968:	f5 d1       	rcall	.+1002   	; 0xd54 <_ZN4CBoxD1Ev>
     96a:	89 e0       	ldi	r24, 0x09	; 9
     96c:	93 e0       	ldi	r25, 0x03	; 3
     96e:	f2 c1       	rjmp	.+996    	; 0xd54 <_ZN4CBoxD1Ev>
     970:	08 95       	ret

00000972 <_ZN8PCBA20187IO_InitEv>:
 //}

 double Rho_Output::Get_FreqA (void)
    {
    return RhoA_Freq;
    }
     972:	83 e0       	ldi	r24, 0x03	; 3
     974:	81 b9       	out	0x01, r24	; 1
     976:	8f e2       	ldi	r24, 0x2F	; 47
     978:	82 b9       	out	0x02, r24	; 2
     97a:	8a b1       	in	r24, 0x0a	; 10
     97c:	80 6f       	ori	r24, 0xF0	; 240
     97e:	8a b9       	out	0x0a, r24	; 10
     980:	08 95       	ret

00000982 <_ZN8PCBA20184TestEi>:
     982:	89 2b       	or	r24, r25
     984:	11 f4       	brne	.+4      	; 0x98a <_ZN8PCBA20184TestEi+0x8>
     986:	5f 98       	cbi	0x0b, 7	; 11
     988:	08 95       	ret
     98a:	5f 9a       	sbi	0x0b, 7	; 11
     98c:	08 95       	ret

0000098e <_ZN7Buttons12Read_ButtonsEv>:
     98e:	10 98       	cbi	0x02, 0	; 2
     990:	87 ec       	ldi	r24, 0xC7	; 199
     992:	90 e0       	ldi	r25, 0x00	; 0
     994:	01 97       	sbiw	r24, 0x01	; 1
     996:	f1 f7       	brne	.-4      	; 0x994 <_ZN7Buttons12Read_ButtonsEv+0x6>
     998:	00 c0       	rjmp	.+0      	; 0x99a <_ZN7Buttons12Read_ButtonsEv+0xc>
     99a:	00 00       	nop
     99c:	80 b1       	in	r24, 0x00	; 0
     99e:	90 e0       	ldi	r25, 0x00	; 0
     9a0:	90 93 09 01 	sts	0x0109, r25	; 0x800109 <row1+0x1>
     9a4:	80 93 08 01 	sts	0x0108, r24	; 0x800108 <row1>
     9a8:	82 b1       	in	r24, 0x02	; 2
     9aa:	83 60       	ori	r24, 0x03	; 3
     9ac:	82 b9       	out	0x02, r24	; 2
     9ae:	11 98       	cbi	0x02, 1	; 2
     9b0:	87 ec       	ldi	r24, 0xC7	; 199
     9b2:	90 e0       	ldi	r25, 0x00	; 0
     9b4:	01 97       	sbiw	r24, 0x01	; 1
     9b6:	f1 f7       	brne	.-4      	; 0x9b4 <_ZN7Buttons12Read_ButtonsEv+0x26>
     9b8:	00 c0       	rjmp	.+0      	; 0x9ba <_ZN7Buttons12Read_ButtonsEv+0x2c>
     9ba:	00 00       	nop
     9bc:	80 b1       	in	r24, 0x00	; 0
     9be:	90 e0       	ldi	r25, 0x00	; 0
     9c0:	90 93 07 01 	sts	0x0107, r25	; 0x800107 <row2+0x1>
     9c4:	80 93 06 01 	sts	0x0106, r24	; 0x800106 <row2>
     9c8:	82 b1       	in	r24, 0x02	; 2
     9ca:	83 60       	ori	r24, 0x03	; 3
     9cc:	82 b9       	out	0x02, r24	; 2
     9ce:	80 91 08 01 	lds	r24, 0x0108	; 0x800108 <row1>
     9d2:	82 ff       	sbrs	r24, 2
     9d4:	0e c0       	rjmp	.+28     	; 0x9f2 <_ZN7Buttons12Read_ButtonsEv+0x64>
     9d6:	90 91 06 01 	lds	r25, 0x0106	; 0x800106 <row2>
     9da:	92 ff       	sbrs	r25, 2
     9dc:	0c c0       	rjmp	.+24     	; 0x9f6 <_ZN7Buttons12Read_ButtonsEv+0x68>
     9de:	83 ff       	sbrs	r24, 3
     9e0:	0c c0       	rjmp	.+24     	; 0x9fa <_ZN7Buttons12Read_ButtonsEv+0x6c>
     9e2:	93 ff       	sbrs	r25, 3
     9e4:	0c c0       	rjmp	.+24     	; 0x9fe <_ZN7Buttons12Read_ButtonsEv+0x70>
     9e6:	85 ff       	sbrs	r24, 5
     9e8:	0c c0       	rjmp	.+24     	; 0xa02 <_ZN7Buttons12Read_ButtonsEv+0x74>
     9ea:	95 ff       	sbrs	r25, 5
     9ec:	0c c0       	rjmp	.+24     	; 0xa06 <_ZN7Buttons12Read_ButtonsEv+0x78>
     9ee:	80 e0       	ldi	r24, 0x00	; 0
     9f0:	08 95       	ret
     9f2:	84 e0       	ldi	r24, 0x04	; 4
     9f4:	08 95       	ret
     9f6:	82 e0       	ldi	r24, 0x02	; 2
     9f8:	08 95       	ret
     9fa:	81 e0       	ldi	r24, 0x01	; 1
     9fc:	08 95       	ret
     9fe:	83 e0       	ldi	r24, 0x03	; 3
     a00:	08 95       	ret
     a02:	85 e0       	ldi	r24, 0x05	; 5
     a04:	08 95       	ret
     a06:	86 e0       	ldi	r24, 0x06	; 6
     a08:	08 95       	ret

00000a0a <_ZN8PCBA201819Get_One_Second_FlagEv>:
     a0a:	80 91 af 03 	lds	r24, 0x03AF	; 0x8003af <_ZL10Timer_Flag>
     a0e:	81 11       	cpse	r24, r1
     a10:	10 92 af 03 	sts	0x03AF, r1	; 0x8003af <_ZL10Timer_Flag>
     a14:	08 95       	ret

00000a16 <_ZN8PCBA201814Get_Timer_TickEv>:
     a16:	80 91 ae 03 	lds	r24, 0x03AE	; 0x8003ae <_ZL10Timer_Tick>
     a1a:	81 11       	cpse	r24, r1
     a1c:	10 92 ae 03 	sts	0x03AE, r1	; 0x8003ae <_ZL10Timer_Tick>
     a20:	08 95       	ret

00000a22 <_ZN8PCBA201810Timer_InitEv>:
     a22:	f8 94       	cli
     a24:	14 bc       	out	0x24, r1	; 36
     a26:	85 e0       	ldi	r24, 0x05	; 5
     a28:	85 bd       	out	0x25, r24	; 37
     a2a:	ee e6       	ldi	r30, 0x6E	; 110
     a2c:	f0 e0       	ldi	r31, 0x00	; 0
     a2e:	80 81       	ld	r24, Z
     a30:	81 60       	ori	r24, 0x01	; 1
     a32:	80 83       	st	Z, r24
     a34:	81 ef       	ldi	r24, 0xF1	; 241
     a36:	86 bd       	out	0x26, r24	; 38
     a38:	10 92 af 03 	sts	0x03AF, r1	; 0x8003af <_ZL10Timer_Flag>
     a3c:	10 92 ae 03 	sts	0x03AE, r1	; 0x8003ae <_ZL10Timer_Tick>
     a40:	84 ef       	ldi	r24, 0xF4	; 244
     a42:	91 e0       	ldi	r25, 0x01	; 1
     a44:	90 93 b1 03 	sts	0x03B1, r25	; 0x8003b1 <_ZL14OneSecondTimer+0x1>
     a48:	80 93 b0 03 	sts	0x03B0, r24	; 0x8003b0 <_ZL14OneSecondTimer>
     a4c:	08 95       	ret

00000a4e <__vector_18>:
     a4e:	1f 92       	push	r1
     a50:	0f 92       	push	r0
     a52:	0f b6       	in	r0, 0x3f	; 63
     a54:	0f 92       	push	r0
     a56:	11 24       	eor	r1, r1
     a58:	8f 93       	push	r24
     a5a:	9f 93       	push	r25
     a5c:	81 ef       	ldi	r24, 0xF1	; 241
     a5e:	86 bd       	out	0x26, r24	; 38
     a60:	81 e0       	ldi	r24, 0x01	; 1
     a62:	80 93 ae 03 	sts	0x03AE, r24	; 0x8003ae <_ZL10Timer_Tick>
     a66:	80 91 b0 03 	lds	r24, 0x03B0	; 0x8003b0 <_ZL14OneSecondTimer>
     a6a:	90 91 b1 03 	lds	r25, 0x03B1	; 0x8003b1 <_ZL14OneSecondTimer+0x1>
     a6e:	01 97       	sbiw	r24, 0x01	; 1
     a70:	90 93 b1 03 	sts	0x03B1, r25	; 0x8003b1 <_ZL14OneSecondTimer+0x1>
     a74:	80 93 b0 03 	sts	0x03B0, r24	; 0x8003b0 <_ZL14OneSecondTimer>
     a78:	00 97       	sbiw	r24, 0x00	; 0
     a7a:	51 f4       	brne	.+20     	; 0xa90 <__vector_18+0x42>
     a7c:	84 ef       	ldi	r24, 0xF4	; 244
     a7e:	91 e0       	ldi	r25, 0x01	; 1
     a80:	90 93 b1 03 	sts	0x03B1, r25	; 0x8003b1 <_ZL14OneSecondTimer+0x1>
     a84:	80 93 b0 03 	sts	0x03B0, r24	; 0x8003b0 <_ZL14OneSecondTimer>
     a88:	81 e0       	ldi	r24, 0x01	; 1
     a8a:	80 93 af 03 	sts	0x03AF, r24	; 0x8003af <_ZL10Timer_Flag>
     a8e:	08 c0       	rjmp	.+16     	; 0xaa0 <__vector_18+0x52>
     a90:	99 23       	and	r25, r25
     a92:	34 f4       	brge	.+12     	; 0xaa0 <__vector_18+0x52>
     a94:	84 ef       	ldi	r24, 0xF4	; 244
     a96:	91 e0       	ldi	r25, 0x01	; 1
     a98:	90 93 b1 03 	sts	0x03B1, r25	; 0x8003b1 <_ZL14OneSecondTimer+0x1>
     a9c:	80 93 b0 03 	sts	0x03B0, r24	; 0x8003b0 <_ZL14OneSecondTimer>
     aa0:	9f 91       	pop	r25
     aa2:	8f 91       	pop	r24
     aa4:	0f 90       	pop	r0
     aa6:	0f be       	out	0x3f, r0	; 63
     aa8:	0f 90       	pop	r0
     aaa:	1f 90       	pop	r1
     aac:	18 95       	reti

00000aae <_ZN11Serial_Port9UART_initEii>:
     aae:	40 34       	cpi	r20, 0x40	; 64
     ab0:	88 e3       	ldi	r24, 0x38	; 56
     ab2:	58 07       	cpc	r21, r24
     ab4:	b9 f0       	breq	.+46     	; 0xae4 <_ZN11Serial_Port9UART_initEii+0x36>
     ab6:	44 f4       	brge	.+16     	; 0xac8 <_ZN11Serial_Port9UART_initEii+0x1a>
     ab8:	40 36       	cpi	r20, 0x60	; 96
     aba:	89 e0       	ldi	r24, 0x09	; 9
     abc:	58 07       	cpc	r21, r24
     abe:	61 f0       	breq	.+24     	; 0xad8 <_ZN11Serial_Port9UART_initEii+0x2a>
     ac0:	40 3c       	cpi	r20, 0xC0	; 192
     ac2:	52 41       	sbci	r21, 0x12	; 18
     ac4:	61 f0       	breq	.+24     	; 0xade <_ZN11Serial_Port9UART_initEii+0x30>
     ac6:	17 c0       	rjmp	.+46     	; 0xaf6 <_ZN11Serial_Port9UART_initEii+0x48>
     ac8:	41 15       	cp	r20, r1
     aca:	8b e4       	ldi	r24, 0x4B	; 75
     acc:	58 07       	cpc	r21, r24
     ace:	69 f0       	breq	.+26     	; 0xaea <_ZN11Serial_Port9UART_initEii+0x3c>
     ad0:	40 38       	cpi	r20, 0x80	; 128
     ad2:	50 47       	sbci	r21, 0x70	; 112
     ad4:	69 f0       	breq	.+26     	; 0xaf0 <_ZN11Serial_Port9UART_initEii+0x42>
     ad6:	0f c0       	rjmp	.+30     	; 0xaf6 <_ZN11Serial_Port9UART_initEii+0x48>
     ad8:	80 ea       	ldi	r24, 0xA0	; 160
     ada:	91 e0       	ldi	r25, 0x01	; 1
     adc:	0e c0       	rjmp	.+28     	; 0xafa <_ZN11Serial_Port9UART_initEii+0x4c>
     ade:	8f ec       	ldi	r24, 0xCF	; 207
     ae0:	90 e0       	ldi	r25, 0x00	; 0
     ae2:	0b c0       	rjmp	.+22     	; 0xafa <_ZN11Serial_Port9UART_initEii+0x4c>
     ae4:	84 e4       	ldi	r24, 0x44	; 68
     ae6:	90 e0       	ldi	r25, 0x00	; 0
     ae8:	08 c0       	rjmp	.+16     	; 0xafa <_ZN11Serial_Port9UART_initEii+0x4c>
     aea:	83 e3       	ldi	r24, 0x33	; 51
     aec:	90 e0       	ldi	r25, 0x00	; 0
     aee:	05 c0       	rjmp	.+10     	; 0xafa <_ZN11Serial_Port9UART_initEii+0x4c>
     af0:	82 e2       	ldi	r24, 0x22	; 34
     af2:	90 e0       	ldi	r25, 0x00	; 0
     af4:	02 c0       	rjmp	.+4      	; 0xafa <_ZN11Serial_Port9UART_initEii+0x4c>
     af6:	87 e6       	ldi	r24, 0x67	; 103
     af8:	90 e0       	ldi	r25, 0x00	; 0
     afa:	61 15       	cp	r22, r1
     afc:	71 05       	cpc	r23, r1
     afe:	21 f0       	breq	.+8      	; 0xb08 <_ZN11Serial_Port9UART_initEii+0x5a>
     b00:	61 30       	cpi	r22, 0x01	; 1
     b02:	71 05       	cpc	r23, r1
     b04:	79 f0       	breq	.+30     	; 0xb24 <_ZN11Serial_Port9UART_initEii+0x76>
     b06:	08 95       	ret
     b08:	90 93 c5 00 	sts	0x00C5, r25	; 0x8000c5 <__TEXT_REGION_LENGTH__+0x7e00c5>
     b0c:	80 93 c4 00 	sts	0x00C4, r24	; 0x8000c4 <__TEXT_REGION_LENGTH__+0x7e00c4>
     b10:	82 e0       	ldi	r24, 0x02	; 2
     b12:	80 93 c0 00 	sts	0x00C0, r24	; 0x8000c0 <__TEXT_REGION_LENGTH__+0x7e00c0>
     b16:	86 e0       	ldi	r24, 0x06	; 6
     b18:	80 93 c2 00 	sts	0x00C2, r24	; 0x8000c2 <__TEXT_REGION_LENGTH__+0x7e00c2>
     b1c:	88 e1       	ldi	r24, 0x18	; 24
     b1e:	80 93 c1 00 	sts	0x00C1, r24	; 0x8000c1 <__TEXT_REGION_LENGTH__+0x7e00c1>
     b22:	08 95       	ret
     b24:	90 93 cd 00 	sts	0x00CD, r25	; 0x8000cd <__TEXT_REGION_LENGTH__+0x7e00cd>
     b28:	80 93 cc 00 	sts	0x00CC, r24	; 0x8000cc <__TEXT_REGION_LENGTH__+0x7e00cc>
     b2c:	82 e0       	ldi	r24, 0x02	; 2
     b2e:	80 93 c8 00 	sts	0x00C8, r24	; 0x8000c8 <__TEXT_REGION_LENGTH__+0x7e00c8>
     b32:	86 e0       	ldi	r24, 0x06	; 6
     b34:	80 93 ca 00 	sts	0x00CA, r24	; 0x8000ca <__TEXT_REGION_LENGTH__+0x7e00ca>
     b38:	88 e1       	ldi	r24, 0x18	; 24
     b3a:	80 93 c9 00 	sts	0x00C9, r24	; 0x8000c9 <__TEXT_REGION_LENGTH__+0x7e00c9>
     b3e:	08 95       	ret

00000b40 <_ZN11Serial_Port4InitEiii>:
     b40:	cf 92       	push	r12
     b42:	df 92       	push	r13
     b44:	ef 92       	push	r14
     b46:	ff 92       	push	r15
     b48:	0f 93       	push	r16
     b4a:	1f 93       	push	r17
     b4c:	cf 93       	push	r28
     b4e:	df 93       	push	r29
     b50:	ec 01       	movw	r28, r24
     b52:	8b 01       	movw	r16, r22
     b54:	6a 01       	movw	r12, r20
     b56:	79 01       	movw	r14, r18
     b58:	79 8b       	std	Y+17, r23	; 0x11
     b5a:	68 8b       	std	Y+16, r22	; 0x10
     b5c:	b9 01       	movw	r22, r18
     b5e:	ff d0       	rcall	.+510    	; 0xd5e <_ZN4CBox9CBox_InitEi>
     b60:	b7 01       	movw	r22, r14
     b62:	ce 01       	movw	r24, r28
     b64:	08 96       	adiw	r24, 0x08	; 8
     b66:	fb d0       	rcall	.+502    	; 0xd5e <_ZN4CBox9CBox_InitEi>
     b68:	a6 01       	movw	r20, r12
     b6a:	b8 01       	movw	r22, r16
     b6c:	ce 01       	movw	r24, r28
     b6e:	9f df       	rcall	.-194    	; 0xaae <_ZN11Serial_Port9UART_initEii>
     b70:	df 91       	pop	r29
     b72:	cf 91       	pop	r28
     b74:	1f 91       	pop	r17
     b76:	0f 91       	pop	r16
     b78:	ff 90       	pop	r15
     b7a:	ef 90       	pop	r14
     b7c:	df 90       	pop	r13
     b7e:	cf 90       	pop	r12
     b80:	08 95       	ret

00000b82 <_ZN11Serial_Port8Tx_CheckEv>:
     b82:	0f 93       	push	r16
     b84:	1f 93       	push	r17
     b86:	cf 93       	push	r28
     b88:	df 93       	push	r29
     b8a:	ec 01       	movw	r28, r24
     b8c:	8c 01       	movw	r16, r24
     b8e:	08 5f       	subi	r16, 0xF8	; 248
     b90:	1f 4f       	sbci	r17, 0xFF	; 255
     b92:	c8 01       	movw	r24, r16
     b94:	07 d1       	rcall	.+526    	; 0xda4 <_ZN4CBox5ReadyEv>
     b96:	88 23       	and	r24, r24
     b98:	c1 f0       	breq	.+48     	; 0xbca <_ZN11Serial_Port8Tx_CheckEv+0x48>
     b9a:	88 89       	ldd	r24, Y+16	; 0x10
     b9c:	99 89       	ldd	r25, Y+17	; 0x11
     b9e:	00 97       	sbiw	r24, 0x00	; 0
     ba0:	19 f0       	breq	.+6      	; 0xba8 <_ZN11Serial_Port8Tx_CheckEv+0x26>
     ba2:	01 97       	sbiw	r24, 0x01	; 1
     ba4:	51 f0       	breq	.+20     	; 0xbba <_ZN11Serial_Port8Tx_CheckEv+0x38>
     ba6:	11 c0       	rjmp	.+34     	; 0xbca <_ZN11Serial_Port8Tx_CheckEv+0x48>
     ba8:	80 91 c0 00 	lds	r24, 0x00C0	; 0x8000c0 <__TEXT_REGION_LENGTH__+0x7e00c0>
     bac:	85 ff       	sbrs	r24, 5
     bae:	0d c0       	rjmp	.+26     	; 0xbca <_ZN11Serial_Port8Tx_CheckEv+0x48>
     bb0:	c8 01       	movw	r24, r16
     bb2:	1c d1       	rcall	.+568    	; 0xdec <_ZN4CBox8Get_CharEv>
     bb4:	80 93 c6 00 	sts	0x00C6, r24	; 0x8000c6 <__TEXT_REGION_LENGTH__+0x7e00c6>
     bb8:	08 c0       	rjmp	.+16     	; 0xbca <_ZN11Serial_Port8Tx_CheckEv+0x48>
     bba:	80 91 c8 00 	lds	r24, 0x00C8	; 0x8000c8 <__TEXT_REGION_LENGTH__+0x7e00c8>
     bbe:	85 ff       	sbrs	r24, 5
     bc0:	04 c0       	rjmp	.+8      	; 0xbca <_ZN11Serial_Port8Tx_CheckEv+0x48>
     bc2:	c8 01       	movw	r24, r16
     bc4:	13 d1       	rcall	.+550    	; 0xdec <_ZN4CBox8Get_CharEv>
     bc6:	80 93 ce 00 	sts	0x00CE, r24	; 0x8000ce <__TEXT_REGION_LENGTH__+0x7e00ce>
     bca:	df 91       	pop	r29
     bcc:	cf 91       	pop	r28
     bce:	1f 91       	pop	r17
     bd0:	0f 91       	pop	r16
     bd2:	08 95       	ret

00000bd4 <_ZN11Serial_Port8Rx_CheckEv>:
     bd4:	fc 01       	movw	r30, r24
     bd6:	20 89       	ldd	r18, Z+16	; 0x10
     bd8:	31 89       	ldd	r19, Z+17	; 0x11
     bda:	21 15       	cp	r18, r1
     bdc:	31 05       	cpc	r19, r1
     bde:	21 f0       	breq	.+8      	; 0xbe8 <_ZN11Serial_Port8Rx_CheckEv+0x14>
     be0:	21 30       	cpi	r18, 0x01	; 1
     be2:	31 05       	cpc	r19, r1
     be4:	49 f0       	breq	.+18     	; 0xbf8 <_ZN11Serial_Port8Rx_CheckEv+0x24>
     be6:	08 95       	ret
     be8:	20 91 c0 00 	lds	r18, 0x00C0	; 0x8000c0 <__TEXT_REGION_LENGTH__+0x7e00c0>
     bec:	22 23       	and	r18, r18
     bee:	5c f4       	brge	.+22     	; 0xc06 <_ZN11Serial_Port8Rx_CheckEv+0x32>
     bf0:	60 91 c6 00 	lds	r22, 0x00C6	; 0x8000c6 <__TEXT_REGION_LENGTH__+0x7e00c6>
     bf4:	e2 c0       	rjmp	.+452    	; 0xdba <_ZN4CBox8Put_CharEc>
     bf6:	08 95       	ret
     bf8:	20 91 c8 00 	lds	r18, 0x00C8	; 0x8000c8 <__TEXT_REGION_LENGTH__+0x7e00c8>
     bfc:	22 23       	and	r18, r18
     bfe:	1c f4       	brge	.+6      	; 0xc06 <_ZN11Serial_Port8Rx_CheckEv+0x32>
     c00:	60 91 ce 00 	lds	r22, 0x00CE	; 0x8000ce <__TEXT_REGION_LENGTH__+0x7e00ce>
     c04:	da c0       	rjmp	.+436    	; 0xdba <_ZN4CBox8Put_CharEc>
     c06:	08 95       	ret

00000c08 <_ZN11Serial_Port4SendEc>:
     c08:	08 96       	adiw	r24, 0x08	; 8
     c0a:	d7 c0       	rjmp	.+430    	; 0xdba <_ZN4CBox8Put_CharEc>
     c0c:	08 95       	ret

00000c0e <_ZN11Serial_Port4SendEPc>:
     c0e:	0f 93       	push	r16
     c10:	1f 93       	push	r17
     c12:	cf 93       	push	r28
     c14:	df 93       	push	r29
     c16:	eb 01       	movw	r28, r22
     c18:	68 81       	ld	r22, Y
     c1a:	66 23       	and	r22, r22
     c1c:	49 f0       	breq	.+18     	; 0xc30 <_ZN11Serial_Port4SendEPc+0x22>
     c1e:	21 96       	adiw	r28, 0x01	; 1
     c20:	8c 01       	movw	r16, r24
     c22:	08 5f       	subi	r16, 0xF8	; 248
     c24:	1f 4f       	sbci	r17, 0xFF	; 255
     c26:	c8 01       	movw	r24, r16
     c28:	c8 d0       	rcall	.+400    	; 0xdba <_ZN4CBox8Put_CharEc>
     c2a:	69 91       	ld	r22, Y+
     c2c:	61 11       	cpse	r22, r1
     c2e:	fb cf       	rjmp	.-10     	; 0xc26 <_ZN11Serial_Port4SendEPc+0x18>
     c30:	df 91       	pop	r29
     c32:	cf 91       	pop	r28
     c34:	1f 91       	pop	r17
     c36:	0f 91       	pop	r16
     c38:	08 95       	ret

00000c3a <_ZN11Serial_Port8Get_CharEv>:
     c3a:	cf 93       	push	r28
     c3c:	df 93       	push	r29
     c3e:	ec 01       	movw	r28, r24
     c40:	b1 d0       	rcall	.+354    	; 0xda4 <_ZN4CBox5ReadyEv>
     c42:	88 23       	and	r24, r24
     c44:	19 f0       	breq	.+6      	; 0xc4c <_ZN11Serial_Port8Get_CharEv+0x12>
     c46:	ce 01       	movw	r24, r28
     c48:	d1 d0       	rcall	.+418    	; 0xdec <_ZN4CBox8Get_CharEv>
     c4a:	01 c0       	rjmp	.+2      	; 0xc4e <_ZN11Serial_Port8Get_CharEv+0x14>
     c4c:	80 e0       	ldi	r24, 0x00	; 0
     c4e:	df 91       	pop	r29
     c50:	cf 91       	pop	r28
     c52:	08 95       	ret

00000c54 <_ZN20Pulse_Wave_Modulator4InitEv>:
     c54:	83 ec       	ldi	r24, 0xC3	; 195
     c56:	80 93 80 00 	sts	0x0080, r24	; 0x800080 <__TEXT_REGION_LENGTH__+0x7e0080>
     c5a:	8b e0       	ldi	r24, 0x0B	; 11
     c5c:	80 93 81 00 	sts	0x0081, r24	; 0x800081 <__TEXT_REGION_LENGTH__+0x7e0081>
     c60:	08 95       	ret

00000c62 <_ZN20Pulse_Wave_Modulator3SetEi>:
     c62:	60 95       	com	r22
     c64:	70 95       	com	r23
     c66:	73 70       	andi	r23, 0x03	; 3
     c68:	87 2f       	mov	r24, r23
     c6a:	83 70       	andi	r24, 0x03	; 3
     c6c:	80 93 89 00 	sts	0x0089, r24	; 0x800089 <__TEXT_REGION_LENGTH__+0x7e0089>
     c70:	60 93 88 00 	sts	0x0088, r22	; 0x800088 <__TEXT_REGION_LENGTH__+0x7e0088>
     c74:	08 95       	ret

00000c76 <_ZN10Rho_Output4InitEv>:
     c76:	84 ef       	ldi	r24, 0xF4	; 244
     c78:	91 e0       	ldi	r25, 0x01	; 1
     c7a:	90 93 ad 03 	sts	0x03AD, r25	; 0x8003ad <_ZL10RhoA_Count+0x1>
     c7e:	80 93 ac 03 	sts	0x03AC, r24	; 0x8003ac <_ZL10RhoA_Count>
     c82:	80 e0       	ldi	r24, 0x00	; 0
     c84:	90 e0       	ldi	r25, 0x00	; 0
     c86:	a0 e8       	ldi	r26, 0x80	; 128
     c88:	bf e3       	ldi	r27, 0x3F	; 63
     c8a:	80 93 a8 03 	sts	0x03A8, r24	; 0x8003a8 <_ZL9RhoA_Freq>
     c8e:	90 93 a9 03 	sts	0x03A9, r25	; 0x8003a9 <_ZL9RhoA_Freq+0x1>
     c92:	a0 93 aa 03 	sts	0x03AA, r26	; 0x8003aa <_ZL9RhoA_Freq+0x2>
     c96:	b0 93 ab 03 	sts	0x03AB, r27	; 0x8003ab <_ZL9RhoA_Freq+0x3>
     c9a:	10 92 a7 03 	sts	0x03A7, r1	; 0x8003a7 <_ZL8RhoA_Out>
     c9e:	82 e1       	ldi	r24, 0x12	; 18
     ca0:	80 93 b0 00 	sts	0x00B0, r24	; 0x8000b0 <__TEXT_REGION_LENGTH__+0x7e00b0>
     ca4:	85 e0       	ldi	r24, 0x05	; 5
     ca6:	80 93 b1 00 	sts	0x00B1, r24	; 0x8000b1 <__TEXT_REGION_LENGTH__+0x7e00b1>
     caa:	8f e7       	ldi	r24, 0x7F	; 127
     cac:	80 93 b4 00 	sts	0x00B4, r24	; 0x8000b4 <__TEXT_REGION_LENGTH__+0x7e00b4>
     cb0:	80 93 b3 00 	sts	0x00B3, r24	; 0x8000b3 <__TEXT_REGION_LENGTH__+0x7e00b3>
     cb4:	08 95       	ret

00000cb6 <_ZN10Rho_Output4RhoAEb>:
 //return RhoB_Freq;
 //}
 //----------------------------------
 void Rho_Output::RhoA (bool A)
    {
    if (A) PORTD |= 0x10;
     cb6:	88 23       	and	r24, r24
     cb8:	11 f0       	breq	.+4      	; 0xcbe <_ZN10Rho_Output4RhoAEb+0x8>
     cba:	5c 9a       	sbi	0x0b, 4	; 11
     cbc:	08 95       	ret
    else PORTD &= ~0x10;
     cbe:	5c 98       	cbi	0x0b, 4	; 11
     cc0:	08 95       	ret

00000cc2 <_ZN10Rho_Output4TestEb>:
    {
    //RhoA_Count -= 1;
    //if (RhoA_Count == 0)
    //{
    
    RhoA (level);          // This sets the output
     cc2:	f9 cf       	rjmp	.-14     	; 0xcb6 <_ZN10Rho_Output4RhoAEb>
     cc4:	08 95       	ret

00000cc6 <_ZN7CSensorC1Ev>:
      double ADC_Counts;
         
      ADC_Counts    = (double) raw;
      UnCal_Value   = ADC_Counts * Gain;
      Current_Value = UnCal_Value + Offset;
      };
     cc6:	08 95       	ret

00000cc8 <_ZN7CSensorC1E10Probe_Typeddddd>:
     cc8:	af 92       	push	r10
     cca:	bf 92       	push	r11
     ccc:	cf 92       	push	r12
     cce:	df 92       	push	r13
     cd0:	ef 92       	push	r14
     cd2:	ff 92       	push	r15
     cd4:	0f 93       	push	r16
     cd6:	1f 93       	push	r17
     cd8:	cf 93       	push	r28
     cda:	df 93       	push	r29
     cdc:	cd b7       	in	r28, 0x3d	; 61
     cde:	de b7       	in	r29, 0x3e	; 62
     ce0:	fc 01       	movw	r30, r24
     ce2:	60 83       	st	Z, r22
     ce4:	25 8b       	std	Z+21, r18	; 0x15
     ce6:	36 8b       	std	Z+22, r19	; 0x16
     ce8:	47 8b       	std	Z+23, r20	; 0x17
     cea:	50 8f       	std	Z+24, r21	; 0x18
     cec:	e1 8e       	std	Z+25, r14	; 0x19
     cee:	f2 8e       	std	Z+26, r15	; 0x1a
     cf0:	03 8f       	std	Z+27, r16	; 0x1b
     cf2:	14 8f       	std	Z+28, r17	; 0x1c
     cf4:	a1 86       	std	Z+9, r10	; 0x09
     cf6:	b2 86       	std	Z+10, r11	; 0x0a
     cf8:	c3 86       	std	Z+11, r12	; 0x0b
     cfa:	d4 86       	std	Z+12, r13	; 0x0c
     cfc:	8d 85       	ldd	r24, Y+13	; 0x0d
     cfe:	9e 85       	ldd	r25, Y+14	; 0x0e
     d00:	af 85       	ldd	r26, Y+15	; 0x0f
     d02:	b8 89       	ldd	r27, Y+16	; 0x10
     d04:	85 87       	std	Z+13, r24	; 0x0d
     d06:	96 87       	std	Z+14, r25	; 0x0e
     d08:	a7 87       	std	Z+15, r26	; 0x0f
     d0a:	b0 8b       	std	Z+16, r27	; 0x10
     d0c:	89 89       	ldd	r24, Y+17	; 0x11
     d0e:	9a 89       	ldd	r25, Y+18	; 0x12
     d10:	ab 89       	ldd	r26, Y+19	; 0x13
     d12:	bc 89       	ldd	r27, Y+20	; 0x14
     d14:	81 8b       	std	Z+17, r24	; 0x11
     d16:	92 8b       	std	Z+18, r25	; 0x12
     d18:	a3 8b       	std	Z+19, r26	; 0x13
     d1a:	b4 8b       	std	Z+20, r27	; 0x14
     d1c:	df 91       	pop	r29
     d1e:	cf 91       	pop	r28
     d20:	1f 91       	pop	r17
     d22:	0f 91       	pop	r16
     d24:	ff 90       	pop	r15
     d26:	ef 90       	pop	r14
     d28:	df 90       	pop	r13
     d2a:	cf 90       	pop	r12
     d2c:	bf 90       	pop	r11
     d2e:	af 90       	pop	r10
     d30:	08 95       	ret

00000d32 <_ZN7CSensor7CurrentEv>:
      
   double CSensor::Current (void) {return Current_Value;}
     d32:	fc 01       	movw	r30, r24
     d34:	61 81       	ldd	r22, Z+1	; 0x01
     d36:	72 81       	ldd	r23, Z+2	; 0x02
     d38:	83 81       	ldd	r24, Z+3	; 0x03
     d3a:	94 81       	ldd	r25, Z+4	; 0x04
     d3c:	08 95       	ret

00000d3e <_ZN7SPI_BUS4InitEv>:
   #define SPI_DELAY_US 100.0

   
   void SPI_BUS::Init (void)
      {
      DDRB  |= 0xb0;                   // Set MOSI and SCK and SS output (was 0x07) VI:84
     d3e:	84 b1       	in	r24, 0x04	; 4
     d40:	80 6b       	ori	r24, 0xB0	; 176
     d42:	84 b9       	out	0x04, r24	; 4
                                       // Bit 0 is our local busy
      //PORTB |= 0x01;                   // Set done flag SS high?         (was 01)

      PORTB |= 0x10;                   // Set PLUP until hardware fixed
     d44:	2c 9a       	sbi	0x05, 4	; 5
      PORTB &= ~0x01;            // Clear ready
     d46:	28 98       	cbi	0x05, 0	; 5
      PRR0 = 0;                  // Power reduction Bit 0x04 in partic p66
     d48:	10 92 64 00 	sts	0x0064, r1	; 0x800064 <__TEXT_REGION_LENGTH__+0x7e0064>
      //// Enable SPI, Master, set clock rate fck/128
      SPCR = 0x53;    // (1 << SPE) | (1 << MSTR) | (1 << SPR1) | (1 << SPR0);  //spi mode 0, 62kHz
     d4c:	83 e5       	ldi	r24, 0x53	; 83
     d4e:	8c bd       	out	0x2c, r24	; 44
      //SPCR = 0x5f; // NC
//
      ////SPCR =  (1 << SPE) | (1 << MSTR) | (1 << SPR1) | (1 << SPR0) | (1 << CPOL);  //spi mode 2
      ////SPCR =  (1 << SPE) | (1 << MSTR) | (1 << SPR1);   // Enable SPI, Master, set clock rate fck/64    
      ////SPCR =  (1 << SPE) | (1 << MSTR) | (1 << SPR0);   // Enable SPI, Master, set clock rate fck/16
      SPSR = 0x00;            // No 2x clock
     d50:	1d bc       	out	0x2d, r1	; 45
     d52:	08 95       	ret

00000d54 <_ZN4CBoxD1Ev>:
//=======================
   
     
   CBox::~CBox ( )
      {
      free (buffer); 
     d54:	fc 01       	movw	r30, r24
     d56:	80 81       	ld	r24, Z
     d58:	91 81       	ldd	r25, Z+1	; 0x01
     d5a:	85 c2       	rjmp	.+1290   	; 0x1266 <free>
     d5c:	08 95       	ret

00000d5e <_ZN4CBox9CBox_InitEi>:
      }

   void CBox::CBox_Init (int b_size)
      {
     d5e:	0f 93       	push	r16
     d60:	1f 93       	push	r17
     d62:	cf 93       	push	r28
     d64:	df 93       	push	r29
     d66:	ec 01       	movw	r28, r24
     d68:	8b 01       	movw	r16, r22
      int i;
      
      buffer = (char *) malloc (b_size);
     d6a:	cb 01       	movw	r24, r22
     d6c:	e4 d1       	rcall	.+968    	; 0x1136 <malloc>
     d6e:	99 83       	std	Y+1, r25	; 0x01
     d70:	88 83       	st	Y, r24
      buffer_size = b_size; 
     d72:	1b 83       	std	Y+3, r17	; 0x03
     d74:	0a 83       	std	Y+2, r16	; 0x02
      for (i = 0; i < b_size; i++)
     d76:	10 16       	cp	r1, r16
     d78:	11 06       	cpc	r1, r17
     d7a:	5c f4       	brge	.+22     	; 0xd92 <_ZN4CBox9CBox_InitEi+0x34>
     d7c:	80 e0       	ldi	r24, 0x00	; 0
     d7e:	90 e0       	ldi	r25, 0x00	; 0
         buffer [i] = 0;
     d80:	e8 81       	ld	r30, Y
     d82:	f9 81       	ldd	r31, Y+1	; 0x01
     d84:	e8 0f       	add	r30, r24
     d86:	f9 1f       	adc	r31, r25
     d88:	10 82       	st	Z, r1
      {
      int i;
      
      buffer = (char *) malloc (b_size);
      buffer_size = b_size; 
      for (i = 0; i < b_size; i++)
     d8a:	01 96       	adiw	r24, 0x01	; 1
     d8c:	08 17       	cp	r16, r24
     d8e:	19 07       	cpc	r17, r25
     d90:	b9 f7       	brne	.-18     	; 0xd80 <_ZN4CBox9CBox_InitEi+0x22>
         buffer [i] = 0;
      incounter = 0;
     d92:	1d 82       	std	Y+5, r1	; 0x05
     d94:	1c 82       	std	Y+4, r1	; 0x04
      outcounter = 0;
     d96:	1f 82       	std	Y+7, r1	; 0x07
     d98:	1e 82       	std	Y+6, r1	; 0x06
      }
     d9a:	df 91       	pop	r29
     d9c:	cf 91       	pop	r28
     d9e:	1f 91       	pop	r17
     da0:	0f 91       	pop	r16
     da2:	08 95       	ret

00000da4 <_ZN4CBox5ReadyEv>:
//
   bool CBox::Ready ( )                 // Check for messages in buffer
      {
     da4:	fc 01       	movw	r30, r24
     da6:	81 e0       	ldi	r24, 0x01	; 1
     da8:	44 81       	ldd	r20, Z+4	; 0x04
     daa:	55 81       	ldd	r21, Z+5	; 0x05
     dac:	26 81       	ldd	r18, Z+6	; 0x06
     dae:	37 81       	ldd	r19, Z+7	; 0x07
     db0:	42 17       	cp	r20, r18
     db2:	53 07       	cpc	r21, r19
     db4:	09 f4       	brne	.+2      	; 0xdb8 <_ZN4CBox5ReadyEv+0x14>
     db6:	80 e0       	ldi	r24, 0x00	; 0
      if (incounter == outcounter)
         return false;
      return true;
      }
     db8:	08 95       	ret

00000dba <_ZN4CBox8Put_CharEc>:

   int CBox::Put_Char (char ch)
      {
     dba:	fc 01       	movw	r30, r24
      incounter += 1;
     dbc:	84 81       	ldd	r24, Z+4	; 0x04
     dbe:	95 81       	ldd	r25, Z+5	; 0x05
     dc0:	01 96       	adiw	r24, 0x01	; 1
     dc2:	95 83       	std	Z+5, r25	; 0x05
     dc4:	84 83       	std	Z+4, r24	; 0x04
      if (incounter > buffer_size - 1) incounter = 0;
     dc6:	22 81       	ldd	r18, Z+2	; 0x02
     dc8:	33 81       	ldd	r19, Z+3	; 0x03
     dca:	21 50       	subi	r18, 0x01	; 1
     dcc:	31 09       	sbc	r19, r1
     dce:	28 17       	cp	r18, r24
     dd0:	39 07       	cpc	r19, r25
     dd2:	14 f4       	brge	.+4      	; 0xdd8 <_ZN4CBox8Put_CharEc+0x1e>
     dd4:	15 82       	std	Z+5, r1	; 0x05
     dd6:	14 82       	std	Z+4, r1	; 0x04
      buffer [incounter] =  ch;
     dd8:	a0 81       	ld	r26, Z
     dda:	b1 81       	ldd	r27, Z+1	; 0x01
     ddc:	84 81       	ldd	r24, Z+4	; 0x04
     dde:	95 81       	ldd	r25, Z+5	; 0x05
     de0:	a8 0f       	add	r26, r24
     de2:	b9 1f       	adc	r27, r25
     de4:	6c 93       	st	X, r22
      return incounter;                    //
      }
     de6:	84 81       	ldd	r24, Z+4	; 0x04
     de8:	95 81       	ldd	r25, Z+5	; 0x05
     dea:	08 95       	ret

00000dec <_ZN4CBox8Get_CharEv>:

   char CBox::Get_Char ( )
      {
     dec:	fc 01       	movw	r30, r24
      char ch;
      
      outcounter += 1;
     dee:	86 81       	ldd	r24, Z+6	; 0x06
     df0:	97 81       	ldd	r25, Z+7	; 0x07
     df2:	01 96       	adiw	r24, 0x01	; 1
     df4:	97 83       	std	Z+7, r25	; 0x07
     df6:	86 83       	std	Z+6, r24	; 0x06
      if (outcounter > buffer_size - 1) outcounter = 0; 
     df8:	22 81       	ldd	r18, Z+2	; 0x02
     dfa:	33 81       	ldd	r19, Z+3	; 0x03
     dfc:	21 50       	subi	r18, 0x01	; 1
     dfe:	31 09       	sbc	r19, r1
     e00:	28 17       	cp	r18, r24
     e02:	39 07       	cpc	r19, r25
     e04:	14 f4       	brge	.+4      	; 0xe0a <_ZN4CBox8Get_CharEv+0x1e>
     e06:	17 82       	std	Z+7, r1	; 0x07
     e08:	16 82       	std	Z+6, r1	; 0x06
      ch = buffer [outcounter];     
     e0a:	20 81       	ld	r18, Z
     e0c:	31 81       	ldd	r19, Z+1	; 0x01
     e0e:	86 81       	ldd	r24, Z+6	; 0x06
     e10:	97 81       	ldd	r25, Z+7	; 0x07
     e12:	f9 01       	movw	r30, r18
     e14:	e8 0f       	add	r30, r24
     e16:	f9 1f       	adc	r31, r25
      return ch;
      }
     e18:	80 81       	ld	r24, Z
     e1a:	08 95       	ret

00000e1c <__subsf3>:
     e1c:	50 58       	subi	r21, 0x80	; 128

00000e1e <__addsf3>:
     e1e:	bb 27       	eor	r27, r27
     e20:	aa 27       	eor	r26, r26
     e22:	0e d0       	rcall	.+28     	; 0xe40 <__addsf3x>
     e24:	e5 c0       	rjmp	.+458    	; 0xff0 <__fp_round>
     e26:	d6 d0       	rcall	.+428    	; 0xfd4 <__fp_pscA>
     e28:	30 f0       	brcs	.+12     	; 0xe36 <__addsf3+0x18>
     e2a:	db d0       	rcall	.+438    	; 0xfe2 <__fp_pscB>
     e2c:	20 f0       	brcs	.+8      	; 0xe36 <__addsf3+0x18>
     e2e:	31 f4       	brne	.+12     	; 0xe3c <__addsf3+0x1e>
     e30:	9f 3f       	cpi	r25, 0xFF	; 255
     e32:	11 f4       	brne	.+4      	; 0xe38 <__addsf3+0x1a>
     e34:	1e f4       	brtc	.+6      	; 0xe3c <__addsf3+0x1e>
     e36:	cb c0       	rjmp	.+406    	; 0xfce <__fp_nan>
     e38:	0e f4       	brtc	.+2      	; 0xe3c <__addsf3+0x1e>
     e3a:	e0 95       	com	r30
     e3c:	e7 fb       	bst	r30, 7
     e3e:	c1 c0       	rjmp	.+386    	; 0xfc2 <__fp_inf>

00000e40 <__addsf3x>:
     e40:	e9 2f       	mov	r30, r25
     e42:	e7 d0       	rcall	.+462    	; 0x1012 <__fp_split3>
     e44:	80 f3       	brcs	.-32     	; 0xe26 <__addsf3+0x8>
     e46:	ba 17       	cp	r27, r26
     e48:	62 07       	cpc	r22, r18
     e4a:	73 07       	cpc	r23, r19
     e4c:	84 07       	cpc	r24, r20
     e4e:	95 07       	cpc	r25, r21
     e50:	18 f0       	brcs	.+6      	; 0xe58 <__addsf3x+0x18>
     e52:	71 f4       	brne	.+28     	; 0xe70 <__addsf3x+0x30>
     e54:	9e f5       	brtc	.+102    	; 0xebc <__addsf3x+0x7c>
     e56:	ff c0       	rjmp	.+510    	; 0x1056 <__fp_zero>
     e58:	0e f4       	brtc	.+2      	; 0xe5c <__addsf3x+0x1c>
     e5a:	e0 95       	com	r30
     e5c:	0b 2e       	mov	r0, r27
     e5e:	ba 2f       	mov	r27, r26
     e60:	a0 2d       	mov	r26, r0
     e62:	0b 01       	movw	r0, r22
     e64:	b9 01       	movw	r22, r18
     e66:	90 01       	movw	r18, r0
     e68:	0c 01       	movw	r0, r24
     e6a:	ca 01       	movw	r24, r20
     e6c:	a0 01       	movw	r20, r0
     e6e:	11 24       	eor	r1, r1
     e70:	ff 27       	eor	r31, r31
     e72:	59 1b       	sub	r21, r25
     e74:	99 f0       	breq	.+38     	; 0xe9c <__addsf3x+0x5c>
     e76:	59 3f       	cpi	r21, 0xF9	; 249
     e78:	50 f4       	brcc	.+20     	; 0xe8e <__addsf3x+0x4e>
     e7a:	50 3e       	cpi	r21, 0xE0	; 224
     e7c:	68 f1       	brcs	.+90     	; 0xed8 <__addsf3x+0x98>
     e7e:	1a 16       	cp	r1, r26
     e80:	f0 40       	sbci	r31, 0x00	; 0
     e82:	a2 2f       	mov	r26, r18
     e84:	23 2f       	mov	r18, r19
     e86:	34 2f       	mov	r19, r20
     e88:	44 27       	eor	r20, r20
     e8a:	58 5f       	subi	r21, 0xF8	; 248
     e8c:	f3 cf       	rjmp	.-26     	; 0xe74 <__addsf3x+0x34>
     e8e:	46 95       	lsr	r20
     e90:	37 95       	ror	r19
     e92:	27 95       	ror	r18
     e94:	a7 95       	ror	r26
     e96:	f0 40       	sbci	r31, 0x00	; 0
     e98:	53 95       	inc	r21
     e9a:	c9 f7       	brne	.-14     	; 0xe8e <__addsf3x+0x4e>
     e9c:	7e f4       	brtc	.+30     	; 0xebc <__addsf3x+0x7c>
     e9e:	1f 16       	cp	r1, r31
     ea0:	ba 0b       	sbc	r27, r26
     ea2:	62 0b       	sbc	r22, r18
     ea4:	73 0b       	sbc	r23, r19
     ea6:	84 0b       	sbc	r24, r20
     ea8:	ba f0       	brmi	.+46     	; 0xed8 <__addsf3x+0x98>
     eaa:	91 50       	subi	r25, 0x01	; 1
     eac:	a1 f0       	breq	.+40     	; 0xed6 <__addsf3x+0x96>
     eae:	ff 0f       	add	r31, r31
     eb0:	bb 1f       	adc	r27, r27
     eb2:	66 1f       	adc	r22, r22
     eb4:	77 1f       	adc	r23, r23
     eb6:	88 1f       	adc	r24, r24
     eb8:	c2 f7       	brpl	.-16     	; 0xeaa <__addsf3x+0x6a>
     eba:	0e c0       	rjmp	.+28     	; 0xed8 <__addsf3x+0x98>
     ebc:	ba 0f       	add	r27, r26
     ebe:	62 1f       	adc	r22, r18
     ec0:	73 1f       	adc	r23, r19
     ec2:	84 1f       	adc	r24, r20
     ec4:	48 f4       	brcc	.+18     	; 0xed8 <__addsf3x+0x98>
     ec6:	87 95       	ror	r24
     ec8:	77 95       	ror	r23
     eca:	67 95       	ror	r22
     ecc:	b7 95       	ror	r27
     ece:	f7 95       	ror	r31
     ed0:	9e 3f       	cpi	r25, 0xFE	; 254
     ed2:	08 f0       	brcs	.+2      	; 0xed6 <__addsf3x+0x96>
     ed4:	b3 cf       	rjmp	.-154    	; 0xe3c <__addsf3+0x1e>
     ed6:	93 95       	inc	r25
     ed8:	88 0f       	add	r24, r24
     eda:	08 f0       	brcs	.+2      	; 0xede <__addsf3x+0x9e>
     edc:	99 27       	eor	r25, r25
     ede:	ee 0f       	add	r30, r30
     ee0:	97 95       	ror	r25
     ee2:	87 95       	ror	r24
     ee4:	08 95       	ret

00000ee6 <__fixsfsi>:
     ee6:	04 d0       	rcall	.+8      	; 0xef0 <__fixunssfsi>
     ee8:	68 94       	set
     eea:	b1 11       	cpse	r27, r1
     eec:	b5 c0       	rjmp	.+362    	; 0x1058 <__fp_szero>
     eee:	08 95       	ret

00000ef0 <__fixunssfsi>:
     ef0:	98 d0       	rcall	.+304    	; 0x1022 <__fp_splitA>
     ef2:	88 f0       	brcs	.+34     	; 0xf16 <__fixunssfsi+0x26>
     ef4:	9f 57       	subi	r25, 0x7F	; 127
     ef6:	90 f0       	brcs	.+36     	; 0xf1c <__fixunssfsi+0x2c>
     ef8:	b9 2f       	mov	r27, r25
     efa:	99 27       	eor	r25, r25
     efc:	b7 51       	subi	r27, 0x17	; 23
     efe:	a0 f0       	brcs	.+40     	; 0xf28 <__fixunssfsi+0x38>
     f00:	d1 f0       	breq	.+52     	; 0xf36 <__fixunssfsi+0x46>
     f02:	66 0f       	add	r22, r22
     f04:	77 1f       	adc	r23, r23
     f06:	88 1f       	adc	r24, r24
     f08:	99 1f       	adc	r25, r25
     f0a:	1a f0       	brmi	.+6      	; 0xf12 <__fixunssfsi+0x22>
     f0c:	ba 95       	dec	r27
     f0e:	c9 f7       	brne	.-14     	; 0xf02 <__fixunssfsi+0x12>
     f10:	12 c0       	rjmp	.+36     	; 0xf36 <__fixunssfsi+0x46>
     f12:	b1 30       	cpi	r27, 0x01	; 1
     f14:	81 f0       	breq	.+32     	; 0xf36 <__fixunssfsi+0x46>
     f16:	9f d0       	rcall	.+318    	; 0x1056 <__fp_zero>
     f18:	b1 e0       	ldi	r27, 0x01	; 1
     f1a:	08 95       	ret
     f1c:	9c c0       	rjmp	.+312    	; 0x1056 <__fp_zero>
     f1e:	67 2f       	mov	r22, r23
     f20:	78 2f       	mov	r23, r24
     f22:	88 27       	eor	r24, r24
     f24:	b8 5f       	subi	r27, 0xF8	; 248
     f26:	39 f0       	breq	.+14     	; 0xf36 <__fixunssfsi+0x46>
     f28:	b9 3f       	cpi	r27, 0xF9	; 249
     f2a:	cc f3       	brlt	.-14     	; 0xf1e <__fixunssfsi+0x2e>
     f2c:	86 95       	lsr	r24
     f2e:	77 95       	ror	r23
     f30:	67 95       	ror	r22
     f32:	b3 95       	inc	r27
     f34:	d9 f7       	brne	.-10     	; 0xf2c <__fixunssfsi+0x3c>
     f36:	3e f4       	brtc	.+14     	; 0xf46 <__fixunssfsi+0x56>
     f38:	90 95       	com	r25
     f3a:	80 95       	com	r24
     f3c:	70 95       	com	r23
     f3e:	61 95       	neg	r22
     f40:	7f 4f       	sbci	r23, 0xFF	; 255
     f42:	8f 4f       	sbci	r24, 0xFF	; 255
     f44:	9f 4f       	sbci	r25, 0xFF	; 255
     f46:	08 95       	ret

00000f48 <__floatunsisf>:
     f48:	e8 94       	clt
     f4a:	09 c0       	rjmp	.+18     	; 0xf5e <__floatsisf+0x12>

00000f4c <__floatsisf>:
     f4c:	97 fb       	bst	r25, 7
     f4e:	3e f4       	brtc	.+14     	; 0xf5e <__floatsisf+0x12>
     f50:	90 95       	com	r25
     f52:	80 95       	com	r24
     f54:	70 95       	com	r23
     f56:	61 95       	neg	r22
     f58:	7f 4f       	sbci	r23, 0xFF	; 255
     f5a:	8f 4f       	sbci	r24, 0xFF	; 255
     f5c:	9f 4f       	sbci	r25, 0xFF	; 255
     f5e:	99 23       	and	r25, r25
     f60:	a9 f0       	breq	.+42     	; 0xf8c <__floatsisf+0x40>
     f62:	f9 2f       	mov	r31, r25
     f64:	96 e9       	ldi	r25, 0x96	; 150
     f66:	bb 27       	eor	r27, r27
     f68:	93 95       	inc	r25
     f6a:	f6 95       	lsr	r31
     f6c:	87 95       	ror	r24
     f6e:	77 95       	ror	r23
     f70:	67 95       	ror	r22
     f72:	b7 95       	ror	r27
     f74:	f1 11       	cpse	r31, r1
     f76:	f8 cf       	rjmp	.-16     	; 0xf68 <__floatsisf+0x1c>
     f78:	fa f4       	brpl	.+62     	; 0xfb8 <__floatsisf+0x6c>
     f7a:	bb 0f       	add	r27, r27
     f7c:	11 f4       	brne	.+4      	; 0xf82 <__floatsisf+0x36>
     f7e:	60 ff       	sbrs	r22, 0
     f80:	1b c0       	rjmp	.+54     	; 0xfb8 <__floatsisf+0x6c>
     f82:	6f 5f       	subi	r22, 0xFF	; 255
     f84:	7f 4f       	sbci	r23, 0xFF	; 255
     f86:	8f 4f       	sbci	r24, 0xFF	; 255
     f88:	9f 4f       	sbci	r25, 0xFF	; 255
     f8a:	16 c0       	rjmp	.+44     	; 0xfb8 <__floatsisf+0x6c>
     f8c:	88 23       	and	r24, r24
     f8e:	11 f0       	breq	.+4      	; 0xf94 <__floatsisf+0x48>
     f90:	96 e9       	ldi	r25, 0x96	; 150
     f92:	11 c0       	rjmp	.+34     	; 0xfb6 <__floatsisf+0x6a>
     f94:	77 23       	and	r23, r23
     f96:	21 f0       	breq	.+8      	; 0xfa0 <__floatsisf+0x54>
     f98:	9e e8       	ldi	r25, 0x8E	; 142
     f9a:	87 2f       	mov	r24, r23
     f9c:	76 2f       	mov	r23, r22
     f9e:	05 c0       	rjmp	.+10     	; 0xfaa <__floatsisf+0x5e>
     fa0:	66 23       	and	r22, r22
     fa2:	71 f0       	breq	.+28     	; 0xfc0 <__floatsisf+0x74>
     fa4:	96 e8       	ldi	r25, 0x86	; 134
     fa6:	86 2f       	mov	r24, r22
     fa8:	70 e0       	ldi	r23, 0x00	; 0
     faa:	60 e0       	ldi	r22, 0x00	; 0
     fac:	2a f0       	brmi	.+10     	; 0xfb8 <__floatsisf+0x6c>
     fae:	9a 95       	dec	r25
     fb0:	66 0f       	add	r22, r22
     fb2:	77 1f       	adc	r23, r23
     fb4:	88 1f       	adc	r24, r24
     fb6:	da f7       	brpl	.-10     	; 0xfae <__floatsisf+0x62>
     fb8:	88 0f       	add	r24, r24
     fba:	96 95       	lsr	r25
     fbc:	87 95       	ror	r24
     fbe:	97 f9       	bld	r25, 7
     fc0:	08 95       	ret

00000fc2 <__fp_inf>:
     fc2:	97 f9       	bld	r25, 7
     fc4:	9f 67       	ori	r25, 0x7F	; 127
     fc6:	80 e8       	ldi	r24, 0x80	; 128
     fc8:	70 e0       	ldi	r23, 0x00	; 0
     fca:	60 e0       	ldi	r22, 0x00	; 0
     fcc:	08 95       	ret

00000fce <__fp_nan>:
     fce:	9f ef       	ldi	r25, 0xFF	; 255
     fd0:	80 ec       	ldi	r24, 0xC0	; 192
     fd2:	08 95       	ret

00000fd4 <__fp_pscA>:
     fd4:	00 24       	eor	r0, r0
     fd6:	0a 94       	dec	r0
     fd8:	16 16       	cp	r1, r22
     fda:	17 06       	cpc	r1, r23
     fdc:	18 06       	cpc	r1, r24
     fde:	09 06       	cpc	r0, r25
     fe0:	08 95       	ret

00000fe2 <__fp_pscB>:
     fe2:	00 24       	eor	r0, r0
     fe4:	0a 94       	dec	r0
     fe6:	12 16       	cp	r1, r18
     fe8:	13 06       	cpc	r1, r19
     fea:	14 06       	cpc	r1, r20
     fec:	05 06       	cpc	r0, r21
     fee:	08 95       	ret

00000ff0 <__fp_round>:
     ff0:	09 2e       	mov	r0, r25
     ff2:	03 94       	inc	r0
     ff4:	00 0c       	add	r0, r0
     ff6:	11 f4       	brne	.+4      	; 0xffc <__fp_round+0xc>
     ff8:	88 23       	and	r24, r24
     ffa:	52 f0       	brmi	.+20     	; 0x1010 <__fp_round+0x20>
     ffc:	bb 0f       	add	r27, r27
     ffe:	40 f4       	brcc	.+16     	; 0x1010 <__fp_round+0x20>
    1000:	bf 2b       	or	r27, r31
    1002:	11 f4       	brne	.+4      	; 0x1008 <__fp_round+0x18>
    1004:	60 ff       	sbrs	r22, 0
    1006:	04 c0       	rjmp	.+8      	; 0x1010 <__fp_round+0x20>
    1008:	6f 5f       	subi	r22, 0xFF	; 255
    100a:	7f 4f       	sbci	r23, 0xFF	; 255
    100c:	8f 4f       	sbci	r24, 0xFF	; 255
    100e:	9f 4f       	sbci	r25, 0xFF	; 255
    1010:	08 95       	ret

00001012 <__fp_split3>:
    1012:	57 fd       	sbrc	r21, 7
    1014:	90 58       	subi	r25, 0x80	; 128
    1016:	44 0f       	add	r20, r20
    1018:	55 1f       	adc	r21, r21
    101a:	59 f0       	breq	.+22     	; 0x1032 <__fp_splitA+0x10>
    101c:	5f 3f       	cpi	r21, 0xFF	; 255
    101e:	71 f0       	breq	.+28     	; 0x103c <__fp_splitA+0x1a>
    1020:	47 95       	ror	r20

00001022 <__fp_splitA>:
    1022:	88 0f       	add	r24, r24
    1024:	97 fb       	bst	r25, 7
    1026:	99 1f       	adc	r25, r25
    1028:	61 f0       	breq	.+24     	; 0x1042 <__fp_splitA+0x20>
    102a:	9f 3f       	cpi	r25, 0xFF	; 255
    102c:	79 f0       	breq	.+30     	; 0x104c <__fp_splitA+0x2a>
    102e:	87 95       	ror	r24
    1030:	08 95       	ret
    1032:	12 16       	cp	r1, r18
    1034:	13 06       	cpc	r1, r19
    1036:	14 06       	cpc	r1, r20
    1038:	55 1f       	adc	r21, r21
    103a:	f2 cf       	rjmp	.-28     	; 0x1020 <__fp_split3+0xe>
    103c:	46 95       	lsr	r20
    103e:	f1 df       	rcall	.-30     	; 0x1022 <__fp_splitA>
    1040:	08 c0       	rjmp	.+16     	; 0x1052 <__fp_splitA+0x30>
    1042:	16 16       	cp	r1, r22
    1044:	17 06       	cpc	r1, r23
    1046:	18 06       	cpc	r1, r24
    1048:	99 1f       	adc	r25, r25
    104a:	f1 cf       	rjmp	.-30     	; 0x102e <__fp_splitA+0xc>
    104c:	86 95       	lsr	r24
    104e:	71 05       	cpc	r23, r1
    1050:	61 05       	cpc	r22, r1
    1052:	08 94       	sec
    1054:	08 95       	ret

00001056 <__fp_zero>:
    1056:	e8 94       	clt

00001058 <__fp_szero>:
    1058:	bb 27       	eor	r27, r27
    105a:	66 27       	eor	r22, r22
    105c:	77 27       	eor	r23, r23
    105e:	cb 01       	movw	r24, r22
    1060:	97 f9       	bld	r25, 7
    1062:	08 95       	ret

00001064 <__mulsf3>:
    1064:	0b d0       	rcall	.+22     	; 0x107c <__mulsf3x>
    1066:	c4 cf       	rjmp	.-120    	; 0xff0 <__fp_round>
    1068:	b5 df       	rcall	.-150    	; 0xfd4 <__fp_pscA>
    106a:	28 f0       	brcs	.+10     	; 0x1076 <__mulsf3+0x12>
    106c:	ba df       	rcall	.-140    	; 0xfe2 <__fp_pscB>
    106e:	18 f0       	brcs	.+6      	; 0x1076 <__mulsf3+0x12>
    1070:	95 23       	and	r25, r21
    1072:	09 f0       	breq	.+2      	; 0x1076 <__mulsf3+0x12>
    1074:	a6 cf       	rjmp	.-180    	; 0xfc2 <__fp_inf>
    1076:	ab cf       	rjmp	.-170    	; 0xfce <__fp_nan>
    1078:	11 24       	eor	r1, r1
    107a:	ee cf       	rjmp	.-36     	; 0x1058 <__fp_szero>

0000107c <__mulsf3x>:
    107c:	ca df       	rcall	.-108    	; 0x1012 <__fp_split3>
    107e:	a0 f3       	brcs	.-24     	; 0x1068 <__mulsf3+0x4>

00001080 <__mulsf3_pse>:
    1080:	95 9f       	mul	r25, r21
    1082:	d1 f3       	breq	.-12     	; 0x1078 <__mulsf3+0x14>
    1084:	95 0f       	add	r25, r21
    1086:	50 e0       	ldi	r21, 0x00	; 0
    1088:	55 1f       	adc	r21, r21
    108a:	62 9f       	mul	r22, r18
    108c:	f0 01       	movw	r30, r0
    108e:	72 9f       	mul	r23, r18
    1090:	bb 27       	eor	r27, r27
    1092:	f0 0d       	add	r31, r0
    1094:	b1 1d       	adc	r27, r1
    1096:	63 9f       	mul	r22, r19
    1098:	aa 27       	eor	r26, r26
    109a:	f0 0d       	add	r31, r0
    109c:	b1 1d       	adc	r27, r1
    109e:	aa 1f       	adc	r26, r26
    10a0:	64 9f       	mul	r22, r20
    10a2:	66 27       	eor	r22, r22
    10a4:	b0 0d       	add	r27, r0
    10a6:	a1 1d       	adc	r26, r1
    10a8:	66 1f       	adc	r22, r22
    10aa:	82 9f       	mul	r24, r18
    10ac:	22 27       	eor	r18, r18
    10ae:	b0 0d       	add	r27, r0
    10b0:	a1 1d       	adc	r26, r1
    10b2:	62 1f       	adc	r22, r18
    10b4:	73 9f       	mul	r23, r19
    10b6:	b0 0d       	add	r27, r0
    10b8:	a1 1d       	adc	r26, r1
    10ba:	62 1f       	adc	r22, r18
    10bc:	83 9f       	mul	r24, r19
    10be:	a0 0d       	add	r26, r0
    10c0:	61 1d       	adc	r22, r1
    10c2:	22 1f       	adc	r18, r18
    10c4:	74 9f       	mul	r23, r20
    10c6:	33 27       	eor	r19, r19
    10c8:	a0 0d       	add	r26, r0
    10ca:	61 1d       	adc	r22, r1
    10cc:	23 1f       	adc	r18, r19
    10ce:	84 9f       	mul	r24, r20
    10d0:	60 0d       	add	r22, r0
    10d2:	21 1d       	adc	r18, r1
    10d4:	82 2f       	mov	r24, r18
    10d6:	76 2f       	mov	r23, r22
    10d8:	6a 2f       	mov	r22, r26
    10da:	11 24       	eor	r1, r1
    10dc:	9f 57       	subi	r25, 0x7F	; 127
    10de:	50 40       	sbci	r21, 0x00	; 0
    10e0:	8a f0       	brmi	.+34     	; 0x1104 <__stack+0x5>
    10e2:	e1 f0       	breq	.+56     	; 0x111c <__stack+0x1d>
    10e4:	88 23       	and	r24, r24
    10e6:	4a f0       	brmi	.+18     	; 0x10fa <__mulsf3_pse+0x7a>
    10e8:	ee 0f       	add	r30, r30
    10ea:	ff 1f       	adc	r31, r31
    10ec:	bb 1f       	adc	r27, r27
    10ee:	66 1f       	adc	r22, r22
    10f0:	77 1f       	adc	r23, r23
    10f2:	88 1f       	adc	r24, r24
    10f4:	91 50       	subi	r25, 0x01	; 1
    10f6:	50 40       	sbci	r21, 0x00	; 0
    10f8:	a9 f7       	brne	.-22     	; 0x10e4 <__mulsf3_pse+0x64>
    10fa:	9e 3f       	cpi	r25, 0xFE	; 254
    10fc:	51 05       	cpc	r21, r1
    10fe:	70 f0       	brcs	.+28     	; 0x111c <__stack+0x1d>
    1100:	60 cf       	rjmp	.-320    	; 0xfc2 <__fp_inf>
    1102:	aa cf       	rjmp	.-172    	; 0x1058 <__fp_szero>
    1104:	5f 3f       	cpi	r21, 0xFF	; 255
    1106:	ec f3       	brlt	.-6      	; 0x1102 <__stack+0x3>
    1108:	98 3e       	cpi	r25, 0xE8	; 232
    110a:	dc f3       	brlt	.-10     	; 0x1102 <__stack+0x3>
    110c:	86 95       	lsr	r24
    110e:	77 95       	ror	r23
    1110:	67 95       	ror	r22
    1112:	b7 95       	ror	r27
    1114:	f7 95       	ror	r31
    1116:	e7 95       	ror	r30
    1118:	9f 5f       	subi	r25, 0xFF	; 255
    111a:	c1 f7       	brne	.-16     	; 0x110c <__stack+0xd>
    111c:	fe 2b       	or	r31, r30
    111e:	88 0f       	add	r24, r24
    1120:	91 1d       	adc	r25, r1
    1122:	96 95       	lsr	r25
    1124:	87 95       	ror	r24
    1126:	97 f9       	bld	r25, 7
    1128:	08 95       	ret

0000112a <__tablejump2__>:
    112a:	ee 0f       	add	r30, r30
    112c:	ff 1f       	adc	r31, r31
    112e:	05 90       	lpm	r0, Z+
    1130:	f4 91       	lpm	r31, Z
    1132:	e0 2d       	mov	r30, r0
    1134:	09 94       	ijmp

00001136 <malloc>:
    1136:	0f 93       	push	r16
    1138:	1f 93       	push	r17
    113a:	cf 93       	push	r28
    113c:	df 93       	push	r29
    113e:	82 30       	cpi	r24, 0x02	; 2
    1140:	91 05       	cpc	r25, r1
    1142:	10 f4       	brcc	.+4      	; 0x1148 <malloc+0x12>
    1144:	82 e0       	ldi	r24, 0x02	; 2
    1146:	90 e0       	ldi	r25, 0x00	; 0
    1148:	e0 91 b4 03 	lds	r30, 0x03B4	; 0x8003b4 <__flp>
    114c:	f0 91 b5 03 	lds	r31, 0x03B5	; 0x8003b5 <__flp+0x1>
    1150:	20 e0       	ldi	r18, 0x00	; 0
    1152:	30 e0       	ldi	r19, 0x00	; 0
    1154:	a0 e0       	ldi	r26, 0x00	; 0
    1156:	b0 e0       	ldi	r27, 0x00	; 0
    1158:	30 97       	sbiw	r30, 0x00	; 0
    115a:	19 f1       	breq	.+70     	; 0x11a2 <malloc+0x6c>
    115c:	40 81       	ld	r20, Z
    115e:	51 81       	ldd	r21, Z+1	; 0x01
    1160:	02 81       	ldd	r16, Z+2	; 0x02
    1162:	13 81       	ldd	r17, Z+3	; 0x03
    1164:	48 17       	cp	r20, r24
    1166:	59 07       	cpc	r21, r25
    1168:	c8 f0       	brcs	.+50     	; 0x119c <malloc+0x66>
    116a:	84 17       	cp	r24, r20
    116c:	95 07       	cpc	r25, r21
    116e:	69 f4       	brne	.+26     	; 0x118a <malloc+0x54>
    1170:	10 97       	sbiw	r26, 0x00	; 0
    1172:	31 f0       	breq	.+12     	; 0x1180 <malloc+0x4a>
    1174:	12 96       	adiw	r26, 0x02	; 2
    1176:	0c 93       	st	X, r16
    1178:	12 97       	sbiw	r26, 0x02	; 2
    117a:	13 96       	adiw	r26, 0x03	; 3
    117c:	1c 93       	st	X, r17
    117e:	27 c0       	rjmp	.+78     	; 0x11ce <malloc+0x98>
    1180:	00 93 b4 03 	sts	0x03B4, r16	; 0x8003b4 <__flp>
    1184:	10 93 b5 03 	sts	0x03B5, r17	; 0x8003b5 <__flp+0x1>
    1188:	22 c0       	rjmp	.+68     	; 0x11ce <malloc+0x98>
    118a:	21 15       	cp	r18, r1
    118c:	31 05       	cpc	r19, r1
    118e:	19 f0       	breq	.+6      	; 0x1196 <malloc+0x60>
    1190:	42 17       	cp	r20, r18
    1192:	53 07       	cpc	r21, r19
    1194:	18 f4       	brcc	.+6      	; 0x119c <malloc+0x66>
    1196:	9a 01       	movw	r18, r20
    1198:	bd 01       	movw	r22, r26
    119a:	ef 01       	movw	r28, r30
    119c:	df 01       	movw	r26, r30
    119e:	f8 01       	movw	r30, r16
    11a0:	db cf       	rjmp	.-74     	; 0x1158 <malloc+0x22>
    11a2:	21 15       	cp	r18, r1
    11a4:	31 05       	cpc	r19, r1
    11a6:	f9 f0       	breq	.+62     	; 0x11e6 <malloc+0xb0>
    11a8:	28 1b       	sub	r18, r24
    11aa:	39 0b       	sbc	r19, r25
    11ac:	24 30       	cpi	r18, 0x04	; 4
    11ae:	31 05       	cpc	r19, r1
    11b0:	80 f4       	brcc	.+32     	; 0x11d2 <malloc+0x9c>
    11b2:	8a 81       	ldd	r24, Y+2	; 0x02
    11b4:	9b 81       	ldd	r25, Y+3	; 0x03
    11b6:	61 15       	cp	r22, r1
    11b8:	71 05       	cpc	r23, r1
    11ba:	21 f0       	breq	.+8      	; 0x11c4 <malloc+0x8e>
    11bc:	fb 01       	movw	r30, r22
    11be:	93 83       	std	Z+3, r25	; 0x03
    11c0:	82 83       	std	Z+2, r24	; 0x02
    11c2:	04 c0       	rjmp	.+8      	; 0x11cc <malloc+0x96>
    11c4:	90 93 b5 03 	sts	0x03B5, r25	; 0x8003b5 <__flp+0x1>
    11c8:	80 93 b4 03 	sts	0x03B4, r24	; 0x8003b4 <__flp>
    11cc:	fe 01       	movw	r30, r28
    11ce:	32 96       	adiw	r30, 0x02	; 2
    11d0:	44 c0       	rjmp	.+136    	; 0x125a <malloc+0x124>
    11d2:	fe 01       	movw	r30, r28
    11d4:	e2 0f       	add	r30, r18
    11d6:	f3 1f       	adc	r31, r19
    11d8:	81 93       	st	Z+, r24
    11da:	91 93       	st	Z+, r25
    11dc:	22 50       	subi	r18, 0x02	; 2
    11de:	31 09       	sbc	r19, r1
    11e0:	39 83       	std	Y+1, r19	; 0x01
    11e2:	28 83       	st	Y, r18
    11e4:	3a c0       	rjmp	.+116    	; 0x125a <malloc+0x124>
    11e6:	20 91 b2 03 	lds	r18, 0x03B2	; 0x8003b2 <__brkval>
    11ea:	30 91 b3 03 	lds	r19, 0x03B3	; 0x8003b3 <__brkval+0x1>
    11ee:	23 2b       	or	r18, r19
    11f0:	41 f4       	brne	.+16     	; 0x1202 <malloc+0xcc>
    11f2:	20 91 02 01 	lds	r18, 0x0102	; 0x800102 <__malloc_heap_start>
    11f6:	30 91 03 01 	lds	r19, 0x0103	; 0x800103 <__malloc_heap_start+0x1>
    11fa:	30 93 b3 03 	sts	0x03B3, r19	; 0x8003b3 <__brkval+0x1>
    11fe:	20 93 b2 03 	sts	0x03B2, r18	; 0x8003b2 <__brkval>
    1202:	20 91 00 01 	lds	r18, 0x0100	; 0x800100 <__data_start>
    1206:	30 91 01 01 	lds	r19, 0x0101	; 0x800101 <__data_start+0x1>
    120a:	21 15       	cp	r18, r1
    120c:	31 05       	cpc	r19, r1
    120e:	41 f4       	brne	.+16     	; 0x1220 <malloc+0xea>
    1210:	2d b7       	in	r18, 0x3d	; 61
    1212:	3e b7       	in	r19, 0x3e	; 62
    1214:	40 91 04 01 	lds	r20, 0x0104	; 0x800104 <__malloc_margin>
    1218:	50 91 05 01 	lds	r21, 0x0105	; 0x800105 <__malloc_margin+0x1>
    121c:	24 1b       	sub	r18, r20
    121e:	35 0b       	sbc	r19, r21
    1220:	e0 91 b2 03 	lds	r30, 0x03B2	; 0x8003b2 <__brkval>
    1224:	f0 91 b3 03 	lds	r31, 0x03B3	; 0x8003b3 <__brkval+0x1>
    1228:	e2 17       	cp	r30, r18
    122a:	f3 07       	cpc	r31, r19
    122c:	a0 f4       	brcc	.+40     	; 0x1256 <malloc+0x120>
    122e:	2e 1b       	sub	r18, r30
    1230:	3f 0b       	sbc	r19, r31
    1232:	28 17       	cp	r18, r24
    1234:	39 07       	cpc	r19, r25
    1236:	78 f0       	brcs	.+30     	; 0x1256 <malloc+0x120>
    1238:	ac 01       	movw	r20, r24
    123a:	4e 5f       	subi	r20, 0xFE	; 254
    123c:	5f 4f       	sbci	r21, 0xFF	; 255
    123e:	24 17       	cp	r18, r20
    1240:	35 07       	cpc	r19, r21
    1242:	48 f0       	brcs	.+18     	; 0x1256 <malloc+0x120>
    1244:	4e 0f       	add	r20, r30
    1246:	5f 1f       	adc	r21, r31
    1248:	50 93 b3 03 	sts	0x03B3, r21	; 0x8003b3 <__brkval+0x1>
    124c:	40 93 b2 03 	sts	0x03B2, r20	; 0x8003b2 <__brkval>
    1250:	81 93       	st	Z+, r24
    1252:	91 93       	st	Z+, r25
    1254:	02 c0       	rjmp	.+4      	; 0x125a <malloc+0x124>
    1256:	e0 e0       	ldi	r30, 0x00	; 0
    1258:	f0 e0       	ldi	r31, 0x00	; 0
    125a:	cf 01       	movw	r24, r30
    125c:	df 91       	pop	r29
    125e:	cf 91       	pop	r28
    1260:	1f 91       	pop	r17
    1262:	0f 91       	pop	r16
    1264:	08 95       	ret

00001266 <free>:
    1266:	cf 93       	push	r28
    1268:	df 93       	push	r29
    126a:	00 97       	sbiw	r24, 0x00	; 0
    126c:	09 f4       	brne	.+2      	; 0x1270 <free+0xa>
    126e:	81 c0       	rjmp	.+258    	; 0x1372 <free+0x10c>
    1270:	fc 01       	movw	r30, r24
    1272:	32 97       	sbiw	r30, 0x02	; 2
    1274:	13 82       	std	Z+3, r1	; 0x03
    1276:	12 82       	std	Z+2, r1	; 0x02
    1278:	a0 91 b4 03 	lds	r26, 0x03B4	; 0x8003b4 <__flp>
    127c:	b0 91 b5 03 	lds	r27, 0x03B5	; 0x8003b5 <__flp+0x1>
    1280:	10 97       	sbiw	r26, 0x00	; 0
    1282:	81 f4       	brne	.+32     	; 0x12a4 <free+0x3e>
    1284:	20 81       	ld	r18, Z
    1286:	31 81       	ldd	r19, Z+1	; 0x01
    1288:	82 0f       	add	r24, r18
    128a:	93 1f       	adc	r25, r19
    128c:	20 91 b2 03 	lds	r18, 0x03B2	; 0x8003b2 <__brkval>
    1290:	30 91 b3 03 	lds	r19, 0x03B3	; 0x8003b3 <__brkval+0x1>
    1294:	28 17       	cp	r18, r24
    1296:	39 07       	cpc	r19, r25
    1298:	51 f5       	brne	.+84     	; 0x12ee <free+0x88>
    129a:	f0 93 b3 03 	sts	0x03B3, r31	; 0x8003b3 <__brkval+0x1>
    129e:	e0 93 b2 03 	sts	0x03B2, r30	; 0x8003b2 <__brkval>
    12a2:	67 c0       	rjmp	.+206    	; 0x1372 <free+0x10c>
    12a4:	ed 01       	movw	r28, r26
    12a6:	20 e0       	ldi	r18, 0x00	; 0
    12a8:	30 e0       	ldi	r19, 0x00	; 0
    12aa:	ce 17       	cp	r28, r30
    12ac:	df 07       	cpc	r29, r31
    12ae:	40 f4       	brcc	.+16     	; 0x12c0 <free+0x5a>
    12b0:	4a 81       	ldd	r20, Y+2	; 0x02
    12b2:	5b 81       	ldd	r21, Y+3	; 0x03
    12b4:	9e 01       	movw	r18, r28
    12b6:	41 15       	cp	r20, r1
    12b8:	51 05       	cpc	r21, r1
    12ba:	f1 f0       	breq	.+60     	; 0x12f8 <free+0x92>
    12bc:	ea 01       	movw	r28, r20
    12be:	f5 cf       	rjmp	.-22     	; 0x12aa <free+0x44>
    12c0:	d3 83       	std	Z+3, r29	; 0x03
    12c2:	c2 83       	std	Z+2, r28	; 0x02
    12c4:	40 81       	ld	r20, Z
    12c6:	51 81       	ldd	r21, Z+1	; 0x01
    12c8:	84 0f       	add	r24, r20
    12ca:	95 1f       	adc	r25, r21
    12cc:	c8 17       	cp	r28, r24
    12ce:	d9 07       	cpc	r29, r25
    12d0:	59 f4       	brne	.+22     	; 0x12e8 <free+0x82>
    12d2:	88 81       	ld	r24, Y
    12d4:	99 81       	ldd	r25, Y+1	; 0x01
    12d6:	84 0f       	add	r24, r20
    12d8:	95 1f       	adc	r25, r21
    12da:	02 96       	adiw	r24, 0x02	; 2
    12dc:	91 83       	std	Z+1, r25	; 0x01
    12de:	80 83       	st	Z, r24
    12e0:	8a 81       	ldd	r24, Y+2	; 0x02
    12e2:	9b 81       	ldd	r25, Y+3	; 0x03
    12e4:	93 83       	std	Z+3, r25	; 0x03
    12e6:	82 83       	std	Z+2, r24	; 0x02
    12e8:	21 15       	cp	r18, r1
    12ea:	31 05       	cpc	r19, r1
    12ec:	29 f4       	brne	.+10     	; 0x12f8 <free+0x92>
    12ee:	f0 93 b5 03 	sts	0x03B5, r31	; 0x8003b5 <__flp+0x1>
    12f2:	e0 93 b4 03 	sts	0x03B4, r30	; 0x8003b4 <__flp>
    12f6:	3d c0       	rjmp	.+122    	; 0x1372 <free+0x10c>
    12f8:	e9 01       	movw	r28, r18
    12fa:	fb 83       	std	Y+3, r31	; 0x03
    12fc:	ea 83       	std	Y+2, r30	; 0x02
    12fe:	49 91       	ld	r20, Y+
    1300:	59 91       	ld	r21, Y+
    1302:	c4 0f       	add	r28, r20
    1304:	d5 1f       	adc	r29, r21
    1306:	ec 17       	cp	r30, r28
    1308:	fd 07       	cpc	r31, r29
    130a:	61 f4       	brne	.+24     	; 0x1324 <free+0xbe>
    130c:	80 81       	ld	r24, Z
    130e:	91 81       	ldd	r25, Z+1	; 0x01
    1310:	84 0f       	add	r24, r20
    1312:	95 1f       	adc	r25, r21
    1314:	02 96       	adiw	r24, 0x02	; 2
    1316:	e9 01       	movw	r28, r18
    1318:	99 83       	std	Y+1, r25	; 0x01
    131a:	88 83       	st	Y, r24
    131c:	82 81       	ldd	r24, Z+2	; 0x02
    131e:	93 81       	ldd	r25, Z+3	; 0x03
    1320:	9b 83       	std	Y+3, r25	; 0x03
    1322:	8a 83       	std	Y+2, r24	; 0x02
    1324:	e0 e0       	ldi	r30, 0x00	; 0
    1326:	f0 e0       	ldi	r31, 0x00	; 0
    1328:	12 96       	adiw	r26, 0x02	; 2
    132a:	8d 91       	ld	r24, X+
    132c:	9c 91       	ld	r25, X
    132e:	13 97       	sbiw	r26, 0x03	; 3
    1330:	00 97       	sbiw	r24, 0x00	; 0
    1332:	19 f0       	breq	.+6      	; 0x133a <free+0xd4>
    1334:	fd 01       	movw	r30, r26
    1336:	dc 01       	movw	r26, r24
    1338:	f7 cf       	rjmp	.-18     	; 0x1328 <free+0xc2>
    133a:	8d 91       	ld	r24, X+
    133c:	9c 91       	ld	r25, X
    133e:	11 97       	sbiw	r26, 0x01	; 1
    1340:	9d 01       	movw	r18, r26
    1342:	2e 5f       	subi	r18, 0xFE	; 254
    1344:	3f 4f       	sbci	r19, 0xFF	; 255
    1346:	82 0f       	add	r24, r18
    1348:	93 1f       	adc	r25, r19
    134a:	20 91 b2 03 	lds	r18, 0x03B2	; 0x8003b2 <__brkval>
    134e:	30 91 b3 03 	lds	r19, 0x03B3	; 0x8003b3 <__brkval+0x1>
    1352:	28 17       	cp	r18, r24
    1354:	39 07       	cpc	r19, r25
    1356:	69 f4       	brne	.+26     	; 0x1372 <free+0x10c>
    1358:	30 97       	sbiw	r30, 0x00	; 0
    135a:	29 f4       	brne	.+10     	; 0x1366 <free+0x100>
    135c:	10 92 b5 03 	sts	0x03B5, r1	; 0x8003b5 <__flp+0x1>
    1360:	10 92 b4 03 	sts	0x03B4, r1	; 0x8003b4 <__flp>
    1364:	02 c0       	rjmp	.+4      	; 0x136a <free+0x104>
    1366:	13 82       	std	Z+3, r1	; 0x03
    1368:	12 82       	std	Z+2, r1	; 0x02
    136a:	b0 93 b3 03 	sts	0x03B3, r27	; 0x8003b3 <__brkval+0x1>
    136e:	a0 93 b2 03 	sts	0x03B2, r26	; 0x8003b2 <__brkval>
    1372:	df 91       	pop	r29
    1374:	cf 91       	pop	r28
    1376:	08 95       	ret

00001378 <sprintf>:
    1378:	ae e0       	ldi	r26, 0x0E	; 14
    137a:	b0 e0       	ldi	r27, 0x00	; 0
    137c:	e1 ec       	ldi	r30, 0xC1	; 193
    137e:	f9 e0       	ldi	r31, 0x09	; 9
    1380:	aa c2       	rjmp	.+1364   	; 0x18d6 <__prologue_saves__+0x1c>
    1382:	0d 89       	ldd	r16, Y+21	; 0x15
    1384:	1e 89       	ldd	r17, Y+22	; 0x16
    1386:	86 e0       	ldi	r24, 0x06	; 6
    1388:	8c 83       	std	Y+4, r24	; 0x04
    138a:	1a 83       	std	Y+2, r17	; 0x02
    138c:	09 83       	std	Y+1, r16	; 0x01
    138e:	8f ef       	ldi	r24, 0xFF	; 255
    1390:	9f e7       	ldi	r25, 0x7F	; 127
    1392:	9e 83       	std	Y+6, r25	; 0x06
    1394:	8d 83       	std	Y+5, r24	; 0x05
    1396:	ae 01       	movw	r20, r28
    1398:	47 5e       	subi	r20, 0xE7	; 231
    139a:	5f 4f       	sbci	r21, 0xFF	; 255
    139c:	6f 89       	ldd	r22, Y+23	; 0x17
    139e:	78 8d       	ldd	r23, Y+24	; 0x18
    13a0:	ce 01       	movw	r24, r28
    13a2:	01 96       	adiw	r24, 0x01	; 1
    13a4:	08 d0       	rcall	.+16     	; 0x13b6 <vfprintf>
    13a6:	ef 81       	ldd	r30, Y+7	; 0x07
    13a8:	f8 85       	ldd	r31, Y+8	; 0x08
    13aa:	e0 0f       	add	r30, r16
    13ac:	f1 1f       	adc	r31, r17
    13ae:	10 82       	st	Z, r1
    13b0:	2e 96       	adiw	r28, 0x0e	; 14
    13b2:	e4 e0       	ldi	r30, 0x04	; 4
    13b4:	ac c2       	rjmp	.+1368   	; 0x190e <__epilogue_restores__+0x1c>

000013b6 <vfprintf>:
    13b6:	ab e0       	ldi	r26, 0x0B	; 11
    13b8:	b0 e0       	ldi	r27, 0x00	; 0
    13ba:	e0 ee       	ldi	r30, 0xE0	; 224
    13bc:	f9 e0       	ldi	r31, 0x09	; 9
    13be:	7d c2       	rjmp	.+1274   	; 0x18ba <__prologue_saves__>
    13c0:	6c 01       	movw	r12, r24
    13c2:	7b 01       	movw	r14, r22
    13c4:	8a 01       	movw	r16, r20
    13c6:	fc 01       	movw	r30, r24
    13c8:	17 82       	std	Z+7, r1	; 0x07
    13ca:	16 82       	std	Z+6, r1	; 0x06
    13cc:	83 81       	ldd	r24, Z+3	; 0x03
    13ce:	81 ff       	sbrs	r24, 1
    13d0:	bf c1       	rjmp	.+894    	; 0x1750 <vfprintf+0x39a>
    13d2:	ce 01       	movw	r24, r28
    13d4:	01 96       	adiw	r24, 0x01	; 1
    13d6:	3c 01       	movw	r6, r24
    13d8:	f6 01       	movw	r30, r12
    13da:	93 81       	ldd	r25, Z+3	; 0x03
    13dc:	f7 01       	movw	r30, r14
    13de:	93 fd       	sbrc	r25, 3
    13e0:	85 91       	lpm	r24, Z+
    13e2:	93 ff       	sbrs	r25, 3
    13e4:	81 91       	ld	r24, Z+
    13e6:	7f 01       	movw	r14, r30
    13e8:	88 23       	and	r24, r24
    13ea:	09 f4       	brne	.+2      	; 0x13ee <vfprintf+0x38>
    13ec:	ad c1       	rjmp	.+858    	; 0x1748 <vfprintf+0x392>
    13ee:	85 32       	cpi	r24, 0x25	; 37
    13f0:	39 f4       	brne	.+14     	; 0x1400 <vfprintf+0x4a>
    13f2:	93 fd       	sbrc	r25, 3
    13f4:	85 91       	lpm	r24, Z+
    13f6:	93 ff       	sbrs	r25, 3
    13f8:	81 91       	ld	r24, Z+
    13fa:	7f 01       	movw	r14, r30
    13fc:	85 32       	cpi	r24, 0x25	; 37
    13fe:	21 f4       	brne	.+8      	; 0x1408 <vfprintf+0x52>
    1400:	b6 01       	movw	r22, r12
    1402:	90 e0       	ldi	r25, 0x00	; 0
    1404:	c0 d1       	rcall	.+896    	; 0x1786 <fputc>
    1406:	e8 cf       	rjmp	.-48     	; 0x13d8 <vfprintf+0x22>
    1408:	91 2c       	mov	r9, r1
    140a:	21 2c       	mov	r2, r1
    140c:	31 2c       	mov	r3, r1
    140e:	ff e1       	ldi	r31, 0x1F	; 31
    1410:	f3 15       	cp	r31, r3
    1412:	d8 f0       	brcs	.+54     	; 0x144a <vfprintf+0x94>
    1414:	8b 32       	cpi	r24, 0x2B	; 43
    1416:	79 f0       	breq	.+30     	; 0x1436 <vfprintf+0x80>
    1418:	38 f4       	brcc	.+14     	; 0x1428 <vfprintf+0x72>
    141a:	80 32       	cpi	r24, 0x20	; 32
    141c:	79 f0       	breq	.+30     	; 0x143c <vfprintf+0x86>
    141e:	83 32       	cpi	r24, 0x23	; 35
    1420:	a1 f4       	brne	.+40     	; 0x144a <vfprintf+0x94>
    1422:	23 2d       	mov	r18, r3
    1424:	20 61       	ori	r18, 0x10	; 16
    1426:	1d c0       	rjmp	.+58     	; 0x1462 <vfprintf+0xac>
    1428:	8d 32       	cpi	r24, 0x2D	; 45
    142a:	61 f0       	breq	.+24     	; 0x1444 <vfprintf+0x8e>
    142c:	80 33       	cpi	r24, 0x30	; 48
    142e:	69 f4       	brne	.+26     	; 0x144a <vfprintf+0x94>
    1430:	23 2d       	mov	r18, r3
    1432:	21 60       	ori	r18, 0x01	; 1
    1434:	16 c0       	rjmp	.+44     	; 0x1462 <vfprintf+0xac>
    1436:	83 2d       	mov	r24, r3
    1438:	82 60       	ori	r24, 0x02	; 2
    143a:	38 2e       	mov	r3, r24
    143c:	e3 2d       	mov	r30, r3
    143e:	e4 60       	ori	r30, 0x04	; 4
    1440:	3e 2e       	mov	r3, r30
    1442:	2a c0       	rjmp	.+84     	; 0x1498 <vfprintf+0xe2>
    1444:	f3 2d       	mov	r31, r3
    1446:	f8 60       	ori	r31, 0x08	; 8
    1448:	1d c0       	rjmp	.+58     	; 0x1484 <vfprintf+0xce>
    144a:	37 fc       	sbrc	r3, 7
    144c:	2d c0       	rjmp	.+90     	; 0x14a8 <vfprintf+0xf2>
    144e:	20 ed       	ldi	r18, 0xD0	; 208
    1450:	28 0f       	add	r18, r24
    1452:	2a 30       	cpi	r18, 0x0A	; 10
    1454:	40 f0       	brcs	.+16     	; 0x1466 <vfprintf+0xb0>
    1456:	8e 32       	cpi	r24, 0x2E	; 46
    1458:	b9 f4       	brne	.+46     	; 0x1488 <vfprintf+0xd2>
    145a:	36 fc       	sbrc	r3, 6
    145c:	75 c1       	rjmp	.+746    	; 0x1748 <vfprintf+0x392>
    145e:	23 2d       	mov	r18, r3
    1460:	20 64       	ori	r18, 0x40	; 64
    1462:	32 2e       	mov	r3, r18
    1464:	19 c0       	rjmp	.+50     	; 0x1498 <vfprintf+0xe2>
    1466:	36 fe       	sbrs	r3, 6
    1468:	06 c0       	rjmp	.+12     	; 0x1476 <vfprintf+0xc0>
    146a:	8a e0       	ldi	r24, 0x0A	; 10
    146c:	98 9e       	mul	r9, r24
    146e:	20 0d       	add	r18, r0
    1470:	11 24       	eor	r1, r1
    1472:	92 2e       	mov	r9, r18
    1474:	11 c0       	rjmp	.+34     	; 0x1498 <vfprintf+0xe2>
    1476:	ea e0       	ldi	r30, 0x0A	; 10
    1478:	2e 9e       	mul	r2, r30
    147a:	20 0d       	add	r18, r0
    147c:	11 24       	eor	r1, r1
    147e:	22 2e       	mov	r2, r18
    1480:	f3 2d       	mov	r31, r3
    1482:	f0 62       	ori	r31, 0x20	; 32
    1484:	3f 2e       	mov	r3, r31
    1486:	08 c0       	rjmp	.+16     	; 0x1498 <vfprintf+0xe2>
    1488:	8c 36       	cpi	r24, 0x6C	; 108
    148a:	21 f4       	brne	.+8      	; 0x1494 <vfprintf+0xde>
    148c:	83 2d       	mov	r24, r3
    148e:	80 68       	ori	r24, 0x80	; 128
    1490:	38 2e       	mov	r3, r24
    1492:	02 c0       	rjmp	.+4      	; 0x1498 <vfprintf+0xe2>
    1494:	88 36       	cpi	r24, 0x68	; 104
    1496:	41 f4       	brne	.+16     	; 0x14a8 <vfprintf+0xf2>
    1498:	f7 01       	movw	r30, r14
    149a:	93 fd       	sbrc	r25, 3
    149c:	85 91       	lpm	r24, Z+
    149e:	93 ff       	sbrs	r25, 3
    14a0:	81 91       	ld	r24, Z+
    14a2:	7f 01       	movw	r14, r30
    14a4:	81 11       	cpse	r24, r1
    14a6:	b3 cf       	rjmp	.-154    	; 0x140e <vfprintf+0x58>
    14a8:	98 2f       	mov	r25, r24
    14aa:	9f 7d       	andi	r25, 0xDF	; 223
    14ac:	95 54       	subi	r25, 0x45	; 69
    14ae:	93 30       	cpi	r25, 0x03	; 3
    14b0:	28 f4       	brcc	.+10     	; 0x14bc <vfprintf+0x106>
    14b2:	0c 5f       	subi	r16, 0xFC	; 252
    14b4:	1f 4f       	sbci	r17, 0xFF	; 255
    14b6:	9f e3       	ldi	r25, 0x3F	; 63
    14b8:	99 83       	std	Y+1, r25	; 0x01
    14ba:	0d c0       	rjmp	.+26     	; 0x14d6 <vfprintf+0x120>
    14bc:	83 36       	cpi	r24, 0x63	; 99
    14be:	31 f0       	breq	.+12     	; 0x14cc <vfprintf+0x116>
    14c0:	83 37       	cpi	r24, 0x73	; 115
    14c2:	71 f0       	breq	.+28     	; 0x14e0 <vfprintf+0x12a>
    14c4:	83 35       	cpi	r24, 0x53	; 83
    14c6:	09 f0       	breq	.+2      	; 0x14ca <vfprintf+0x114>
    14c8:	55 c0       	rjmp	.+170    	; 0x1574 <vfprintf+0x1be>
    14ca:	20 c0       	rjmp	.+64     	; 0x150c <vfprintf+0x156>
    14cc:	f8 01       	movw	r30, r16
    14ce:	80 81       	ld	r24, Z
    14d0:	89 83       	std	Y+1, r24	; 0x01
    14d2:	0e 5f       	subi	r16, 0xFE	; 254
    14d4:	1f 4f       	sbci	r17, 0xFF	; 255
    14d6:	88 24       	eor	r8, r8
    14d8:	83 94       	inc	r8
    14da:	91 2c       	mov	r9, r1
    14dc:	53 01       	movw	r10, r6
    14de:	12 c0       	rjmp	.+36     	; 0x1504 <vfprintf+0x14e>
    14e0:	28 01       	movw	r4, r16
    14e2:	f2 e0       	ldi	r31, 0x02	; 2
    14e4:	4f 0e       	add	r4, r31
    14e6:	51 1c       	adc	r5, r1
    14e8:	f8 01       	movw	r30, r16
    14ea:	a0 80       	ld	r10, Z
    14ec:	b1 80       	ldd	r11, Z+1	; 0x01
    14ee:	36 fe       	sbrs	r3, 6
    14f0:	03 c0       	rjmp	.+6      	; 0x14f8 <vfprintf+0x142>
    14f2:	69 2d       	mov	r22, r9
    14f4:	70 e0       	ldi	r23, 0x00	; 0
    14f6:	02 c0       	rjmp	.+4      	; 0x14fc <vfprintf+0x146>
    14f8:	6f ef       	ldi	r22, 0xFF	; 255
    14fa:	7f ef       	ldi	r23, 0xFF	; 255
    14fc:	c5 01       	movw	r24, r10
    14fe:	38 d1       	rcall	.+624    	; 0x1770 <strnlen>
    1500:	4c 01       	movw	r8, r24
    1502:	82 01       	movw	r16, r4
    1504:	f3 2d       	mov	r31, r3
    1506:	ff 77       	andi	r31, 0x7F	; 127
    1508:	3f 2e       	mov	r3, r31
    150a:	15 c0       	rjmp	.+42     	; 0x1536 <vfprintf+0x180>
    150c:	28 01       	movw	r4, r16
    150e:	22 e0       	ldi	r18, 0x02	; 2
    1510:	42 0e       	add	r4, r18
    1512:	51 1c       	adc	r5, r1
    1514:	f8 01       	movw	r30, r16
    1516:	a0 80       	ld	r10, Z
    1518:	b1 80       	ldd	r11, Z+1	; 0x01
    151a:	36 fe       	sbrs	r3, 6
    151c:	03 c0       	rjmp	.+6      	; 0x1524 <vfprintf+0x16e>
    151e:	69 2d       	mov	r22, r9
    1520:	70 e0       	ldi	r23, 0x00	; 0
    1522:	02 c0       	rjmp	.+4      	; 0x1528 <vfprintf+0x172>
    1524:	6f ef       	ldi	r22, 0xFF	; 255
    1526:	7f ef       	ldi	r23, 0xFF	; 255
    1528:	c5 01       	movw	r24, r10
    152a:	17 d1       	rcall	.+558    	; 0x175a <strnlen_P>
    152c:	4c 01       	movw	r8, r24
    152e:	f3 2d       	mov	r31, r3
    1530:	f0 68       	ori	r31, 0x80	; 128
    1532:	3f 2e       	mov	r3, r31
    1534:	82 01       	movw	r16, r4
    1536:	33 fc       	sbrc	r3, 3
    1538:	19 c0       	rjmp	.+50     	; 0x156c <vfprintf+0x1b6>
    153a:	82 2d       	mov	r24, r2
    153c:	90 e0       	ldi	r25, 0x00	; 0
    153e:	88 16       	cp	r8, r24
    1540:	99 06       	cpc	r9, r25
    1542:	a0 f4       	brcc	.+40     	; 0x156c <vfprintf+0x1b6>
    1544:	b6 01       	movw	r22, r12
    1546:	80 e2       	ldi	r24, 0x20	; 32
    1548:	90 e0       	ldi	r25, 0x00	; 0
    154a:	1d d1       	rcall	.+570    	; 0x1786 <fputc>
    154c:	2a 94       	dec	r2
    154e:	f5 cf       	rjmp	.-22     	; 0x153a <vfprintf+0x184>
    1550:	f5 01       	movw	r30, r10
    1552:	37 fc       	sbrc	r3, 7
    1554:	85 91       	lpm	r24, Z+
    1556:	37 fe       	sbrs	r3, 7
    1558:	81 91       	ld	r24, Z+
    155a:	5f 01       	movw	r10, r30
    155c:	b6 01       	movw	r22, r12
    155e:	90 e0       	ldi	r25, 0x00	; 0
    1560:	12 d1       	rcall	.+548    	; 0x1786 <fputc>
    1562:	21 10       	cpse	r2, r1
    1564:	2a 94       	dec	r2
    1566:	21 e0       	ldi	r18, 0x01	; 1
    1568:	82 1a       	sub	r8, r18
    156a:	91 08       	sbc	r9, r1
    156c:	81 14       	cp	r8, r1
    156e:	91 04       	cpc	r9, r1
    1570:	79 f7       	brne	.-34     	; 0x1550 <vfprintf+0x19a>
    1572:	e1 c0       	rjmp	.+450    	; 0x1736 <vfprintf+0x380>
    1574:	84 36       	cpi	r24, 0x64	; 100
    1576:	11 f0       	breq	.+4      	; 0x157c <vfprintf+0x1c6>
    1578:	89 36       	cpi	r24, 0x69	; 105
    157a:	39 f5       	brne	.+78     	; 0x15ca <vfprintf+0x214>
    157c:	f8 01       	movw	r30, r16
    157e:	37 fe       	sbrs	r3, 7
    1580:	07 c0       	rjmp	.+14     	; 0x1590 <vfprintf+0x1da>
    1582:	60 81       	ld	r22, Z
    1584:	71 81       	ldd	r23, Z+1	; 0x01
    1586:	82 81       	ldd	r24, Z+2	; 0x02
    1588:	93 81       	ldd	r25, Z+3	; 0x03
    158a:	0c 5f       	subi	r16, 0xFC	; 252
    158c:	1f 4f       	sbci	r17, 0xFF	; 255
    158e:	08 c0       	rjmp	.+16     	; 0x15a0 <vfprintf+0x1ea>
    1590:	60 81       	ld	r22, Z
    1592:	71 81       	ldd	r23, Z+1	; 0x01
    1594:	07 2e       	mov	r0, r23
    1596:	00 0c       	add	r0, r0
    1598:	88 0b       	sbc	r24, r24
    159a:	99 0b       	sbc	r25, r25
    159c:	0e 5f       	subi	r16, 0xFE	; 254
    159e:	1f 4f       	sbci	r17, 0xFF	; 255
    15a0:	f3 2d       	mov	r31, r3
    15a2:	ff 76       	andi	r31, 0x6F	; 111
    15a4:	3f 2e       	mov	r3, r31
    15a6:	97 ff       	sbrs	r25, 7
    15a8:	09 c0       	rjmp	.+18     	; 0x15bc <vfprintf+0x206>
    15aa:	90 95       	com	r25
    15ac:	80 95       	com	r24
    15ae:	70 95       	com	r23
    15b0:	61 95       	neg	r22
    15b2:	7f 4f       	sbci	r23, 0xFF	; 255
    15b4:	8f 4f       	sbci	r24, 0xFF	; 255
    15b6:	9f 4f       	sbci	r25, 0xFF	; 255
    15b8:	f0 68       	ori	r31, 0x80	; 128
    15ba:	3f 2e       	mov	r3, r31
    15bc:	2a e0       	ldi	r18, 0x0A	; 10
    15be:	30 e0       	ldi	r19, 0x00	; 0
    15c0:	a3 01       	movw	r20, r6
    15c2:	1d d1       	rcall	.+570    	; 0x17fe <__ultoa_invert>
    15c4:	88 2e       	mov	r8, r24
    15c6:	86 18       	sub	r8, r6
    15c8:	44 c0       	rjmp	.+136    	; 0x1652 <vfprintf+0x29c>
    15ca:	85 37       	cpi	r24, 0x75	; 117
    15cc:	31 f4       	brne	.+12     	; 0x15da <vfprintf+0x224>
    15ce:	23 2d       	mov	r18, r3
    15d0:	2f 7e       	andi	r18, 0xEF	; 239
    15d2:	b2 2e       	mov	r11, r18
    15d4:	2a e0       	ldi	r18, 0x0A	; 10
    15d6:	30 e0       	ldi	r19, 0x00	; 0
    15d8:	25 c0       	rjmp	.+74     	; 0x1624 <vfprintf+0x26e>
    15da:	93 2d       	mov	r25, r3
    15dc:	99 7f       	andi	r25, 0xF9	; 249
    15de:	b9 2e       	mov	r11, r25
    15e0:	8f 36       	cpi	r24, 0x6F	; 111
    15e2:	c1 f0       	breq	.+48     	; 0x1614 <vfprintf+0x25e>
    15e4:	18 f4       	brcc	.+6      	; 0x15ec <vfprintf+0x236>
    15e6:	88 35       	cpi	r24, 0x58	; 88
    15e8:	79 f0       	breq	.+30     	; 0x1608 <vfprintf+0x252>
    15ea:	ae c0       	rjmp	.+348    	; 0x1748 <vfprintf+0x392>
    15ec:	80 37       	cpi	r24, 0x70	; 112
    15ee:	19 f0       	breq	.+6      	; 0x15f6 <vfprintf+0x240>
    15f0:	88 37       	cpi	r24, 0x78	; 120
    15f2:	21 f0       	breq	.+8      	; 0x15fc <vfprintf+0x246>
    15f4:	a9 c0       	rjmp	.+338    	; 0x1748 <vfprintf+0x392>
    15f6:	e9 2f       	mov	r30, r25
    15f8:	e0 61       	ori	r30, 0x10	; 16
    15fa:	be 2e       	mov	r11, r30
    15fc:	b4 fe       	sbrs	r11, 4
    15fe:	0d c0       	rjmp	.+26     	; 0x161a <vfprintf+0x264>
    1600:	fb 2d       	mov	r31, r11
    1602:	f4 60       	ori	r31, 0x04	; 4
    1604:	bf 2e       	mov	r11, r31
    1606:	09 c0       	rjmp	.+18     	; 0x161a <vfprintf+0x264>
    1608:	34 fe       	sbrs	r3, 4
    160a:	0a c0       	rjmp	.+20     	; 0x1620 <vfprintf+0x26a>
    160c:	29 2f       	mov	r18, r25
    160e:	26 60       	ori	r18, 0x06	; 6
    1610:	b2 2e       	mov	r11, r18
    1612:	06 c0       	rjmp	.+12     	; 0x1620 <vfprintf+0x26a>
    1614:	28 e0       	ldi	r18, 0x08	; 8
    1616:	30 e0       	ldi	r19, 0x00	; 0
    1618:	05 c0       	rjmp	.+10     	; 0x1624 <vfprintf+0x26e>
    161a:	20 e1       	ldi	r18, 0x10	; 16
    161c:	30 e0       	ldi	r19, 0x00	; 0
    161e:	02 c0       	rjmp	.+4      	; 0x1624 <vfprintf+0x26e>
    1620:	20 e1       	ldi	r18, 0x10	; 16
    1622:	32 e0       	ldi	r19, 0x02	; 2
    1624:	f8 01       	movw	r30, r16
    1626:	b7 fe       	sbrs	r11, 7
    1628:	07 c0       	rjmp	.+14     	; 0x1638 <vfprintf+0x282>
    162a:	60 81       	ld	r22, Z
    162c:	71 81       	ldd	r23, Z+1	; 0x01
    162e:	82 81       	ldd	r24, Z+2	; 0x02
    1630:	93 81       	ldd	r25, Z+3	; 0x03
    1632:	0c 5f       	subi	r16, 0xFC	; 252
    1634:	1f 4f       	sbci	r17, 0xFF	; 255
    1636:	06 c0       	rjmp	.+12     	; 0x1644 <vfprintf+0x28e>
    1638:	60 81       	ld	r22, Z
    163a:	71 81       	ldd	r23, Z+1	; 0x01
    163c:	80 e0       	ldi	r24, 0x00	; 0
    163e:	90 e0       	ldi	r25, 0x00	; 0
    1640:	0e 5f       	subi	r16, 0xFE	; 254
    1642:	1f 4f       	sbci	r17, 0xFF	; 255
    1644:	a3 01       	movw	r20, r6
    1646:	db d0       	rcall	.+438    	; 0x17fe <__ultoa_invert>
    1648:	88 2e       	mov	r8, r24
    164a:	86 18       	sub	r8, r6
    164c:	fb 2d       	mov	r31, r11
    164e:	ff 77       	andi	r31, 0x7F	; 127
    1650:	3f 2e       	mov	r3, r31
    1652:	36 fe       	sbrs	r3, 6
    1654:	0d c0       	rjmp	.+26     	; 0x1670 <vfprintf+0x2ba>
    1656:	23 2d       	mov	r18, r3
    1658:	2e 7f       	andi	r18, 0xFE	; 254
    165a:	a2 2e       	mov	r10, r18
    165c:	89 14       	cp	r8, r9
    165e:	58 f4       	brcc	.+22     	; 0x1676 <vfprintf+0x2c0>
    1660:	34 fe       	sbrs	r3, 4
    1662:	0b c0       	rjmp	.+22     	; 0x167a <vfprintf+0x2c4>
    1664:	32 fc       	sbrc	r3, 2
    1666:	09 c0       	rjmp	.+18     	; 0x167a <vfprintf+0x2c4>
    1668:	83 2d       	mov	r24, r3
    166a:	8e 7e       	andi	r24, 0xEE	; 238
    166c:	a8 2e       	mov	r10, r24
    166e:	05 c0       	rjmp	.+10     	; 0x167a <vfprintf+0x2c4>
    1670:	b8 2c       	mov	r11, r8
    1672:	a3 2c       	mov	r10, r3
    1674:	03 c0       	rjmp	.+6      	; 0x167c <vfprintf+0x2c6>
    1676:	b8 2c       	mov	r11, r8
    1678:	01 c0       	rjmp	.+2      	; 0x167c <vfprintf+0x2c6>
    167a:	b9 2c       	mov	r11, r9
    167c:	a4 fe       	sbrs	r10, 4
    167e:	0f c0       	rjmp	.+30     	; 0x169e <vfprintf+0x2e8>
    1680:	fe 01       	movw	r30, r28
    1682:	e8 0d       	add	r30, r8
    1684:	f1 1d       	adc	r31, r1
    1686:	80 81       	ld	r24, Z
    1688:	80 33       	cpi	r24, 0x30	; 48
    168a:	21 f4       	brne	.+8      	; 0x1694 <vfprintf+0x2de>
    168c:	9a 2d       	mov	r25, r10
    168e:	99 7e       	andi	r25, 0xE9	; 233
    1690:	a9 2e       	mov	r10, r25
    1692:	09 c0       	rjmp	.+18     	; 0x16a6 <vfprintf+0x2f0>
    1694:	a2 fe       	sbrs	r10, 2
    1696:	06 c0       	rjmp	.+12     	; 0x16a4 <vfprintf+0x2ee>
    1698:	b3 94       	inc	r11
    169a:	b3 94       	inc	r11
    169c:	04 c0       	rjmp	.+8      	; 0x16a6 <vfprintf+0x2f0>
    169e:	8a 2d       	mov	r24, r10
    16a0:	86 78       	andi	r24, 0x86	; 134
    16a2:	09 f0       	breq	.+2      	; 0x16a6 <vfprintf+0x2f0>
    16a4:	b3 94       	inc	r11
    16a6:	a3 fc       	sbrc	r10, 3
    16a8:	10 c0       	rjmp	.+32     	; 0x16ca <vfprintf+0x314>
    16aa:	a0 fe       	sbrs	r10, 0
    16ac:	06 c0       	rjmp	.+12     	; 0x16ba <vfprintf+0x304>
    16ae:	b2 14       	cp	r11, r2
    16b0:	80 f4       	brcc	.+32     	; 0x16d2 <vfprintf+0x31c>
    16b2:	28 0c       	add	r2, r8
    16b4:	92 2c       	mov	r9, r2
    16b6:	9b 18       	sub	r9, r11
    16b8:	0d c0       	rjmp	.+26     	; 0x16d4 <vfprintf+0x31e>
    16ba:	b2 14       	cp	r11, r2
    16bc:	58 f4       	brcc	.+22     	; 0x16d4 <vfprintf+0x31e>
    16be:	b6 01       	movw	r22, r12
    16c0:	80 e2       	ldi	r24, 0x20	; 32
    16c2:	90 e0       	ldi	r25, 0x00	; 0
    16c4:	60 d0       	rcall	.+192    	; 0x1786 <fputc>
    16c6:	b3 94       	inc	r11
    16c8:	f8 cf       	rjmp	.-16     	; 0x16ba <vfprintf+0x304>
    16ca:	b2 14       	cp	r11, r2
    16cc:	18 f4       	brcc	.+6      	; 0x16d4 <vfprintf+0x31e>
    16ce:	2b 18       	sub	r2, r11
    16d0:	02 c0       	rjmp	.+4      	; 0x16d6 <vfprintf+0x320>
    16d2:	98 2c       	mov	r9, r8
    16d4:	21 2c       	mov	r2, r1
    16d6:	a4 fe       	sbrs	r10, 4
    16d8:	0f c0       	rjmp	.+30     	; 0x16f8 <vfprintf+0x342>
    16da:	b6 01       	movw	r22, r12
    16dc:	80 e3       	ldi	r24, 0x30	; 48
    16de:	90 e0       	ldi	r25, 0x00	; 0
    16e0:	52 d0       	rcall	.+164    	; 0x1786 <fputc>
    16e2:	a2 fe       	sbrs	r10, 2
    16e4:	16 c0       	rjmp	.+44     	; 0x1712 <vfprintf+0x35c>
    16e6:	a1 fc       	sbrc	r10, 1
    16e8:	03 c0       	rjmp	.+6      	; 0x16f0 <vfprintf+0x33a>
    16ea:	88 e7       	ldi	r24, 0x78	; 120
    16ec:	90 e0       	ldi	r25, 0x00	; 0
    16ee:	02 c0       	rjmp	.+4      	; 0x16f4 <vfprintf+0x33e>
    16f0:	88 e5       	ldi	r24, 0x58	; 88
    16f2:	90 e0       	ldi	r25, 0x00	; 0
    16f4:	b6 01       	movw	r22, r12
    16f6:	0c c0       	rjmp	.+24     	; 0x1710 <vfprintf+0x35a>
    16f8:	8a 2d       	mov	r24, r10
    16fa:	86 78       	andi	r24, 0x86	; 134
    16fc:	51 f0       	breq	.+20     	; 0x1712 <vfprintf+0x35c>
    16fe:	a1 fe       	sbrs	r10, 1
    1700:	02 c0       	rjmp	.+4      	; 0x1706 <vfprintf+0x350>
    1702:	8b e2       	ldi	r24, 0x2B	; 43
    1704:	01 c0       	rjmp	.+2      	; 0x1708 <vfprintf+0x352>
    1706:	80 e2       	ldi	r24, 0x20	; 32
    1708:	a7 fc       	sbrc	r10, 7
    170a:	8d e2       	ldi	r24, 0x2D	; 45
    170c:	b6 01       	movw	r22, r12
    170e:	90 e0       	ldi	r25, 0x00	; 0
    1710:	3a d0       	rcall	.+116    	; 0x1786 <fputc>
    1712:	89 14       	cp	r8, r9
    1714:	30 f4       	brcc	.+12     	; 0x1722 <vfprintf+0x36c>
    1716:	b6 01       	movw	r22, r12
    1718:	80 e3       	ldi	r24, 0x30	; 48
    171a:	90 e0       	ldi	r25, 0x00	; 0
    171c:	34 d0       	rcall	.+104    	; 0x1786 <fputc>
    171e:	9a 94       	dec	r9
    1720:	f8 cf       	rjmp	.-16     	; 0x1712 <vfprintf+0x35c>
    1722:	8a 94       	dec	r8
    1724:	f3 01       	movw	r30, r6
    1726:	e8 0d       	add	r30, r8
    1728:	f1 1d       	adc	r31, r1
    172a:	80 81       	ld	r24, Z
    172c:	b6 01       	movw	r22, r12
    172e:	90 e0       	ldi	r25, 0x00	; 0
    1730:	2a d0       	rcall	.+84     	; 0x1786 <fputc>
    1732:	81 10       	cpse	r8, r1
    1734:	f6 cf       	rjmp	.-20     	; 0x1722 <vfprintf+0x36c>
    1736:	22 20       	and	r2, r2
    1738:	09 f4       	brne	.+2      	; 0x173c <vfprintf+0x386>
    173a:	4e ce       	rjmp	.-868    	; 0x13d8 <vfprintf+0x22>
    173c:	b6 01       	movw	r22, r12
    173e:	80 e2       	ldi	r24, 0x20	; 32
    1740:	90 e0       	ldi	r25, 0x00	; 0
    1742:	21 d0       	rcall	.+66     	; 0x1786 <fputc>
    1744:	2a 94       	dec	r2
    1746:	f7 cf       	rjmp	.-18     	; 0x1736 <vfprintf+0x380>
    1748:	f6 01       	movw	r30, r12
    174a:	86 81       	ldd	r24, Z+6	; 0x06
    174c:	97 81       	ldd	r25, Z+7	; 0x07
    174e:	02 c0       	rjmp	.+4      	; 0x1754 <vfprintf+0x39e>
    1750:	8f ef       	ldi	r24, 0xFF	; 255
    1752:	9f ef       	ldi	r25, 0xFF	; 255
    1754:	2b 96       	adiw	r28, 0x0b	; 11
    1756:	e2 e1       	ldi	r30, 0x12	; 18
    1758:	cc c0       	rjmp	.+408    	; 0x18f2 <__epilogue_restores__>

0000175a <strnlen_P>:
    175a:	fc 01       	movw	r30, r24
    175c:	05 90       	lpm	r0, Z+
    175e:	61 50       	subi	r22, 0x01	; 1
    1760:	70 40       	sbci	r23, 0x00	; 0
    1762:	01 10       	cpse	r0, r1
    1764:	d8 f7       	brcc	.-10     	; 0x175c <strnlen_P+0x2>
    1766:	80 95       	com	r24
    1768:	90 95       	com	r25
    176a:	8e 0f       	add	r24, r30
    176c:	9f 1f       	adc	r25, r31
    176e:	08 95       	ret

00001770 <strnlen>:
    1770:	fc 01       	movw	r30, r24
    1772:	61 50       	subi	r22, 0x01	; 1
    1774:	70 40       	sbci	r23, 0x00	; 0
    1776:	01 90       	ld	r0, Z+
    1778:	01 10       	cpse	r0, r1
    177a:	d8 f7       	brcc	.-10     	; 0x1772 <strnlen+0x2>
    177c:	80 95       	com	r24
    177e:	90 95       	com	r25
    1780:	8e 0f       	add	r24, r30
    1782:	9f 1f       	adc	r25, r31
    1784:	08 95       	ret

00001786 <fputc>:
    1786:	0f 93       	push	r16
    1788:	1f 93       	push	r17
    178a:	cf 93       	push	r28
    178c:	df 93       	push	r29
    178e:	fb 01       	movw	r30, r22
    1790:	23 81       	ldd	r18, Z+3	; 0x03
    1792:	21 fd       	sbrc	r18, 1
    1794:	03 c0       	rjmp	.+6      	; 0x179c <fputc+0x16>
    1796:	8f ef       	ldi	r24, 0xFF	; 255
    1798:	9f ef       	ldi	r25, 0xFF	; 255
    179a:	2c c0       	rjmp	.+88     	; 0x17f4 <fputc+0x6e>
    179c:	22 ff       	sbrs	r18, 2
    179e:	16 c0       	rjmp	.+44     	; 0x17cc <fputc+0x46>
    17a0:	46 81       	ldd	r20, Z+6	; 0x06
    17a2:	57 81       	ldd	r21, Z+7	; 0x07
    17a4:	24 81       	ldd	r18, Z+4	; 0x04
    17a6:	35 81       	ldd	r19, Z+5	; 0x05
    17a8:	42 17       	cp	r20, r18
    17aa:	53 07       	cpc	r21, r19
    17ac:	44 f4       	brge	.+16     	; 0x17be <fputc+0x38>
    17ae:	a0 81       	ld	r26, Z
    17b0:	b1 81       	ldd	r27, Z+1	; 0x01
    17b2:	9d 01       	movw	r18, r26
    17b4:	2f 5f       	subi	r18, 0xFF	; 255
    17b6:	3f 4f       	sbci	r19, 0xFF	; 255
    17b8:	31 83       	std	Z+1, r19	; 0x01
    17ba:	20 83       	st	Z, r18
    17bc:	8c 93       	st	X, r24
    17be:	26 81       	ldd	r18, Z+6	; 0x06
    17c0:	37 81       	ldd	r19, Z+7	; 0x07
    17c2:	2f 5f       	subi	r18, 0xFF	; 255
    17c4:	3f 4f       	sbci	r19, 0xFF	; 255
    17c6:	37 83       	std	Z+7, r19	; 0x07
    17c8:	26 83       	std	Z+6, r18	; 0x06
    17ca:	14 c0       	rjmp	.+40     	; 0x17f4 <fputc+0x6e>
    17cc:	8b 01       	movw	r16, r22
    17ce:	ec 01       	movw	r28, r24
    17d0:	fb 01       	movw	r30, r22
    17d2:	00 84       	ldd	r0, Z+8	; 0x08
    17d4:	f1 85       	ldd	r31, Z+9	; 0x09
    17d6:	e0 2d       	mov	r30, r0
    17d8:	09 95       	icall
    17da:	89 2b       	or	r24, r25
    17dc:	e1 f6       	brne	.-72     	; 0x1796 <fputc+0x10>
    17de:	d8 01       	movw	r26, r16
    17e0:	16 96       	adiw	r26, 0x06	; 6
    17e2:	8d 91       	ld	r24, X+
    17e4:	9c 91       	ld	r25, X
    17e6:	17 97       	sbiw	r26, 0x07	; 7
    17e8:	01 96       	adiw	r24, 0x01	; 1
    17ea:	17 96       	adiw	r26, 0x07	; 7
    17ec:	9c 93       	st	X, r25
    17ee:	8e 93       	st	-X, r24
    17f0:	16 97       	sbiw	r26, 0x06	; 6
    17f2:	ce 01       	movw	r24, r28
    17f4:	df 91       	pop	r29
    17f6:	cf 91       	pop	r28
    17f8:	1f 91       	pop	r17
    17fa:	0f 91       	pop	r16
    17fc:	08 95       	ret

000017fe <__ultoa_invert>:
    17fe:	fa 01       	movw	r30, r20
    1800:	aa 27       	eor	r26, r26
    1802:	28 30       	cpi	r18, 0x08	; 8
    1804:	51 f1       	breq	.+84     	; 0x185a <__ultoa_invert+0x5c>
    1806:	20 31       	cpi	r18, 0x10	; 16
    1808:	81 f1       	breq	.+96     	; 0x186a <__ultoa_invert+0x6c>
    180a:	e8 94       	clt
    180c:	6f 93       	push	r22
    180e:	6e 7f       	andi	r22, 0xFE	; 254
    1810:	6e 5f       	subi	r22, 0xFE	; 254
    1812:	7f 4f       	sbci	r23, 0xFF	; 255
    1814:	8f 4f       	sbci	r24, 0xFF	; 255
    1816:	9f 4f       	sbci	r25, 0xFF	; 255
    1818:	af 4f       	sbci	r26, 0xFF	; 255
    181a:	b1 e0       	ldi	r27, 0x01	; 1
    181c:	3e d0       	rcall	.+124    	; 0x189a <__ultoa_invert+0x9c>
    181e:	b4 e0       	ldi	r27, 0x04	; 4
    1820:	3c d0       	rcall	.+120    	; 0x189a <__ultoa_invert+0x9c>
    1822:	67 0f       	add	r22, r23
    1824:	78 1f       	adc	r23, r24
    1826:	89 1f       	adc	r24, r25
    1828:	9a 1f       	adc	r25, r26
    182a:	a1 1d       	adc	r26, r1
    182c:	68 0f       	add	r22, r24
    182e:	79 1f       	adc	r23, r25
    1830:	8a 1f       	adc	r24, r26
    1832:	91 1d       	adc	r25, r1
    1834:	a1 1d       	adc	r26, r1
    1836:	6a 0f       	add	r22, r26
    1838:	71 1d       	adc	r23, r1
    183a:	81 1d       	adc	r24, r1
    183c:	91 1d       	adc	r25, r1
    183e:	a1 1d       	adc	r26, r1
    1840:	20 d0       	rcall	.+64     	; 0x1882 <__ultoa_invert+0x84>
    1842:	09 f4       	brne	.+2      	; 0x1846 <__ultoa_invert+0x48>
    1844:	68 94       	set
    1846:	3f 91       	pop	r19
    1848:	2a e0       	ldi	r18, 0x0A	; 10
    184a:	26 9f       	mul	r18, r22
    184c:	11 24       	eor	r1, r1
    184e:	30 19       	sub	r19, r0
    1850:	30 5d       	subi	r19, 0xD0	; 208
    1852:	31 93       	st	Z+, r19
    1854:	de f6       	brtc	.-74     	; 0x180c <__ultoa_invert+0xe>
    1856:	cf 01       	movw	r24, r30
    1858:	08 95       	ret
    185a:	46 2f       	mov	r20, r22
    185c:	47 70       	andi	r20, 0x07	; 7
    185e:	40 5d       	subi	r20, 0xD0	; 208
    1860:	41 93       	st	Z+, r20
    1862:	b3 e0       	ldi	r27, 0x03	; 3
    1864:	0f d0       	rcall	.+30     	; 0x1884 <__ultoa_invert+0x86>
    1866:	c9 f7       	brne	.-14     	; 0x185a <__ultoa_invert+0x5c>
    1868:	f6 cf       	rjmp	.-20     	; 0x1856 <__ultoa_invert+0x58>
    186a:	46 2f       	mov	r20, r22
    186c:	4f 70       	andi	r20, 0x0F	; 15
    186e:	40 5d       	subi	r20, 0xD0	; 208
    1870:	4a 33       	cpi	r20, 0x3A	; 58
    1872:	18 f0       	brcs	.+6      	; 0x187a <__ultoa_invert+0x7c>
    1874:	49 5d       	subi	r20, 0xD9	; 217
    1876:	31 fd       	sbrc	r19, 1
    1878:	40 52       	subi	r20, 0x20	; 32
    187a:	41 93       	st	Z+, r20
    187c:	02 d0       	rcall	.+4      	; 0x1882 <__ultoa_invert+0x84>
    187e:	a9 f7       	brne	.-22     	; 0x186a <__ultoa_invert+0x6c>
    1880:	ea cf       	rjmp	.-44     	; 0x1856 <__ultoa_invert+0x58>
    1882:	b4 e0       	ldi	r27, 0x04	; 4
    1884:	a6 95       	lsr	r26
    1886:	97 95       	ror	r25
    1888:	87 95       	ror	r24
    188a:	77 95       	ror	r23
    188c:	67 95       	ror	r22
    188e:	ba 95       	dec	r27
    1890:	c9 f7       	brne	.-14     	; 0x1884 <__ultoa_invert+0x86>
    1892:	00 97       	sbiw	r24, 0x00	; 0
    1894:	61 05       	cpc	r22, r1
    1896:	71 05       	cpc	r23, r1
    1898:	08 95       	ret
    189a:	9b 01       	movw	r18, r22
    189c:	ac 01       	movw	r20, r24
    189e:	0a 2e       	mov	r0, r26
    18a0:	06 94       	lsr	r0
    18a2:	57 95       	ror	r21
    18a4:	47 95       	ror	r20
    18a6:	37 95       	ror	r19
    18a8:	27 95       	ror	r18
    18aa:	ba 95       	dec	r27
    18ac:	c9 f7       	brne	.-14     	; 0x18a0 <__ultoa_invert+0xa2>
    18ae:	62 0f       	add	r22, r18
    18b0:	73 1f       	adc	r23, r19
    18b2:	84 1f       	adc	r24, r20
    18b4:	95 1f       	adc	r25, r21
    18b6:	a0 1d       	adc	r26, r0
    18b8:	08 95       	ret

000018ba <__prologue_saves__>:
    18ba:	2f 92       	push	r2
    18bc:	3f 92       	push	r3
    18be:	4f 92       	push	r4
    18c0:	5f 92       	push	r5
    18c2:	6f 92       	push	r6
    18c4:	7f 92       	push	r7
    18c6:	8f 92       	push	r8
    18c8:	9f 92       	push	r9
    18ca:	af 92       	push	r10
    18cc:	bf 92       	push	r11
    18ce:	cf 92       	push	r12
    18d0:	df 92       	push	r13
    18d2:	ef 92       	push	r14
    18d4:	ff 92       	push	r15
    18d6:	0f 93       	push	r16
    18d8:	1f 93       	push	r17
    18da:	cf 93       	push	r28
    18dc:	df 93       	push	r29
    18de:	cd b7       	in	r28, 0x3d	; 61
    18e0:	de b7       	in	r29, 0x3e	; 62
    18e2:	ca 1b       	sub	r28, r26
    18e4:	db 0b       	sbc	r29, r27
    18e6:	0f b6       	in	r0, 0x3f	; 63
    18e8:	f8 94       	cli
    18ea:	de bf       	out	0x3e, r29	; 62
    18ec:	0f be       	out	0x3f, r0	; 63
    18ee:	cd bf       	out	0x3d, r28	; 61
    18f0:	09 94       	ijmp

000018f2 <__epilogue_restores__>:
    18f2:	2a 88       	ldd	r2, Y+18	; 0x12
    18f4:	39 88       	ldd	r3, Y+17	; 0x11
    18f6:	48 88       	ldd	r4, Y+16	; 0x10
    18f8:	5f 84       	ldd	r5, Y+15	; 0x0f
    18fa:	6e 84       	ldd	r6, Y+14	; 0x0e
    18fc:	7d 84       	ldd	r7, Y+13	; 0x0d
    18fe:	8c 84       	ldd	r8, Y+12	; 0x0c
    1900:	9b 84       	ldd	r9, Y+11	; 0x0b
    1902:	aa 84       	ldd	r10, Y+10	; 0x0a
    1904:	b9 84       	ldd	r11, Y+9	; 0x09
    1906:	c8 84       	ldd	r12, Y+8	; 0x08
    1908:	df 80       	ldd	r13, Y+7	; 0x07
    190a:	ee 80       	ldd	r14, Y+6	; 0x06
    190c:	fd 80       	ldd	r15, Y+5	; 0x05
    190e:	0c 81       	ldd	r16, Y+4	; 0x04
    1910:	1b 81       	ldd	r17, Y+3	; 0x03
    1912:	aa 81       	ldd	r26, Y+2	; 0x02
    1914:	b9 81       	ldd	r27, Y+1	; 0x01
    1916:	ce 0f       	add	r28, r30
    1918:	d1 1d       	adc	r29, r1
    191a:	0f b6       	in	r0, 0x3f	; 63
    191c:	f8 94       	cli
    191e:	de bf       	out	0x3e, r29	; 62
    1920:	0f be       	out	0x3f, r0	; 63
    1922:	cd bf       	out	0x3d, r28	; 61
    1924:	ed 01       	movw	r28, r26
    1926:	08 95       	ret

00001928 <__do_global_dtors>:
    1928:	10 e0       	ldi	r17, 0x00	; 0
    192a:	ce e4       	ldi	r28, 0x4E	; 78
    192c:	d0 e0       	ldi	r29, 0x00	; 0
    192e:	03 c0       	rjmp	.+6      	; 0x1936 <__do_global_dtors+0xe>
    1930:	fe 01       	movw	r30, r28
    1932:	fb db       	rcall	.-2058   	; 0x112a <__tablejump2__>
    1934:	21 96       	adiw	r28, 0x01	; 1
    1936:	cf 34       	cpi	r28, 0x4F	; 79
    1938:	d1 07       	cpc	r29, r17
    193a:	d1 f7       	brne	.-12     	; 0x1930 <__do_global_dtors+0x8>
    193c:	f8 94       	cli

0000193e <__stop_program>:
    193e:	ff cf       	rjmp	.-2      	; 0x193e <__stop_program>
